{
	"subasta/subasta.sol": {
		"Subasta": {
			"abi": [
				{
					"inputs": [],
					"stateMutability": "nonpayable",
					"type": "constructor"
				},
				{
					"anonymous": false,
					"inputs": [
						{
							"indexed": false,
							"internalType": "uint256",
							"name": "valor",
							"type": "uint256"
						},
						{
							"indexed": true,
							"internalType": "address",
							"name": "ofertante",
							"type": "address"
						}
					],
					"name": "NuevaOferta",
					"type": "event"
				},
				{
					"anonymous": false,
					"inputs": [
						{
							"indexed": false,
							"internalType": "address",
							"name": "ganador",
							"type": "address"
						},
						{
							"indexed": false,
							"internalType": "uint256",
							"name": "ofertaGanadora",
							"type": "uint256"
						}
					],
					"name": "SubastaFinalizada",
					"type": "event"
				},
				{
					"anonymous": false,
					"inputs": [
						{
							"indexed": false,
							"internalType": "address",
							"name": "ofertante",
							"type": "address"
						},
						{
							"indexed": false,
							"internalType": "uint256[]",
							"name": "ofertas",
							"type": "uint256[]"
						}
					],
					"name": "VerOfertantes",
					"type": "event"
				},
				{
					"stateMutability": "payable",
					"type": "fallback"
				},
				{
					"inputs": [],
					"name": "OFERTAR",
					"outputs": [],
					"stateMutability": "payable",
					"type": "function"
				},
				{
					"inputs": [],
					"name": "finalizarSubasta",
					"outputs": [],
					"stateMutability": "nonpayable",
					"type": "function"
				},
				{
					"inputs": [],
					"name": "ofertaBase",
					"outputs": [
						{
							"internalType": "uint256",
							"name": "",
							"type": "uint256"
						}
					],
					"stateMutability": "view",
					"type": "function"
				},
				{
					"inputs": [
						{
							"internalType": "address payable",
							"name": "dir",
							"type": "address"
						}
					],
					"name": "retornarDeposito",
					"outputs": [],
					"stateMutability": "payable",
					"type": "function"
				},
				{
					"inputs": [
						{
							"internalType": "address payable",
							"name": "dir",
							"type": "address"
						}
					],
					"name": "retornarDepositoParciales",
					"outputs": [],
					"stateMutability": "payable",
					"type": "function"
				},
				{
					"inputs": [],
					"name": "subastaTerminada",
					"outputs": [
						{
							"internalType": "bool",
							"name": "",
							"type": "bool"
						}
					],
					"stateMutability": "view",
					"type": "function"
				},
				{
					"inputs": [],
					"name": "tiempoDuracionSubasta",
					"outputs": [
						{
							"internalType": "uint256",
							"name": "",
							"type": "uint256"
						}
					],
					"stateMutability": "view",
					"type": "function"
				},
				{
					"inputs": [],
					"name": "tiempoInicioSubasta",
					"outputs": [
						{
							"internalType": "uint256",
							"name": "",
							"type": "uint256"
						}
					],
					"stateMutability": "view",
					"type": "function"
				},
				{
					"inputs": [],
					"name": "verDepositoOferente",
					"outputs": [
						{
							"internalType": "uint256",
							"name": "",
							"type": "uint256"
						}
					],
					"stateMutability": "view",
					"type": "function"
				},
				{
					"inputs": [],
					"name": "verOfertasOferenteActual",
					"outputs": [
						{
							"internalType": "uint256[]",
							"name": "",
							"type": "uint256[]"
						}
					],
					"stateMutability": "view",
					"type": "function"
				},
				{
					"inputs": [],
					"name": "verTiempoFaltante",
					"outputs": [
						{
							"internalType": "uint256",
							"name": "",
							"type": "uint256"
						}
					],
					"stateMutability": "view",
					"type": "function"
				},
				{
					"inputs": [],
					"name": "verTimestampActual",
					"outputs": [
						{
							"internalType": "uint256",
							"name": "",
							"type": "uint256"
						}
					],
					"stateMutability": "view",
					"type": "function"
				},
				{
					"inputs": [],
					"name": "verTodasLasOfertas",
					"outputs": [
						{
							"components": [
								{
									"internalType": "address",
									"name": "oferente",
									"type": "address"
								},
								{
									"internalType": "uint256",
									"name": "valorOferta",
									"type": "uint256"
								}
							],
							"internalType": "struct Subasta.Ofertas[]",
							"name": "",
							"type": "tuple[]"
						}
					],
					"stateMutability": "view",
					"type": "function"
				},
				{
					"stateMutability": "payable",
					"type": "receive"
				}
			],
			"devdoc": {
				"kind": "dev",
				"methods": {},
				"version": 1
			},
			"evm": {
				"assembly": "    /* \"subasta/subasta.sol\":70:7631  contract Subasta {... */\n  mstore(0x40, 0x80)\n    /* \"subasta/subasta.sol\":805:815  ofertaBase */\n  sload(0x01)\n    /* \"subasta/subasta.sol\":773:815  uint256 private ofertaMasAlta = ofertaBase */\n  0x06\n  sstore\n    /* \"subasta/subasta.sol\":1340:1728  constructor() {... */\n  callvalue\n  dup1\n  iszero\n  tag_1\n  jumpi\n  revert(0x00, 0x00)\ntag_1:\n  pop\n    /* \"subasta/subasta.sol\":1381:1386  false */\n  0x00\n    /* \"subasta/subasta.sol\":1364:1380  subastaTerminada */\n  0x00\n  0x00\n    /* \"subasta/subasta.sol\":1364:1386  subastaTerminada=false */\n  0x0100\n  exp\n  dup2\n  sload\n  dup2\n  0xff\n  mul\n  not\n  and\n  swap1\n  dup4\n  iszero\n  iszero\n  mul\n  or\n  swap1\n  sstore\n  pop\n    /* \"subasta/subasta.sol\":1418:1423  false */\n  0x00\n    /* \"subasta/subasta.sol\":1396:1417  habilitarDevoluciones */\n  0x00\n  0x01\n    /* \"subasta/subasta.sol\":1396:1423  habilitarDevoluciones=false */\n  0x0100\n  exp\n  dup2\n  sload\n  dup2\n  0xff\n  mul\n  not\n  and\n  swap1\n  dup4\n  iszero\n  iszero\n  mul\n  or\n  swap1\n  sstore\n  pop\n    /* \"subasta/subasta.sol\":1446:1447  1 */\n  0x01\n    /* \"subasta/subasta.sol\":1433:1443  ofertaBase */\n  dup1\n    /* \"subasta/subasta.sol\":1433:1447  ofertaBase = 1 */\n  dup2\n  swap1\n  sstore\n  pop\n    /* \"subasta/subasta.sol\":1531:1537  60 * 5 */\n  0x012c\n    /* \"subasta/subasta.sol\":1513:1528  block.timestamp */\n  timestamp\n    /* \"subasta/subasta.sol\":1513:1537  block.timestamp + 60 * 5 */\n  tag_4\n  swap2\n  swap1\n  tag_5\n  jump\t// in\ntag_4:\n    /* \"subasta/subasta.sol\":1489:1510  tiempoDuracionSubasta */\n  0x02\n    /* \"subasta/subasta.sol\":1489:1537  tiempoDuracionSubasta = block.timestamp + 60 * 5 */\n  dup2\n  swap1\n  sstore\n  pop\n    /* \"subasta/subasta.sol\":1578:1593  block.timestamp */\n  timestamp\n    /* \"subasta/subasta.sol\":1556:1575  tiempoInicioSubasta */\n  0x03\n    /* \"subasta/subasta.sol\":1556:1593  tiempoInicioSubasta = block.timestamp */\n  dup2\n  swap1\n  sstore\n  pop\n    /* \"subasta/subasta.sol\":1672:1682  msg.sender */\n  caller\n    /* \"subasta/subasta.sol\":1645:1661  direccionSubasta */\n  0x04\n  0x00\n    /* \"subasta/subasta.sol\":1645:1683  direccionSubasta = payable(msg.sender) */\n  0x0100\n  exp\n  dup2\n  sload\n  dup2\n  0xffffffffffffffffffffffffffffffffffffffff\n  mul\n  not\n  and\n  swap1\n  dup4\n  0xffffffffffffffffffffffffffffffffffffffff\n  and\n  mul\n  or\n  swap1\n  sstore\n  pop\n    /* \"subasta/subasta.sol\":70:7631  contract Subasta {... */\n  jump(tag_6)\n    /* \"#utility.yul\":7:84   */\ntag_7:\n    /* \"#utility.yul\":44:51   */\n  0x00\n    /* \"#utility.yul\":73:78   */\n  dup2\n    /* \"#utility.yul\":62:78   */\n  swap1\n  pop\n    /* \"#utility.yul\":7:84   */\n  swap2\n  swap1\n  pop\n  jump\t// out\n    /* \"#utility.yul\":90:270   */\ntag_8:\n    /* \"#utility.yul\":138:215   */\n  0x4e487b7100000000000000000000000000000000000000000000000000000000\n    /* \"#utility.yul\":135:136   */\n  0x00\n    /* \"#utility.yul\":128:216   */\n  mstore\n    /* \"#utility.yul\":235:239   */\n  0x11\n    /* \"#utility.yul\":232:233   */\n  0x04\n    /* \"#utility.yul\":225:240   */\n  mstore\n    /* \"#utility.yul\":259:263   */\n  0x24\n    /* \"#utility.yul\":256:257   */\n  0x00\n    /* \"#utility.yul\":249:264   */\n  revert\n    /* \"#utility.yul\":276:467   */\ntag_5:\n    /* \"#utility.yul\":316:319   */\n  0x00\n    /* \"#utility.yul\":335:355   */\n  tag_13\n    /* \"#utility.yul\":353:354   */\n  dup3\n    /* \"#utility.yul\":335:355   */\n  tag_7\n  jump\t// in\ntag_13:\n    /* \"#utility.yul\":330:355   */\n  swap2\n  pop\n    /* \"#utility.yul\":369:389   */\n  tag_14\n    /* \"#utility.yul\":387:388   */\n  dup4\n    /* \"#utility.yul\":369:389   */\n  tag_7\n  jump\t// in\ntag_14:\n    /* \"#utility.yul\":364:389   */\n  swap3\n  pop\n    /* \"#utility.yul\":412:413   */\n  dup3\n    /* \"#utility.yul\":409:410   */\n  dup3\n    /* \"#utility.yul\":405:414   */\n  add\n    /* \"#utility.yul\":398:414   */\n  swap1\n  pop\n    /* \"#utility.yul\":433:436   */\n  dup1\n    /* \"#utility.yul\":430:431   */\n  dup3\n    /* \"#utility.yul\":427:437   */\n  gt\n    /* \"#utility.yul\":424:460   */\n  iszero\n  tag_15\n  jumpi\n    /* \"#utility.yul\":440:458   */\n  tag_16\n  tag_8\n  jump\t// in\ntag_16:\n    /* \"#utility.yul\":424:460   */\ntag_15:\n    /* \"#utility.yul\":276:467   */\n  swap3\n  swap2\n  pop\n  pop\n  jump\t// out\n    /* \"subasta/subasta.sol\":70:7631  contract Subasta {... */\ntag_6:\n  dataSize(sub_0)\n  dup1\n  dataOffset(sub_0)\n  0x00\n  codecopy\n  0x00\n  return\nstop\n\nsub_0: assembly {\n        /* \"subasta/subasta.sol\":70:7631  contract Subasta {... */\n      mstore(0x40, 0x80)\n      jumpi(tag_1, lt(calldatasize, 0x04))\n      shr(0xe0, calldataload(0x00))\n      dup1\n      0xb456ef04\n      gt\n      tag_16\n      jumpi\n      dup1\n      0xc7962b57\n      gt\n      tag_17\n      jumpi\n      dup1\n      0xc7962b57\n      eq\n      tag_12\n      jumpi\n      dup1\n      0xe60216b8\n      eq\n      tag_13\n      jumpi\n      dup1\n      0xefebcd1f\n      eq\n      tag_14\n      jumpi\n      dup1\n      0xf5d2db26\n      eq\n      tag_15\n      jumpi\n      jump(tag_2)\n    tag_17:\n      dup1\n      0xb456ef04\n      eq\n      tag_9\n      jumpi\n      dup1\n      0xb53c107b\n      eq\n      tag_10\n      jumpi\n      dup1\n      0xb9c29937\n      eq\n      tag_11\n      jumpi\n      jump(tag_2)\n    tag_16:\n      dup1\n      0x0851eac2\n      eq\n      tag_3\n      jumpi\n      dup1\n      0x0b76c441\n      eq\n      tag_4\n      jumpi\n      dup1\n      0x21c6e2df\n      eq\n      tag_5\n      jumpi\n      dup1\n      0x27391994\n      eq\n      tag_6\n      jumpi\n      dup1\n      0x3c379642\n      eq\n      tag_7\n      jumpi\n      dup1\n      0x54c7d806\n      eq\n      tag_8\n      jumpi\n      jump(tag_2)\n    tag_1:\n    tag_2:\n      stop\n        /* \"subasta/subasta.sol\":4958:5126  function finalizarSubasta() ... */\n    tag_3:\n      callvalue\n      dup1\n      iszero\n      tag_22\n      jumpi\n      revert(0x00, 0x00)\n    tag_22:\n      pop\n      tag_23\n      tag_24\n      jump\t// in\n    tag_23:\n      stop\n        /* \"subasta/subasta.sol\":381:417  uint256 public tiempoDuracionSubasta */\n    tag_4:\n      callvalue\n      dup1\n      iszero\n      tag_25\n      jumpi\n      revert(0x00, 0x00)\n    tag_25:\n      pop\n      tag_26\n      tag_27\n      jump\t// in\n    tag_26:\n      mload(0x40)\n      tag_28\n      swap2\n      swap1\n      tag_29\n      jump\t// in\n    tag_28:\n      mload(0x40)\n      dup1\n      swap2\n      sub\n      swap1\n      return\n        /* \"subasta/subasta.sol\":350:375  uint256 public ofertaBase */\n    tag_5:\n      callvalue\n      dup1\n      iszero\n      tag_30\n      jumpi\n      revert(0x00, 0x00)\n    tag_30:\n      pop\n      tag_31\n      tag_32\n      jump\t// in\n    tag_31:\n      mload(0x40)\n      tag_33\n      swap2\n      swap1\n      tag_29\n      jump\t// in\n    tag_33:\n      mload(0x40)\n      dup1\n      swap2\n      sub\n      swap1\n      return\n        /* \"subasta/subasta.sol\":7523:7629  function verDepositoOferente() public view returns (uint256) {... */\n    tag_6:\n      callvalue\n      dup1\n      iszero\n      tag_34\n      jumpi\n      revert(0x00, 0x00)\n    tag_34:\n      pop\n      tag_35\n      tag_36\n      jump\t// in\n    tag_35:\n      mload(0x40)\n      tag_37\n      swap2\n      swap1\n      tag_29\n      jump\t// in\n    tag_37:\n      mload(0x40)\n      dup1\n      swap2\n      sub\n      swap1\n      return\n        /* \"subasta/subasta.sol\":6775:6883  function verTodasLasOfertas() external view returns(Ofertas[] memory ){... */\n    tag_7:\n      callvalue\n      dup1\n      iszero\n      tag_38\n      jumpi\n      revert(0x00, 0x00)\n    tag_38:\n      pop\n      tag_39\n      tag_40\n      jump\t// in\n    tag_39:\n      mload(0x40)\n      tag_41\n      swap2\n      swap1\n      tag_42\n      jump\t// in\n    tag_41:\n      mload(0x40)\n      dup1\n      swap2\n      sub\n      swap1\n      return\n        /* \"subasta/subasta.sol\":3551:4853  function OFERTAR() ... */\n    tag_8:\n      tag_43\n      tag_44\n      jump\t// in\n    tag_43:\n      stop\n        /* \"subasta/subasta.sol\":284:312  bool public subastaTerminada */\n    tag_9:\n      callvalue\n      dup1\n      iszero\n      tag_45\n      jumpi\n      revert(0x00, 0x00)\n    tag_45:\n      pop\n      tag_46\n      tag_47\n      jump\t// in\n    tag_46:\n      mload(0x40)\n      tag_48\n      swap2\n      swap1\n      tag_49\n      jump\t// in\n    tag_48:\n      mload(0x40)\n      dup1\n      swap2\n      sub\n      swap1\n      return\n        /* \"subasta/subasta.sol\":7177:7276  function verTimestampActual() public view returns (uint256) {... */\n    tag_10:\n      callvalue\n      dup1\n      iszero\n      tag_50\n      jumpi\n      revert(0x00, 0x00)\n    tag_50:\n      pop\n      tag_51\n      tag_52\n      jump\t// in\n    tag_51:\n      mload(0x40)\n      tag_53\n      swap2\n      swap1\n      tag_29\n      jump\t// in\n    tag_53:\n      mload(0x40)\n      dup1\n      swap2\n      sub\n      swap1\n      return\n        /* \"subasta/subasta.sol\":7282:7517  function verTiempoFaltante() public view returns (uint256) {... */\n    tag_11:\n      callvalue\n      dup1\n      iszero\n      tag_54\n      jumpi\n      revert(0x00, 0x00)\n    tag_54:\n      pop\n      tag_55\n      tag_56\n      jump\t// in\n    tag_55:\n      mload(0x40)\n      tag_57\n      swap2\n      swap1\n      tag_29\n      jump\t// in\n    tag_57:\n      mload(0x40)\n      dup1\n      swap2\n      sub\n      swap1\n      return\n        /* \"subasta/subasta.sol\":6897:7015  function verOfertasOferenteActual() public view returns (uint256[] memory) {... */\n    tag_12:\n      callvalue\n      dup1\n      iszero\n      tag_58\n      jumpi\n      revert(0x00, 0x00)\n    tag_58:\n      pop\n      tag_59\n      tag_60\n      jump\t// in\n    tag_59:\n      mload(0x40)\n      tag_61\n      swap2\n      swap1\n      tag_62\n      jump\t// in\n    tag_61:\n      mload(0x40)\n      dup1\n      swap2\n      sub\n      swap1\n      return\n        /* \"subasta/subasta.sol\":423:457  uint256 public tiempoInicioSubasta */\n    tag_13:\n      callvalue\n      dup1\n      iszero\n      tag_63\n      jumpi\n      revert(0x00, 0x00)\n    tag_63:\n      pop\n      tag_64\n      tag_65\n      jump\t// in\n    tag_64:\n      mload(0x40)\n      tag_66\n      swap2\n      swap1\n      tag_29\n      jump\t// in\n    tag_66:\n      mload(0x40)\n      dup1\n      swap2\n      sub\n      swap1\n      return\n        /* \"subasta/subasta.sol\":5219:5856  function retornarDeposito(address payable dir) ... */\n    tag_14:\n      tag_67\n      0x04\n      dup1\n      calldatasize\n      sub\n      dup2\n      add\n      swap1\n      tag_68\n      swap2\n      swap1\n      tag_69\n      jump\t// in\n    tag_68:\n      tag_70\n      jump\t// in\n    tag_67:\n      stop\n        /* \"subasta/subasta.sol\":6045:6741  function retornarDepositoParciales(address payable dir) ... */\n    tag_15:\n      tag_71\n      0x04\n      dup1\n      calldatasize\n      sub\n      dup2\n      add\n      swap1\n      tag_72\n      swap2\n      swap1\n      tag_69\n      jump\t// in\n    tag_72:\n      tag_73\n      jump\t// in\n    tag_71:\n      stop\n        /* \"subasta/subasta.sol\":4958:5126  function finalizarSubasta() ... */\n    tag_24:\n        /* \"subasta/subasta.sol\":2538:2554  direccionSubasta */\n      0x04\n      0x00\n      swap1\n      sload\n      swap1\n      0x0100\n      exp\n      swap1\n      div\n      0xffffffffffffffffffffffffffffffffffffffff\n      and\n        /* \"subasta/subasta.sol\":2524:2554  msg.sender == direccionSubasta */\n      0xffffffffffffffffffffffffffffffffffffffff\n      and\n        /* \"subasta/subasta.sol\":2524:2534  msg.sender */\n      caller\n        /* \"subasta/subasta.sol\":2524:2554  msg.sender == direccionSubasta */\n      0xffffffffffffffffffffffffffffffffffffffff\n      and\n      eq\n        /* \"subasta/subasta.sol\":2516:2589  require(msg.sender == direccionSubasta,\"no es Owner. Acceso restringido\") */\n      tag_75\n      jumpi\n      mload(0x40)\n      0x08c379a000000000000000000000000000000000000000000000000000000000\n      dup2\n      mstore\n      0x04\n      add\n      tag_76\n      swap1\n      tag_77\n      jump\t// in\n    tag_76:\n      mload(0x40)\n      dup1\n      swap2\n      sub\n      swap1\n      revert\n    tag_75:\n        /* \"subasta/subasta.sol\":5071:5075  true */\n      0x01\n        /* \"subasta/subasta.sol\":5054:5070  subastaTerminada */\n      0x00\n      0x00\n        /* \"subasta/subasta.sol\":5054:5075  subastaTerminada=true */\n      0x0100\n      exp\n      dup2\n      sload\n      dup2\n      0xff\n      mul\n      not\n      and\n      swap1\n      dup4\n      iszero\n      iszero\n      mul\n      or\n      swap1\n      sstore\n      pop\n        /* \"subasta/subasta.sol\":5106:5110  true */\n      0x01\n        /* \"subasta/subasta.sol\":5084:5105  habilitarDevoluciones */\n      0x00\n      0x01\n        /* \"subasta/subasta.sol\":5084:5110  habilitarDevoluciones=true */\n      0x0100\n      exp\n      dup2\n      sload\n      dup2\n      0xff\n      mul\n      not\n      and\n      swap1\n      dup4\n      iszero\n      iszero\n      mul\n      or\n      swap1\n      sstore\n      pop\n        /* \"subasta/subasta.sol\":4958:5126  function finalizarSubasta() ... */\n      jump\t// out\n        /* \"subasta/subasta.sol\":381:417  uint256 public tiempoDuracionSubasta */\n    tag_27:\n      sload(0x02)\n      dup2\n      jump\t// out\n        /* \"subasta/subasta.sol\":350:375  uint256 public ofertaBase */\n    tag_32:\n      sload(0x01)\n      dup2\n      jump\t// out\n        /* \"subasta/subasta.sol\":7523:7629  function verDepositoOferente() public view returns (uint256) {... */\n    tag_36:\n        /* \"subasta/subasta.sol\":7575:7582  uint256 */\n      0x00\n        /* \"subasta/subasta.sol\":7601:7610  depositos */\n      0x05\n        /* \"subasta/subasta.sol\":7601:7622  depositos[msg.sender] */\n      0x00\n        /* \"subasta/subasta.sol\":7611:7621  msg.sender */\n      caller\n        /* \"subasta/subasta.sol\":7601:7622  depositos[msg.sender] */\n      0xffffffffffffffffffffffffffffffffffffffff\n      and\n      0xffffffffffffffffffffffffffffffffffffffff\n      and\n      dup2\n      mstore\n      0x20\n      add\n      swap1\n      dup2\n      mstore\n      0x20\n      add\n      0x00\n      keccak256\n      sload\n        /* \"subasta/subasta.sol\":7594:7622  return depositos[msg.sender] */\n      swap1\n      pop\n        /* \"subasta/subasta.sol\":7523:7629  function verDepositoOferente() public view returns (uint256) {... */\n      swap1\n      jump\t// out\n        /* \"subasta/subasta.sol\":6775:6883  function verTodasLasOfertas() external view returns(Ofertas[] memory ){... */\n    tag_40:\n        /* \"subasta/subasta.sol\":6827:6843  Ofertas[] memory */\n      0x60\n        /* \"subasta/subasta.sol\":6862:6876  matriz_ofertas */\n      0x0b\n        /* \"subasta/subasta.sol\":6855:6876  return matriz_ofertas */\n      dup1\n      sload\n      dup1\n      0x20\n      mul\n      0x20\n      add\n      mload(0x40)\n      swap1\n      dup2\n      add\n      0x40\n      mstore\n      dup1\n      swap3\n      swap2\n      swap1\n      dup2\n      dup2\n      mstore\n      0x20\n      add\n      0x00\n      swap1\n    tag_81:\n      dup3\n      dup3\n      lt\n      iszero\n      tag_82\n      jumpi\n      dup4\n      dup3\n      swap1\n      0x00\n      mstore\n      keccak256(0x00, 0x20)\n      swap1\n      0x02\n      mul\n      add\n      mload(0x40)\n      dup1\n      0x40\n      add\n      0x40\n      mstore\n      swap1\n      dup2\n      0x00\n      dup3\n      add\n      0x00\n      swap1\n      sload\n      swap1\n      0x0100\n      exp\n      swap1\n      div\n      0xffffffffffffffffffffffffffffffffffffffff\n      and\n      0xffffffffffffffffffffffffffffffffffffffff\n      and\n      0xffffffffffffffffffffffffffffffffffffffff\n      and\n      dup2\n      mstore\n      0x20\n      add\n      0x01\n      dup3\n      add\n      sload\n      dup2\n      mstore\n      pop\n      pop\n      dup2\n      mstore\n      0x20\n      add\n      swap1\n      0x01\n      add\n      swap1\n      jump(tag_81)\n    tag_82:\n      pop\n      pop\n      pop\n      pop\n      swap1\n      pop\n        /* \"subasta/subasta.sol\":6775:6883  function verTodasLasOfertas() external view returns(Ofertas[] memory ){... */\n      swap1\n      jump\t// out\n        /* \"subasta/subasta.sol\":3551:4853  function OFERTAR() ... */\n    tag_44:\n        /* \"subasta/subasta.sol\":3624:3633  msg.value */\n      callvalue\n        /* \"subasta/subasta.sol\":2383:2386  100 */\n      0x64\n        /* \"subasta/subasta.sol\":2376:2379  105 */\n      0x69\n        /* \"subasta/subasta.sol\":2360:2373  ofertaMasAlta */\n      sload(0x06)\n        /* \"subasta/subasta.sol\":2360:2379  ofertaMasAlta * 105 */\n      tag_85\n      swap2\n      swap1\n      tag_86\n      jump\t// in\n    tag_85:\n        /* \"subasta/subasta.sol\":2359:2386  (ofertaMasAlta * 105) / 100 */\n      tag_87\n      swap2\n      swap1\n      tag_88\n      jump\t// in\n    tag_87:\n        /* \"subasta/subasta.sol\":2351:2356  valor */\n      dup2\n        /* \"subasta/subasta.sol\":2351:2386  valor > (ofertaMasAlta * 105) / 100 */\n      gt\n        /* \"subasta/subasta.sol\":2343:2430  require(valor > (ofertaMasAlta * 105) / 100,\"la oferta no supera por 5% a la mas alta\") */\n      tag_89\n      jumpi\n      mload(0x40)\n      0x08c379a000000000000000000000000000000000000000000000000000000000\n      dup2\n      mstore\n      0x04\n      add\n      tag_90\n      swap1\n      tag_91\n      jump\t// in\n    tag_90:\n      mload(0x40)\n      dup1\n      swap2\n      sub\n      swap1\n      revert\n    tag_89:\n        /* \"subasta/subasta.sol\":2688:2704  direccionSubasta */\n      0x04\n      0x00\n      swap1\n      sload\n      swap1\n      0x0100\n      exp\n      swap1\n      div\n      0xffffffffffffffffffffffffffffffffffffffff\n      and\n        /* \"subasta/subasta.sol\":2674:2704  msg.sender != direccionSubasta */\n      0xffffffffffffffffffffffffffffffffffffffff\n      and\n        /* \"subasta/subasta.sol\":2674:2684  msg.sender */\n      caller\n        /* \"subasta/subasta.sol\":2674:2704  msg.sender != direccionSubasta */\n      0xffffffffffffffffffffffffffffffffffffffff\n      and\n      sub\n        /* \"subasta/subasta.sol\":2666:2734  require(msg.sender != direccionSubasta,\"es Owner. No puede ofertar\") */\n      tag_93\n      jumpi\n      mload(0x40)\n      0x08c379a000000000000000000000000000000000000000000000000000000000\n      dup2\n      mstore\n      0x04\n      add\n      tag_94\n      swap1\n      tag_95\n      jump\t// in\n    tag_94:\n      mload(0x40)\n      dup1\n      swap2\n      sub\n      swap1\n      revert\n    tag_93:\n        /* \"subasta/subasta.sol\":3073:3078  false */\n      0x00\n        /* \"subasta/subasta.sol\":3055:3078  subastaTerminada==false */\n      iszero\n      iszero\n        /* \"subasta/subasta.sol\":3055:3071  subastaTerminada */\n      0x00\n      0x00\n      swap1\n      sload\n      swap1\n      0x0100\n      exp\n      swap1\n      div\n      0xff\n      and\n        /* \"subasta/subasta.sol\":3055:3078  subastaTerminada==false */\n      iszero\n      iszero\n      eq\n        /* \"subasta/subasta.sol\":3047:3100  require(subastaTerminada==false,\"subasta finalizada\") */\n      tag_97\n      jumpi\n      mload(0x40)\n      0x08c379a000000000000000000000000000000000000000000000000000000000\n      dup2\n      mstore\n      0x04\n      add\n      tag_98\n      swap1\n      tag_99\n      jump\t// in\n    tag_98:\n      mload(0x40)\n      dup1\n      swap2\n      sub\n      swap1\n      revert\n    tag_97:\n        /* \"subasta/subasta.sol\":3773:3794  tiempoDuracionSubasta */\n      sload(0x02)\n        /* \"subasta/subasta.sol\":3754:3769  block.timestamp */\n      timestamp\n        /* \"subasta/subasta.sol\":3754:3794  block.timestamp >= tiempoDuracionSubasta */\n      lt\n        /* \"subasta/subasta.sol\":3750:3957  if (block.timestamp >= tiempoDuracionSubasta) {... */\n      tag_101\n      jumpi\n        /* \"subasta/subasta.sol\":3815:3865  SubastaFinalizada(ganadorDireccion, ofertaMasAlta) */\n      0xa3a65b403bdae88eb037f4ecc1d619f436fc3ef6bcbbee3787757164e82883f2\n        /* \"subasta/subasta.sol\":3833:3849  ganadorDireccion */\n      0x07\n      0x00\n      swap1\n      sload\n      swap1\n      0x0100\n      exp\n      swap1\n      div\n      0xffffffffffffffffffffffffffffffffffffffff\n      and\n        /* \"subasta/subasta.sol\":3851:3864  ofertaMasAlta */\n      sload(0x06)\n        /* \"subasta/subasta.sol\":3815:3865  SubastaFinalizada(ganadorDireccion, ofertaMasAlta) */\n      mload(0x40)\n      tag_102\n      swap3\n      swap2\n      swap1\n      tag_103\n      jump\t// in\n    tag_102:\n      mload(0x40)\n      dup1\n      swap2\n      sub\n      swap1\n      log1\n        /* \"subasta/subasta.sol\":3896:3900  true */\n      0x01\n        /* \"subasta/subasta.sol\":3879:3895  subastaTerminada */\n      0x00\n      0x00\n        /* \"subasta/subasta.sol\":3879:3900  subastaTerminada=true */\n      0x0100\n      exp\n      dup2\n      sload\n      dup2\n      0xff\n      mul\n      not\n      and\n      swap1\n      dup4\n      iszero\n      iszero\n      mul\n      or\n      swap1\n      sstore\n      pop\n        /* \"subasta/subasta.sol\":3914:3921  return; */\n      jump(tag_100)\n        /* \"subasta/subasta.sol\":3750:3957  if (block.timestamp >= tiempoDuracionSubasta) {... */\n    tag_101:\n        /* \"subasta/subasta.sol\":3968:3977  bool sent */\n      0x00\n        /* \"subasta/subasta.sol\":3982:3998  direccionSubasta */\n      0x04\n      0x00\n      swap1\n      sload\n      swap1\n      0x0100\n      exp\n      swap1\n      div\n      0xffffffffffffffffffffffffffffffffffffffff\n      and\n        /* \"subasta/subasta.sol\":3982:4003  direccionSubasta.call */\n      0xffffffffffffffffffffffffffffffffffffffff\n      and\n        /* \"subasta/subasta.sol\":4011:4020  msg.value */\n      callvalue\n        /* \"subasta/subasta.sol\":3982:4025  direccionSubasta.call{value: msg.value}(\"\") */\n      mload(0x40)\n      tag_104\n      swap1\n      tag_105\n      jump\t// in\n    tag_104:\n      0x00\n      mload(0x40)\n      dup1\n      dup4\n      sub\n      dup2\n      dup6\n      dup8\n      gas\n      call\n      swap3\n      pop\n      pop\n      pop\n      returndatasize\n      dup1\n      0x00\n      dup2\n      eq\n      tag_108\n      jumpi\n      mload(0x40)\n      swap2\n      pop\n      and(add(returndatasize, 0x3f), not(0x1f))\n      dup3\n      add\n      0x40\n      mstore\n      returndatasize\n      dup3\n      mstore\n      returndatasize\n      0x00\n      0x20\n      dup5\n      add\n      returndatacopy\n      jump(tag_107)\n    tag_108:\n      0x60\n      swap2\n      pop\n    tag_107:\n      pop\n        /* \"subasta/subasta.sol\":3967:4025  (bool sent,) = direccionSubasta.call{value: msg.value}(\"\") */\n      pop\n      swap1\n      pop\n        /* \"subasta/subasta.sol\":4043:4047  sent */\n      dup1\n        /* \"subasta/subasta.sol\":4035:4075  require(sent, \"falla en la transaccion\") */\n      tag_109\n      jumpi\n      mload(0x40)\n      0x08c379a000000000000000000000000000000000000000000000000000000000\n      dup2\n      mstore\n      0x04\n      add\n      tag_110\n      swap1\n      tag_111\n      jump\t// in\n    tag_110:\n      mload(0x40)\n      dup1\n      swap2\n      sub\n      swap1\n      revert\n    tag_109:\n        /* \"subasta/subasta.sol\":4086:4119  setOferente(msg.sender,msg.value) */\n      tag_112\n        /* \"subasta/subasta.sol\":4098:4108  msg.sender */\n      caller\n        /* \"subasta/subasta.sol\":4109:4118  msg.value */\n      callvalue\n        /* \"subasta/subasta.sol\":4086:4097  setOferente */\n      tag_113\n        /* \"subasta/subasta.sol\":4086:4119  setOferente(msg.sender,msg.value) */\n      jump\t// in\n    tag_112:\n        /* \"subasta/subasta.sol\":4130:4137  ofertas */\n      0x08\n        /* \"subasta/subasta.sol\":4130:4149  ofertas[msg.sender] */\n      0x00\n        /* \"subasta/subasta.sol\":4138:4148  msg.sender */\n      caller\n        /* \"subasta/subasta.sol\":4130:4149  ofertas[msg.sender] */\n      0xffffffffffffffffffffffffffffffffffffffff\n      and\n      0xffffffffffffffffffffffffffffffffffffffff\n      and\n      dup2\n      mstore\n      0x20\n      add\n      swap1\n      dup2\n      mstore\n      0x20\n      add\n      0x00\n      keccak256\n        /* \"subasta/subasta.sol\":4155:4164  msg.value */\n      callvalue\n        /* \"subasta/subasta.sol\":4130:4165  ofertas[msg.sender].push(msg.value) */\n      swap1\n      dup1\n      0x01\n      dup2\n      sload\n      add\n      dup1\n      dup3\n      sstore\n      dup1\n      swap2\n      pop\n      pop\n      0x01\n      swap1\n      sub\n      swap1\n      0x00\n      mstore\n      keccak256(0x00, 0x20)\n      add\n      0x00\n      swap1\n      swap2\n      swap1\n      swap2\n      swap1\n      swap2\n      pop\n      sstore\n        /* \"subasta/subasta.sol\":4226:4235  msg.value */\n      callvalue\n        /* \"subasta/subasta.sol\":4202:4211  depositos */\n      0x05\n        /* \"subasta/subasta.sol\":4202:4223  depositos[msg.sender] */\n      0x00\n        /* \"subasta/subasta.sol\":4212:4222  msg.sender */\n      caller\n        /* \"subasta/subasta.sol\":4202:4223  depositos[msg.sender] */\n      0xffffffffffffffffffffffffffffffffffffffff\n      and\n      0xffffffffffffffffffffffffffffffffffffffff\n      and\n      dup2\n      mstore\n      0x20\n      add\n      swap1\n      dup2\n      mstore\n      0x20\n      add\n      0x00\n      keccak256\n      0x00\n        /* \"subasta/subasta.sol\":4202:4235  depositos[msg.sender] +=msg.value */\n      dup3\n      dup3\n      sload\n      tag_115\n      swap2\n      swap1\n      tag_116\n      jump\t// in\n    tag_115:\n      swap3\n      pop\n      pop\n      dup2\n      swap1\n      sstore\n      pop\n        /* \"subasta/subasta.sol\":4306:4315  msg.value */\n      callvalue\n        /* \"subasta/subasta.sol\":4290:4303  ofertaMasAlta */\n      0x06\n        /* \"subasta/subasta.sol\":4290:4315  ofertaMasAlta = msg.value */\n      dup2\n      swap1\n      sstore\n      pop\n        /* \"subasta/subasta.sol\":4394:4404  msg.sender */\n      caller\n        /* \"subasta/subasta.sol\":4375:4391  ganadorDireccion */\n      0x07\n      0x00\n        /* \"subasta/subasta.sol\":4375:4404  ganadorDireccion = msg.sender */\n      0x0100\n      exp\n      dup2\n      sload\n      dup2\n      0xffffffffffffffffffffffffffffffffffffffff\n      mul\n      not\n      and\n      swap1\n      dup4\n      0xffffffffffffffffffffffffffffffffffffffff\n      and\n      mul\n      or\n      swap1\n      sstore\n      pop\n        /* \"subasta/subasta.sol\":4806:4816  msg.sender */\n      caller\n        /* \"subasta/subasta.sol\":4783:4817  NuevaOferta(msg.value, msg.sender) */\n      0xffffffffffffffffffffffffffffffffffffffff\n      and\n      0xedfd1bd0e927fad8ba6298334c473be61786deb0525a05924556caad8555c4e0\n        /* \"subasta/subasta.sol\":4795:4804  msg.value */\n      callvalue\n        /* \"subasta/subasta.sol\":4783:4817  NuevaOferta(msg.value, msg.sender) */\n      mload(0x40)\n      tag_117\n      swap2\n      swap1\n      tag_29\n      jump\t// in\n    tag_117:\n      mload(0x40)\n      dup1\n      swap2\n      sub\n      swap1\n      log2\n        /* \"subasta/subasta.sol\":3683:4853  {... */\n      pop\n        /* \"subasta/subasta.sol\":3110:3111  _ */\n    tag_100:\n        /* \"subasta/subasta.sol\":3551:4853  function OFERTAR() ... */\n      pop\n      jump\t// out\n        /* \"subasta/subasta.sol\":284:312  bool public subastaTerminada */\n    tag_47:\n      0x00\n      0x00\n      swap1\n      sload\n      swap1\n      0x0100\n      exp\n      swap1\n      div\n      0xff\n      and\n      dup2\n      jump\t// out\n        /* \"subasta/subasta.sol\":7177:7276  function verTimestampActual() public view returns (uint256) {... */\n    tag_52:\n        /* \"subasta/subasta.sol\":7228:7235  uint256 */\n      0x00\n        /* \"subasta/subasta.sol\":7254:7269  block.timestamp */\n      timestamp\n        /* \"subasta/subasta.sol\":7247:7269  return block.timestamp */\n      swap1\n      pop\n        /* \"subasta/subasta.sol\":7177:7276  function verTimestampActual() public view returns (uint256) {... */\n      swap1\n      jump\t// out\n        /* \"subasta/subasta.sol\":7282:7517  function verTiempoFaltante() public view returns (uint256) {... */\n    tag_56:\n        /* \"subasta/subasta.sol\":7332:7339  uint256 */\n      0x00\n        /* \"subasta/subasta.sol\":7398:7399  0 */\n      0x00\n        /* \"subasta/subasta.sol\":7379:7394  block.timestamp */\n      timestamp\n        /* \"subasta/subasta.sol\":7355:7376  tiempoDuracionSubasta */\n      sload(0x02)\n        /* \"subasta/subasta.sol\":7355:7394  tiempoDuracionSubasta - block.timestamp */\n      tag_120\n      swap2\n      swap1\n      tag_121\n      jump\t// in\n    tag_120:\n        /* \"subasta/subasta.sol\":7355:7399  tiempoDuracionSubasta - block.timestamp >= 0 */\n      lt\n        /* \"subasta/subasta.sol\":7351:7511  if (tiempoDuracionSubasta - block.timestamp >= 0) {... */\n      tag_122\n      jumpi\n        /* \"subasta/subasta.sol\":7446:7461  block.timestamp */\n      timestamp\n        /* \"subasta/subasta.sol\":7422:7443  tiempoDuracionSubasta */\n      sload(0x02)\n        /* \"subasta/subasta.sol\":7422:7461  tiempoDuracionSubasta - block.timestamp */\n      tag_123\n      swap2\n      swap1\n      tag_121\n      jump\t// in\n    tag_123:\n        /* \"subasta/subasta.sol\":7415:7461  return tiempoDuracionSubasta - block.timestamp */\n      swap1\n      pop\n      jump(tag_119)\n        /* \"subasta/subasta.sol\":7351:7511  if (tiempoDuracionSubasta - block.timestamp >= 0) {... */\n    tag_122:\n        /* \"subasta/subasta.sol\":7499:7500  0 */\n      0x00\n        /* \"subasta/subasta.sol\":7492:7500  return 0 */\n      swap1\n      pop\n        /* \"subasta/subasta.sol\":7282:7517  function verTiempoFaltante() public view returns (uint256) {... */\n    tag_119:\n      swap1\n      jump\t// out\n        /* \"subasta/subasta.sol\":6897:7015  function verOfertasOferenteActual() public view returns (uint256[] memory) {... */\n    tag_60:\n        /* \"subasta/subasta.sol\":6954:6970  uint256[] memory */\n      0x60\n        /* \"subasta/subasta.sol\":6989:6996  ofertas */\n      0x08\n        /* \"subasta/subasta.sol\":6989:7008  ofertas[msg.sender] */\n      0x00\n        /* \"subasta/subasta.sol\":6997:7007  msg.sender */\n      caller\n        /* \"subasta/subasta.sol\":6989:7008  ofertas[msg.sender] */\n      0xffffffffffffffffffffffffffffffffffffffff\n      and\n      0xffffffffffffffffffffffffffffffffffffffff\n      and\n      dup2\n      mstore\n      0x20\n      add\n      swap1\n      dup2\n      mstore\n      0x20\n      add\n      0x00\n      keccak256\n        /* \"subasta/subasta.sol\":6982:7008  return ofertas[msg.sender] */\n      dup1\n      sload\n      dup1\n      0x20\n      mul\n      0x20\n      add\n      mload(0x40)\n      swap1\n      dup2\n      add\n      0x40\n      mstore\n      dup1\n      swap3\n      swap2\n      swap1\n      dup2\n      dup2\n      mstore\n      0x20\n      add\n      dup3\n      dup1\n      sload\n      dup1\n      iszero\n      tag_126\n      jumpi\n      0x20\n      mul\n      dup3\n      add\n      swap2\n      swap1\n      0x00\n      mstore\n      keccak256(0x00, 0x20)\n      swap1\n    tag_127:\n      dup2\n      sload\n      dup2\n      mstore\n      0x20\n      add\n      swap1\n      0x01\n      add\n      swap1\n      dup1\n      dup4\n      gt\n      tag_127\n      jumpi\n    tag_126:\n      pop\n      pop\n      pop\n      pop\n      pop\n      swap1\n      pop\n        /* \"subasta/subasta.sol\":6897:7015  function verOfertasOferenteActual() public view returns (uint256[] memory) {... */\n      swap1\n      jump\t// out\n        /* \"subasta/subasta.sol\":423:457  uint256 public tiempoInicioSubasta */\n    tag_65:\n      sload(0x03)\n      dup2\n      jump\t// out\n        /* \"subasta/subasta.sol\":5219:5856  function retornarDeposito(address payable dir) ... */\n    tag_70:\n        /* \"subasta/subasta.sol\":3253:3257  true */\n      0x01\n        /* \"subasta/subasta.sol\":3230:3257  habilitarDevoluciones==true */\n      iszero\n      iszero\n        /* \"subasta/subasta.sol\":3230:3251  habilitarDevoluciones */\n      0x00\n      0x01\n      swap1\n      sload\n      swap1\n      0x0100\n      exp\n      swap1\n      div\n      0xff\n      and\n        /* \"subasta/subasta.sol\":3230:3257  habilitarDevoluciones==true */\n      iszero\n      iszero\n      eq\n        /* \"subasta/subasta.sol\":3222:3282  require(habilitarDevoluciones==true,\"devoluciones cerradas\") */\n      tag_129\n      jumpi\n      mload(0x40)\n      0x08c379a000000000000000000000000000000000000000000000000000000000\n      dup2\n      mstore\n      0x04\n      add\n      tag_130\n      swap1\n      tag_131\n      jump\t// in\n    tag_130:\n      mload(0x40)\n      dup1\n      swap2\n      sub\n      swap1\n      revert\n    tag_129:\n        /* \"subasta/subasta.sol\":2538:2554  direccionSubasta */\n      0x04\n      0x00\n      swap1\n      sload\n      swap1\n      0x0100\n      exp\n      swap1\n      div\n      0xffffffffffffffffffffffffffffffffffffffff\n      and\n        /* \"subasta/subasta.sol\":2524:2554  msg.sender == direccionSubasta */\n      0xffffffffffffffffffffffffffffffffffffffff\n      and\n        /* \"subasta/subasta.sol\":2524:2534  msg.sender */\n      caller\n        /* \"subasta/subasta.sol\":2524:2554  msg.sender == direccionSubasta */\n      0xffffffffffffffffffffffffffffffffffffffff\n      and\n      eq\n        /* \"subasta/subasta.sol\":2516:2589  require(msg.sender == direccionSubasta,\"no es Owner. Acceso restringido\") */\n      tag_133\n      jumpi\n      mload(0x40)\n      0x08c379a000000000000000000000000000000000000000000000000000000000\n      dup2\n      mstore\n      0x04\n      add\n      tag_134\n      swap1\n      tag_77\n      jump\t// in\n    tag_134:\n      mload(0x40)\n      dup1\n      swap2\n      sub\n      swap1\n      revert\n    tag_133:\n        /* \"subasta/subasta.sol\":5426:5435  depositos */\n      0x05\n        /* \"subasta/subasta.sol\":5426:5440  depositos[dir] */\n      0x00\n        /* \"subasta/subasta.sol\":5436:5439  dir */\n      dup3\n        /* \"subasta/subasta.sol\":5426:5440  depositos[dir] */\n      0xffffffffffffffffffffffffffffffffffffffff\n      and\n      0xffffffffffffffffffffffffffffffffffffffff\n      and\n      dup2\n      mstore\n      0x20\n      add\n      swap1\n      dup2\n      mstore\n      0x20\n      add\n      0x00\n      keccak256\n      sload\n        /* \"subasta/subasta.sol\":5415:5424  msg.value */\n      callvalue\n        /* \"subasta/subasta.sol\":5415:5440  msg.value<=depositos[dir] */\n      gt\n      iszero\n        /* \"subasta/subasta.sol\":5407:5484  require(msg.value<=depositos[dir],\"no tiene suficientes fondos para retirar\") */\n      tag_136\n      jumpi\n      mload(0x40)\n      0x08c379a000000000000000000000000000000000000000000000000000000000\n      dup2\n      mstore\n      0x04\n      add\n      tag_137\n      swap1\n      tag_138\n      jump\t// in\n    tag_137:\n      mload(0x40)\n      dup1\n      swap2\n      sub\n      swap1\n      revert\n    tag_136:\n        /* \"subasta/subasta.sol\":5517:5518  0 */\n      0x00\n        /* \"subasta/subasta.sol\":5502:5511  depositos */\n      0x05\n        /* \"subasta/subasta.sol\":5502:5516  depositos[dir] */\n      0x00\n        /* \"subasta/subasta.sol\":5512:5515  dir */\n      dup4\n        /* \"subasta/subasta.sol\":5502:5516  depositos[dir] */\n      0xffffffffffffffffffffffffffffffffffffffff\n      and\n      0xffffffffffffffffffffffffffffffffffffffff\n      and\n      dup2\n      mstore\n      0x20\n      add\n      swap1\n      dup2\n      mstore\n      0x20\n      add\n      0x00\n      keccak256\n      sload\n        /* \"subasta/subasta.sol\":5502:5518  depositos[dir]>0 */\n      gt\n        /* \"subasta/subasta.sol\":5494:5537  require(depositos[dir]>0,\"no tiene fondos\") */\n      tag_139\n      jumpi\n      mload(0x40)\n      0x08c379a000000000000000000000000000000000000000000000000000000000\n      dup2\n      mstore\n      0x04\n      add\n      tag_140\n      swap1\n      tag_141\n      jump\t// in\n    tag_140:\n      mload(0x40)\n      dup1\n      swap2\n      sub\n      swap1\n      revert\n    tag_139:\n        /* \"subasta/subasta.sol\":5557:5566  bool sent */\n      0x00\n        /* \"subasta/subasta.sol\":5571:5574  dir */\n      dup2\n        /* \"subasta/subasta.sol\":5571:5579  dir.call */\n      0xffffffffffffffffffffffffffffffffffffffff\n      and\n        /* \"subasta/subasta.sol\":5602:5605  100 */\n      0x64\n        /* \"subasta/subasta.sol\":5598:5600  98 */\n      0x62\n        /* \"subasta/subasta.sol\":5588:5597  msg.value */\n      callvalue\n        /* \"subasta/subasta.sol\":5588:5600  msg.value*98 */\n      tag_142\n      swap2\n      swap1\n      tag_86\n      jump\t// in\n    tag_142:\n        /* \"subasta/subasta.sol\":5587:5605  (msg.value*98)/100 */\n      tag_143\n      swap2\n      swap1\n      tag_88\n      jump\t// in\n    tag_143:\n        /* \"subasta/subasta.sol\":5571:5610  dir.call{value: (msg.value*98)/100}(\"\") */\n      mload(0x40)\n      tag_144\n      swap1\n      tag_105\n      jump\t// in\n    tag_144:\n      0x00\n      mload(0x40)\n      dup1\n      dup4\n      sub\n      dup2\n      dup6\n      dup8\n      gas\n      call\n      swap3\n      pop\n      pop\n      pop\n      returndatasize\n      dup1\n      0x00\n      dup2\n      eq\n      tag_147\n      jumpi\n      mload(0x40)\n      swap2\n      pop\n      and(add(returndatasize, 0x3f), not(0x1f))\n      dup3\n      add\n      0x40\n      mstore\n      returndatasize\n      dup3\n      mstore\n      returndatasize\n      0x00\n      0x20\n      dup5\n      add\n      returndatacopy\n      jump(tag_146)\n    tag_147:\n      0x60\n      swap2\n      pop\n    tag_146:\n      pop\n        /* \"subasta/subasta.sol\":5556:5610  (bool sent,) = dir.call{value: (msg.value*98)/100}(\"\") */\n      pop\n      swap1\n      pop\n        /* \"subasta/subasta.sol\":5677:5681  sent */\n      dup1\n        /* \"subasta/subasta.sol\":5669:5709  require(sent, \"falla en la transaccion\") */\n      tag_148\n      jumpi\n      mload(0x40)\n      0x08c379a000000000000000000000000000000000000000000000000000000000\n      dup2\n      mstore\n      0x04\n      add\n      tag_149\n      swap1\n      tag_111\n      jump\t// in\n    tag_149:\n      mload(0x40)\n      dup1\n      swap2\n      sub\n      swap1\n      revert\n    tag_148:\n        /* \"subasta/subasta.sol\":5737:5746  msg.value */\n      callvalue\n        /* \"subasta/subasta.sol\":5719:5728  depositos */\n      0x05\n        /* \"subasta/subasta.sol\":5719:5733  depositos[dir] */\n      0x00\n        /* \"subasta/subasta.sol\":5729:5732  dir */\n      dup5\n        /* \"subasta/subasta.sol\":5719:5733  depositos[dir] */\n      0xffffffffffffffffffffffffffffffffffffffff\n      and\n      0xffffffffffffffffffffffffffffffffffffffff\n      and\n      dup2\n      mstore\n      0x20\n      add\n      swap1\n      dup2\n      mstore\n      0x20\n      add\n      0x00\n      keccak256\n      0x00\n        /* \"subasta/subasta.sol\":5719:5746  depositos[dir] -= msg.value */\n      dup3\n      dup3\n      sload\n      tag_150\n      swap2\n      swap1\n      tag_121\n      jump\t// in\n    tag_150:\n      swap3\n      pop\n      pop\n      dup2\n      swap1\n      sstore\n      pop\n        /* \"subasta/subasta.sol\":5397:5856  {... */\n      pop\n        /* \"subasta/subasta.sol\":5219:5856  function retornarDeposito(address payable dir) ... */\n      pop\n      jump\t// out\n        /* \"subasta/subasta.sol\":6045:6741  function retornarDepositoParciales(address payable dir) ... */\n    tag_73:\n        /* \"subasta/subasta.sol\":2538:2554  direccionSubasta */\n      0x04\n      0x00\n      swap1\n      sload\n      swap1\n      0x0100\n      exp\n      swap1\n      div\n      0xffffffffffffffffffffffffffffffffffffffff\n      and\n        /* \"subasta/subasta.sol\":2524:2554  msg.sender == direccionSubasta */\n      0xffffffffffffffffffffffffffffffffffffffff\n      and\n        /* \"subasta/subasta.sol\":2524:2534  msg.sender */\n      caller\n        /* \"subasta/subasta.sol\":2524:2554  msg.sender == direccionSubasta */\n      0xffffffffffffffffffffffffffffffffffffffff\n      and\n      eq\n        /* \"subasta/subasta.sol\":2516:2589  require(msg.sender == direccionSubasta,\"no es Owner. Acceso restringido\") */\n      tag_152\n      jumpi\n      mload(0x40)\n      0x08c379a000000000000000000000000000000000000000000000000000000000\n      dup2\n      mstore\n      0x04\n      add\n      tag_153\n      swap1\n      tag_77\n      jump\t// in\n    tag_153:\n      mload(0x40)\n      dup1\n      swap2\n      sub\n      swap1\n      revert\n    tag_152:\n        /* \"subasta/subasta.sol\":6179:6188  depositos */\n      0x05\n        /* \"subasta/subasta.sol\":6179:6193  depositos[dir] */\n      0x00\n        /* \"subasta/subasta.sol\":6189:6192  dir */\n      dup3\n        /* \"subasta/subasta.sol\":6179:6193  depositos[dir] */\n      0xffffffffffffffffffffffffffffffffffffffff\n      and\n      0xffffffffffffffffffffffffffffffffffffffff\n      and\n      dup2\n      mstore\n      0x20\n      add\n      swap1\n      dup2\n      mstore\n      0x20\n      add\n      0x00\n      keccak256\n      sload\n        /* \"subasta/subasta.sol\":6168:6177  msg.value */\n      callvalue\n        /* \"subasta/subasta.sol\":6168:6193  msg.value<=depositos[dir] */\n      gt\n      iszero\n        /* \"subasta/subasta.sol\":6160:6237  require(msg.value<=depositos[dir],\"no tiene suficientes fondos para retirar\") */\n      tag_155\n      jumpi\n      mload(0x40)\n      0x08c379a000000000000000000000000000000000000000000000000000000000\n      dup2\n      mstore\n      0x04\n      add\n      tag_156\n      swap1\n      tag_138\n      jump\t// in\n    tag_156:\n      mload(0x40)\n      dup1\n      swap2\n      sub\n      swap1\n      revert\n    tag_155:\n        /* \"subasta/subasta.sol\":6270:6271  0 */\n      0x00\n        /* \"subasta/subasta.sol\":6255:6264  depositos */\n      0x05\n        /* \"subasta/subasta.sol\":6255:6269  depositos[dir] */\n      0x00\n        /* \"subasta/subasta.sol\":6265:6268  dir */\n      dup4\n        /* \"subasta/subasta.sol\":6255:6269  depositos[dir] */\n      0xffffffffffffffffffffffffffffffffffffffff\n      and\n      0xffffffffffffffffffffffffffffffffffffffff\n      and\n      dup2\n      mstore\n      0x20\n      add\n      swap1\n      dup2\n      mstore\n      0x20\n      add\n      0x00\n      keccak256\n      sload\n        /* \"subasta/subasta.sol\":6255:6271  depositos[dir]>0 */\n      gt\n        /* \"subasta/subasta.sol\":6247:6290  require(depositos[dir]>0,\"no tiene fondos\") */\n      tag_157\n      jumpi\n      mload(0x40)\n      0x08c379a000000000000000000000000000000000000000000000000000000000\n      dup2\n      mstore\n      0x04\n      add\n      tag_158\n      swap1\n      tag_141\n      jump\t// in\n    tag_158:\n      mload(0x40)\n      dup1\n      swap2\n      sub\n      swap1\n      revert\n    tag_157:\n        /* \"subasta/subasta.sol\":6343:6372  getOfertaMasALtaOferente(dir) */\n      tag_159\n        /* \"subasta/subasta.sol\":6368:6371  dir */\n      dup2\n        /* \"subasta/subasta.sol\":6343:6367  getOfertaMasALtaOferente */\n      tag_160\n        /* \"subasta/subasta.sol\":6343:6372  getOfertaMasALtaOferente(dir) */\n      jump\t// in\n    tag_159:\n        /* \"subasta/subasta.sol\":6328:6337  depositos */\n      0x05\n        /* \"subasta/subasta.sol\":6328:6342  depositos[dir] */\n      0x00\n        /* \"subasta/subasta.sol\":6338:6341  dir */\n      dup4\n        /* \"subasta/subasta.sol\":6328:6342  depositos[dir] */\n      0xffffffffffffffffffffffffffffffffffffffff\n      and\n      0xffffffffffffffffffffffffffffffffffffffff\n      and\n      dup2\n      mstore\n      0x20\n      add\n      swap1\n      dup2\n      mstore\n      0x20\n      add\n      0x00\n      keccak256\n      sload\n        /* \"subasta/subasta.sol\":6328:6372  depositos[dir]-getOfertaMasALtaOferente(dir) */\n      tag_161\n      swap2\n      swap1\n      tag_121\n      jump\t// in\n    tag_161:\n        /* \"subasta/subasta.sol\":6324:6327  100 */\n      0x64\n        /* \"subasta/subasta.sol\":6319:6322  102 */\n      0x66\n        /* \"subasta/subasta.sol\":6309:6318  msg.value */\n      callvalue\n        /* \"subasta/subasta.sol\":6309:6322  msg.value*102 */\n      tag_162\n      swap2\n      swap1\n      tag_86\n      jump\t// in\n    tag_162:\n        /* \"subasta/subasta.sol\":6308:6327  (msg.value*102)/100 */\n      tag_163\n      swap2\n      swap1\n      tag_88\n      jump\t// in\n    tag_163:\n        /* \"subasta/subasta.sol\":6308:6372  (msg.value*102)/100<depositos[dir]-getOfertaMasALtaOferente(dir) */\n      lt\n        /* \"subasta/subasta.sol\":6300:6460  require((msg.value*102)/100<depositos[dir]-getOfertaMasALtaOferente(dir),... */\n      tag_164\n      jumpi\n      mload(0x40)\n      0x08c379a000000000000000000000000000000000000000000000000000000000\n      dup2\n      mstore\n      0x04\n      add\n      tag_165\n      swap1\n      tag_166\n      jump\t// in\n    tag_165:\n      mload(0x40)\n      dup1\n      swap2\n      sub\n      swap1\n      revert\n    tag_164:\n        /* \"subasta/subasta.sol\":6480:6489  bool sent */\n      0x00\n        /* \"subasta/subasta.sol\":6494:6497  dir */\n      dup2\n        /* \"subasta/subasta.sol\":6494:6502  dir.call */\n      0xffffffffffffffffffffffffffffffffffffffff\n      and\n        /* \"subasta/subasta.sol\":6525:6528  100 */\n      0x64\n        /* \"subasta/subasta.sol\":6521:6523  98 */\n      0x62\n        /* \"subasta/subasta.sol\":6511:6520  msg.value */\n      callvalue\n        /* \"subasta/subasta.sol\":6511:6523  msg.value*98 */\n      tag_167\n      swap2\n      swap1\n      tag_86\n      jump\t// in\n    tag_167:\n        /* \"subasta/subasta.sol\":6510:6528  (msg.value*98)/100 */\n      tag_168\n      swap2\n      swap1\n      tag_88\n      jump\t// in\n    tag_168:\n        /* \"subasta/subasta.sol\":6494:6533  dir.call{value: (msg.value*98)/100}(\"\") */\n      mload(0x40)\n      tag_169\n      swap1\n      tag_105\n      jump\t// in\n    tag_169:\n      0x00\n      mload(0x40)\n      dup1\n      dup4\n      sub\n      dup2\n      dup6\n      dup8\n      gas\n      call\n      swap3\n      pop\n      pop\n      pop\n      returndatasize\n      dup1\n      0x00\n      dup2\n      eq\n      tag_172\n      jumpi\n      mload(0x40)\n      swap2\n      pop\n      and(add(returndatasize, 0x3f), not(0x1f))\n      dup3\n      add\n      0x40\n      mstore\n      returndatasize\n      dup3\n      mstore\n      returndatasize\n      0x00\n      0x20\n      dup5\n      add\n      returndatacopy\n      jump(tag_171)\n    tag_172:\n      0x60\n      swap2\n      pop\n    tag_171:\n      pop\n        /* \"subasta/subasta.sol\":6479:6533  (bool sent,) = dir.call{value: (msg.value*98)/100}(\"\") */\n      pop\n      swap1\n      pop\n        /* \"subasta/subasta.sol\":6600:6604  sent */\n      dup1\n        /* \"subasta/subasta.sol\":6592:6632  require(sent, \"falla en la transaccion\") */\n      tag_173\n      jumpi\n      mload(0x40)\n      0x08c379a000000000000000000000000000000000000000000000000000000000\n      dup2\n      mstore\n      0x04\n      add\n      tag_174\n      swap1\n      tag_111\n      jump\t// in\n    tag_174:\n      mload(0x40)\n      dup1\n      swap2\n      sub\n      swap1\n      revert\n    tag_173:\n        /* \"subasta/subasta.sol\":6660:6669  msg.value */\n      callvalue\n        /* \"subasta/subasta.sol\":6642:6651  depositos */\n      0x05\n        /* \"subasta/subasta.sol\":6642:6656  depositos[dir] */\n      0x00\n        /* \"subasta/subasta.sol\":6652:6655  dir */\n      dup5\n        /* \"subasta/subasta.sol\":6642:6656  depositos[dir] */\n      0xffffffffffffffffffffffffffffffffffffffff\n      and\n      0xffffffffffffffffffffffffffffffffffffffff\n      and\n      dup2\n      mstore\n      0x20\n      add\n      swap1\n      dup2\n      mstore\n      0x20\n      add\n      0x00\n      keccak256\n      0x00\n        /* \"subasta/subasta.sol\":6642:6669  depositos[dir] -= msg.value */\n      dup3\n      dup3\n      sload\n      tag_175\n      swap2\n      swap1\n      tag_121\n      jump\t// in\n    tag_175:\n      swap3\n      pop\n      pop\n      dup2\n      swap1\n      sstore\n      pop\n        /* \"subasta/subasta.sol\":6150:6741  {... */\n      pop\n        /* \"subasta/subasta.sol\":6045:6741  function retornarDepositoParciales(address payable dir) ... */\n      pop\n      jump\t// out\n        /* \"subasta/subasta.sol\":1162:1284  function setOferente(address oferente, uint256 valor) private{... */\n    tag_113:\n        /* \"subasta/subasta.sol\":1233:1247  matriz_ofertas */\n      0x0b\n        /* \"subasta/subasta.sol\":1253:1276  Ofertas(oferente,valor) */\n      mload(0x40)\n      dup1\n      0x40\n      add\n      0x40\n      mstore\n      dup1\n        /* \"subasta/subasta.sol\":1261:1269  oferente */\n      dup5\n        /* \"subasta/subasta.sol\":1253:1276  Ofertas(oferente,valor) */\n      0xffffffffffffffffffffffffffffffffffffffff\n      and\n      dup2\n      mstore\n      0x20\n      add\n        /* \"subasta/subasta.sol\":1270:1275  valor */\n      dup4\n        /* \"subasta/subasta.sol\":1253:1276  Ofertas(oferente,valor) */\n      dup2\n      mstore\n      pop\n        /* \"subasta/subasta.sol\":1233:1277  matriz_ofertas.push(Ofertas(oferente,valor)) */\n      swap1\n      dup1\n      0x01\n      dup2\n      sload\n      add\n      dup1\n      dup3\n      sstore\n      dup1\n      swap2\n      pop\n      pop\n      0x01\n      swap1\n      sub\n      swap1\n      0x00\n      mstore\n      keccak256(0x00, 0x20)\n      swap1\n      0x02\n      mul\n      add\n      0x00\n      swap1\n      swap2\n      swap1\n      swap2\n      swap1\n      swap2\n      pop\n      0x00\n      dup3\n      add\n      mload\n      dup2\n      0x00\n      add\n      exp(0x0100, 0x00)\n      dup2\n      sload\n      dup2\n      0xffffffffffffffffffffffffffffffffffffffff\n      mul\n      not\n      and\n      swap1\n      dup4\n      0xffffffffffffffffffffffffffffffffffffffff\n      and\n      mul\n      or\n      swap1\n      sstore\n      pop\n      0x20\n      dup3\n      add\n      mload\n      dup2\n      0x01\n      add\n      sstore\n      pop\n      pop\n        /* \"subasta/subasta.sol\":1162:1284  function setOferente(address oferente, uint256 valor) private{... */\n      pop\n      pop\n      jump\t// out\n        /* \"subasta/subasta.sol\":7021:7171  function getOfertaMasALtaOferente(address oferente) private view returns(uint256){... */\n    tag_160:\n        /* \"subasta/subasta.sol\":7094:7101  uint256 */\n      0x00\n        /* \"subasta/subasta.sol\":7119:7126  ofertas */\n      0x08\n        /* \"subasta/subasta.sol\":7119:7136  ofertas[oferente] */\n      0x00\n        /* \"subasta/subasta.sol\":7127:7135  oferente */\n      dup4\n        /* \"subasta/subasta.sol\":7119:7136  ofertas[oferente] */\n      0xffffffffffffffffffffffffffffffffffffffff\n      and\n      0xffffffffffffffffffffffffffffffffffffffff\n      and\n      dup2\n      mstore\n      0x20\n      add\n      swap1\n      dup2\n      mstore\n      0x20\n      add\n      0x00\n      keccak256\n        /* \"subasta/subasta.sol\":7162:7163  1 */\n      0x01\n        /* \"subasta/subasta.sol\":7137:7144  ofertas */\n      0x08\n        /* \"subasta/subasta.sol\":7137:7154  ofertas[oferente] */\n      0x00\n        /* \"subasta/subasta.sol\":7145:7153  oferente */\n      dup6\n        /* \"subasta/subasta.sol\":7137:7154  ofertas[oferente] */\n      0xffffffffffffffffffffffffffffffffffffffff\n      and\n      0xffffffffffffffffffffffffffffffffffffffff\n      and\n      dup2\n      mstore\n      0x20\n      add\n      swap1\n      dup2\n      mstore\n      0x20\n      add\n      0x00\n      keccak256\n        /* \"subasta/subasta.sol\":7137:7161  ofertas[oferente].length */\n      dup1\n      sload\n      swap1\n      pop\n        /* \"subasta/subasta.sol\":7137:7163  ofertas[oferente].length-1 */\n      tag_179\n      swap2\n      swap1\n      tag_121\n      jump\t// in\n    tag_179:\n        /* \"subasta/subasta.sol\":7119:7164  ofertas[oferente][ofertas[oferente].length-1] */\n      dup2\n      sload\n      dup2\n      lt\n      tag_180\n      jumpi\n      tag_181\n      tag_182\n      jump\t// in\n    tag_181:\n    tag_180:\n      swap1\n      0x00\n      mstore\n      keccak256(0x00, 0x20)\n      add\n      sload\n        /* \"subasta/subasta.sol\":7112:7164  return ofertas[oferente][ofertas[oferente].length-1] */\n      swap1\n      pop\n        /* \"subasta/subasta.sol\":7021:7171  function getOfertaMasALtaOferente(address oferente) private view returns(uint256){... */\n      swap2\n      swap1\n      pop\n      jump\t// out\n        /* \"#utility.yul\":7:84   */\n    tag_184:\n        /* \"#utility.yul\":44:51   */\n      0x00\n        /* \"#utility.yul\":73:78   */\n      dup2\n        /* \"#utility.yul\":62:78   */\n      swap1\n      pop\n        /* \"#utility.yul\":7:84   */\n      swap2\n      swap1\n      pop\n      jump\t// out\n        /* \"#utility.yul\":90:208   */\n    tag_185:\n        /* \"#utility.yul\":177:201   */\n      tag_239\n        /* \"#utility.yul\":195:200   */\n      dup2\n        /* \"#utility.yul\":177:201   */\n      tag_184\n      jump\t// in\n    tag_239:\n        /* \"#utility.yul\":172:175   */\n      dup3\n        /* \"#utility.yul\":165:202   */\n      mstore\n        /* \"#utility.yul\":90:208   */\n      pop\n      pop\n      jump\t// out\n        /* \"#utility.yul\":214:436   */\n    tag_29:\n        /* \"#utility.yul\":307:311   */\n      0x00\n        /* \"#utility.yul\":345:347   */\n      0x20\n        /* \"#utility.yul\":334:343   */\n      dup3\n        /* \"#utility.yul\":330:348   */\n      add\n        /* \"#utility.yul\":322:348   */\n      swap1\n      pop\n        /* \"#utility.yul\":358:429   */\n      tag_241\n        /* \"#utility.yul\":426:427   */\n      0x00\n        /* \"#utility.yul\":415:424   */\n      dup4\n        /* \"#utility.yul\":411:428   */\n      add\n        /* \"#utility.yul\":402:408   */\n      dup5\n        /* \"#utility.yul\":358:429   */\n      tag_185\n      jump\t// in\n    tag_241:\n        /* \"#utility.yul\":214:436   */\n      swap3\n      swap2\n      pop\n      pop\n      jump\t// out\n        /* \"#utility.yul\":442:579   */\n    tag_186:\n        /* \"#utility.yul\":532:538   */\n      0x00\n        /* \"#utility.yul\":566:571   */\n      dup2\n        /* \"#utility.yul\":560:572   */\n      mload\n        /* \"#utility.yul\":550:572   */\n      swap1\n      pop\n        /* \"#utility.yul\":442:579   */\n      swap2\n      swap1\n      pop\n      jump\t// out\n        /* \"#utility.yul\":585:792   */\n    tag_187:\n        /* \"#utility.yul\":707:718   */\n      0x00\n        /* \"#utility.yul\":741:747   */\n      dup3\n        /* \"#utility.yul\":736:739   */\n      dup3\n        /* \"#utility.yul\":729:748   */\n      mstore\n        /* \"#utility.yul\":781:785   */\n      0x20\n        /* \"#utility.yul\":776:779   */\n      dup3\n        /* \"#utility.yul\":772:786   */\n      add\n        /* \"#utility.yul\":757:786   */\n      swap1\n      pop\n        /* \"#utility.yul\":585:792   */\n      swap3\n      swap2\n      pop\n      pop\n      jump\t// out\n        /* \"#utility.yul\":798:953   */\n    tag_188:\n        /* \"#utility.yul\":888:892   */\n      0x00\n        /* \"#utility.yul\":911:914   */\n      dup2\n        /* \"#utility.yul\":903:914   */\n      swap1\n      pop\n        /* \"#utility.yul\":941:945   */\n      0x20\n        /* \"#utility.yul\":936:939   */\n      dup3\n        /* \"#utility.yul\":932:946   */\n      add\n        /* \"#utility.yul\":924:946   */\n      swap1\n      pop\n        /* \"#utility.yul\":798:953   */\n      swap2\n      swap1\n      pop\n      jump\t// out\n        /* \"#utility.yul\":959:1085   */\n    tag_189:\n        /* \"#utility.yul\":996:1003   */\n      0x00\n        /* \"#utility.yul\":1036:1078   */\n      0xffffffffffffffffffffffffffffffffffffffff\n        /* \"#utility.yul\":1029:1034   */\n      dup3\n        /* \"#utility.yul\":1025:1079   */\n      and\n        /* \"#utility.yul\":1014:1079   */\n      swap1\n      pop\n        /* \"#utility.yul\":959:1085   */\n      swap2\n      swap1\n      pop\n      jump\t// out\n        /* \"#utility.yul\":1091:1187   */\n    tag_190:\n        /* \"#utility.yul\":1128:1135   */\n      0x00\n        /* \"#utility.yul\":1157:1181   */\n      tag_247\n        /* \"#utility.yul\":1175:1180   */\n      dup3\n        /* \"#utility.yul\":1157:1181   */\n      tag_189\n      jump\t// in\n    tag_247:\n        /* \"#utility.yul\":1146:1181   */\n      swap1\n      pop\n        /* \"#utility.yul\":1091:1187   */\n      swap2\n      swap1\n      pop\n      jump\t// out\n        /* \"#utility.yul\":1193:1301   */\n    tag_191:\n        /* \"#utility.yul\":1270:1294   */\n      tag_249\n        /* \"#utility.yul\":1288:1293   */\n      dup2\n        /* \"#utility.yul\":1270:1294   */\n      tag_190\n      jump\t// in\n    tag_249:\n        /* \"#utility.yul\":1265:1268   */\n      dup3\n        /* \"#utility.yul\":1258:1295   */\n      mstore\n        /* \"#utility.yul\":1193:1301   */\n      pop\n      pop\n      jump\t// out\n        /* \"#utility.yul\":1307:1415   */\n    tag_192:\n        /* \"#utility.yul\":1384:1408   */\n      tag_251\n        /* \"#utility.yul\":1402:1407   */\n      dup2\n        /* \"#utility.yul\":1384:1408   */\n      tag_184\n      jump\t// in\n    tag_251:\n        /* \"#utility.yul\":1379:1382   */\n      dup3\n        /* \"#utility.yul\":1372:1409   */\n      mstore\n        /* \"#utility.yul\":1307:1415   */\n      pop\n      pop\n      jump\t// out\n        /* \"#utility.yul\":1477:1981   */\n    tag_193:\n        /* \"#utility.yul\":1610:1614   */\n      0x40\n        /* \"#utility.yul\":1605:1608   */\n      dup3\n        /* \"#utility.yul\":1601:1615   */\n      add\n        /* \"#utility.yul\":1701:1705   */\n      0x00\n        /* \"#utility.yul\":1694:1699   */\n      dup3\n        /* \"#utility.yul\":1690:1706   */\n      add\n        /* \"#utility.yul\":1684:1707   */\n      mload\n        /* \"#utility.yul\":1720:1783   */\n      tag_253\n        /* \"#utility.yul\":1777:1781   */\n      0x00\n        /* \"#utility.yul\":1772:1775   */\n      dup6\n        /* \"#utility.yul\":1768:1782   */\n      add\n        /* \"#utility.yul\":1754:1766   */\n      dup3\n        /* \"#utility.yul\":1720:1783   */\n      tag_191\n      jump\t// in\n    tag_253:\n        /* \"#utility.yul\":1625:1793   */\n      pop\n        /* \"#utility.yul\":1882:1886   */\n      0x20\n        /* \"#utility.yul\":1875:1880   */\n      dup3\n        /* \"#utility.yul\":1871:1887   */\n      add\n        /* \"#utility.yul\":1865:1888   */\n      mload\n        /* \"#utility.yul\":1901:1964   */\n      tag_254\n        /* \"#utility.yul\":1958:1962   */\n      0x20\n        /* \"#utility.yul\":1953:1956   */\n      dup6\n        /* \"#utility.yul\":1949:1963   */\n      add\n        /* \"#utility.yul\":1935:1947   */\n      dup3\n        /* \"#utility.yul\":1901:1964   */\n      tag_192\n      jump\t// in\n    tag_254:\n        /* \"#utility.yul\":1803:1974   */\n      pop\n        /* \"#utility.yul\":1579:1981   */\n      pop\n        /* \"#utility.yul\":1477:1981   */\n      pop\n      pop\n      jump\t// out\n        /* \"#utility.yul\":1987:2258   */\n    tag_194:\n        /* \"#utility.yul\":2102:2112   */\n      0x00\n        /* \"#utility.yul\":2123:2215   */\n      tag_256\n        /* \"#utility.yul\":2211:2214   */\n      dup4\n        /* \"#utility.yul\":2203:2209   */\n      dup4\n        /* \"#utility.yul\":2123:2215   */\n      tag_193\n      jump\t// in\n    tag_256:\n        /* \"#utility.yul\":2247:2251   */\n      0x40\n        /* \"#utility.yul\":2242:2245   */\n      dup4\n        /* \"#utility.yul\":2238:2252   */\n      add\n        /* \"#utility.yul\":2224:2252   */\n      swap1\n      pop\n        /* \"#utility.yul\":1987:2258   */\n      swap3\n      swap2\n      pop\n      pop\n      jump\t// out\n        /* \"#utility.yul\":2264:2400   */\n    tag_195:\n        /* \"#utility.yul\":2357:2361   */\n      0x00\n        /* \"#utility.yul\":2389:2393   */\n      0x20\n        /* \"#utility.yul\":2384:2387   */\n      dup3\n        /* \"#utility.yul\":2380:2394   */\n      add\n        /* \"#utility.yul\":2372:2394   */\n      swap1\n      pop\n        /* \"#utility.yul\":2264:2400   */\n      swap2\n      swap1\n      pop\n      jump\t// out\n        /* \"#utility.yul\":2466:3382   */\n    tag_196:\n        /* \"#utility.yul\":2631:2634   */\n      0x00\n        /* \"#utility.yul\":2660:2737   */\n      tag_259\n        /* \"#utility.yul\":2731:2736   */\n      dup3\n        /* \"#utility.yul\":2660:2737   */\n      tag_186\n      jump\t// in\n    tag_259:\n        /* \"#utility.yul\":2753:2862   */\n      tag_260\n        /* \"#utility.yul\":2855:2861   */\n      dup2\n        /* \"#utility.yul\":2850:2853   */\n      dup6\n        /* \"#utility.yul\":2753:2862   */\n      tag_187\n      jump\t// in\n    tag_260:\n        /* \"#utility.yul\":2746:2862   */\n      swap4\n      pop\n        /* \"#utility.yul\":2886:2965   */\n      tag_261\n        /* \"#utility.yul\":2959:2964   */\n      dup4\n        /* \"#utility.yul\":2886:2965   */\n      tag_188\n      jump\t// in\n    tag_261:\n        /* \"#utility.yul\":2988:2995   */\n      dup1\n        /* \"#utility.yul\":3019:3020   */\n      0x00\n        /* \"#utility.yul\":3004:3357   */\n    tag_262:\n        /* \"#utility.yul\":3029:3035   */\n      dup4\n        /* \"#utility.yul\":3026:3027   */\n      dup2\n        /* \"#utility.yul\":3023:3036   */\n      lt\n        /* \"#utility.yul\":3004:3357   */\n      iszero\n      tag_264\n      jumpi\n        /* \"#utility.yul\":3105:3111   */\n      dup2\n        /* \"#utility.yul\":3099:3112   */\n      mload\n        /* \"#utility.yul\":3132:3241   */\n      tag_265\n        /* \"#utility.yul\":3237:3240   */\n      dup9\n        /* \"#utility.yul\":3222:3235   */\n      dup3\n        /* \"#utility.yul\":3132:3241   */\n      tag_194\n      jump\t// in\n    tag_265:\n        /* \"#utility.yul\":3125:3241   */\n      swap8\n      pop\n        /* \"#utility.yul\":3264:3347   */\n      tag_266\n        /* \"#utility.yul\":3340:3346   */\n      dup4\n        /* \"#utility.yul\":3264:3347   */\n      tag_195\n      jump\t// in\n    tag_266:\n        /* \"#utility.yul\":3254:3347   */\n      swap3\n      pop\n        /* \"#utility.yul\":3064:3357   */\n      pop\n        /* \"#utility.yul\":3051:3052   */\n      0x01\n        /* \"#utility.yul\":3048:3049   */\n      dup2\n        /* \"#utility.yul\":3044:3053   */\n      add\n        /* \"#utility.yul\":3039:3053   */\n      swap1\n      pop\n        /* \"#utility.yul\":3004:3357   */\n      jump(tag_262)\n    tag_264:\n        /* \"#utility.yul\":3008:3022   */\n      pop\n        /* \"#utility.yul\":3373:3376   */\n      dup6\n        /* \"#utility.yul\":3366:3376   */\n      swap4\n      pop\n        /* \"#utility.yul\":2636:3382   */\n      pop\n      pop\n      pop\n        /* \"#utility.yul\":2466:3382   */\n      swap3\n      swap2\n      pop\n      pop\n      jump\t// out\n        /* \"#utility.yul\":3388:3853   */\n    tag_42:\n        /* \"#utility.yul\":3577:3581   */\n      0x00\n        /* \"#utility.yul\":3615:3617   */\n      0x20\n        /* \"#utility.yul\":3604:3613   */\n      dup3\n        /* \"#utility.yul\":3600:3618   */\n      add\n        /* \"#utility.yul\":3592:3618   */\n      swap1\n      pop\n        /* \"#utility.yul\":3664:3673   */\n      dup2\n        /* \"#utility.yul\":3658:3662   */\n      dup2\n        /* \"#utility.yul\":3654:3674   */\n      sub\n        /* \"#utility.yul\":3650:3651   */\n      0x00\n        /* \"#utility.yul\":3639:3648   */\n      dup4\n        /* \"#utility.yul\":3635:3652   */\n      add\n        /* \"#utility.yul\":3628:3675   */\n      mstore\n        /* \"#utility.yul\":3692:3846   */\n      tag_268\n        /* \"#utility.yul\":3841:3845   */\n      dup2\n        /* \"#utility.yul\":3832:3838   */\n      dup5\n        /* \"#utility.yul\":3692:3846   */\n      tag_196\n      jump\t// in\n    tag_268:\n        /* \"#utility.yul\":3684:3846   */\n      swap1\n      pop\n        /* \"#utility.yul\":3388:3853   */\n      swap3\n      swap2\n      pop\n      pop\n      jump\t// out\n        /* \"#utility.yul\":3859:3949   */\n    tag_197:\n        /* \"#utility.yul\":3893:3900   */\n      0x00\n        /* \"#utility.yul\":3936:3941   */\n      dup2\n        /* \"#utility.yul\":3929:3942   */\n      iszero\n        /* \"#utility.yul\":3922:3943   */\n      iszero\n        /* \"#utility.yul\":3911:3943   */\n      swap1\n      pop\n        /* \"#utility.yul\":3859:3949   */\n      swap2\n      swap1\n      pop\n      jump\t// out\n        /* \"#utility.yul\":3955:4064   */\n    tag_198:\n        /* \"#utility.yul\":4036:4057   */\n      tag_271\n        /* \"#utility.yul\":4051:4056   */\n      dup2\n        /* \"#utility.yul\":4036:4057   */\n      tag_197\n      jump\t// in\n    tag_271:\n        /* \"#utility.yul\":4031:4034   */\n      dup3\n        /* \"#utility.yul\":4024:4058   */\n      mstore\n        /* \"#utility.yul\":3955:4064   */\n      pop\n      pop\n      jump\t// out\n        /* \"#utility.yul\":4070:4280   */\n    tag_49:\n        /* \"#utility.yul\":4157:4161   */\n      0x00\n        /* \"#utility.yul\":4195:4197   */\n      0x20\n        /* \"#utility.yul\":4184:4193   */\n      dup3\n        /* \"#utility.yul\":4180:4198   */\n      add\n        /* \"#utility.yul\":4172:4198   */\n      swap1\n      pop\n        /* \"#utility.yul\":4208:4273   */\n      tag_273\n        /* \"#utility.yul\":4270:4271   */\n      0x00\n        /* \"#utility.yul\":4259:4268   */\n      dup4\n        /* \"#utility.yul\":4255:4272   */\n      add\n        /* \"#utility.yul\":4246:4252   */\n      dup5\n        /* \"#utility.yul\":4208:4273   */\n      tag_198\n      jump\t// in\n    tag_273:\n        /* \"#utility.yul\":4070:4280   */\n      swap3\n      swap2\n      pop\n      pop\n      jump\t// out\n        /* \"#utility.yul\":4286:4400   */\n    tag_199:\n        /* \"#utility.yul\":4353:4359   */\n      0x00\n        /* \"#utility.yul\":4387:4392   */\n      dup2\n        /* \"#utility.yul\":4381:4393   */\n      mload\n        /* \"#utility.yul\":4371:4393   */\n      swap1\n      pop\n        /* \"#utility.yul\":4286:4400   */\n      swap2\n      swap1\n      pop\n      jump\t// out\n        /* \"#utility.yul\":4406:4590   */\n    tag_200:\n        /* \"#utility.yul\":4505:4516   */\n      0x00\n        /* \"#utility.yul\":4539:4545   */\n      dup3\n        /* \"#utility.yul\":4534:4537   */\n      dup3\n        /* \"#utility.yul\":4527:4546   */\n      mstore\n        /* \"#utility.yul\":4579:4583   */\n      0x20\n        /* \"#utility.yul\":4574:4577   */\n      dup3\n        /* \"#utility.yul\":4570:4584   */\n      add\n        /* \"#utility.yul\":4555:4584   */\n      swap1\n      pop\n        /* \"#utility.yul\":4406:4590   */\n      swap3\n      swap2\n      pop\n      pop\n      jump\t// out\n        /* \"#utility.yul\":4596:4728   */\n    tag_201:\n        /* \"#utility.yul\":4663:4667   */\n      0x00\n        /* \"#utility.yul\":4686:4689   */\n      dup2\n        /* \"#utility.yul\":4678:4689   */\n      swap1\n      pop\n        /* \"#utility.yul\":4716:4720   */\n      0x20\n        /* \"#utility.yul\":4711:4714   */\n      dup3\n        /* \"#utility.yul\":4707:4721   */\n      add\n        /* \"#utility.yul\":4699:4721   */\n      swap1\n      pop\n        /* \"#utility.yul\":4596:4728   */\n      swap2\n      swap1\n      pop\n      jump\t// out\n        /* \"#utility.yul\":4734:4913   */\n    tag_202:\n        /* \"#utility.yul\":4803:4813   */\n      0x00\n        /* \"#utility.yul\":4824:4870   */\n      tag_278\n        /* \"#utility.yul\":4866:4869   */\n      dup4\n        /* \"#utility.yul\":4858:4864   */\n      dup4\n        /* \"#utility.yul\":4824:4870   */\n      tag_192\n      jump\t// in\n    tag_278:\n        /* \"#utility.yul\":4902:4906   */\n      0x20\n        /* \"#utility.yul\":4897:4900   */\n      dup4\n        /* \"#utility.yul\":4893:4907   */\n      add\n        /* \"#utility.yul\":4879:4907   */\n      swap1\n      pop\n        /* \"#utility.yul\":4734:4913   */\n      swap3\n      swap2\n      pop\n      pop\n      jump\t// out\n        /* \"#utility.yul\":4919:5032   */\n    tag_203:\n        /* \"#utility.yul\":4989:4993   */\n      0x00\n        /* \"#utility.yul\":5021:5025   */\n      0x20\n        /* \"#utility.yul\":5016:5019   */\n      dup3\n        /* \"#utility.yul\":5012:5026   */\n      add\n        /* \"#utility.yul\":5004:5026   */\n      swap1\n      pop\n        /* \"#utility.yul\":4919:5032   */\n      swap2\n      swap1\n      pop\n      jump\t// out\n        /* \"#utility.yul\":5068:5800   */\n    tag_204:\n        /* \"#utility.yul\":5187:5190   */\n      0x00\n        /* \"#utility.yul\":5216:5270   */\n      tag_281\n        /* \"#utility.yul\":5264:5269   */\n      dup3\n        /* \"#utility.yul\":5216:5270   */\n      tag_199\n      jump\t// in\n    tag_281:\n        /* \"#utility.yul\":5286:5372   */\n      tag_282\n        /* \"#utility.yul\":5365:5371   */\n      dup2\n        /* \"#utility.yul\":5360:5363   */\n      dup6\n        /* \"#utility.yul\":5286:5372   */\n      tag_200\n      jump\t// in\n    tag_282:\n        /* \"#utility.yul\":5279:5372   */\n      swap4\n      pop\n        /* \"#utility.yul\":5396:5452   */\n      tag_283\n        /* \"#utility.yul\":5446:5451   */\n      dup4\n        /* \"#utility.yul\":5396:5452   */\n      tag_201\n      jump\t// in\n    tag_283:\n        /* \"#utility.yul\":5475:5482   */\n      dup1\n        /* \"#utility.yul\":5506:5507   */\n      0x00\n        /* \"#utility.yul\":5491:5775   */\n    tag_284:\n        /* \"#utility.yul\":5516:5522   */\n      dup4\n        /* \"#utility.yul\":5513:5514   */\n      dup2\n        /* \"#utility.yul\":5510:5523   */\n      lt\n        /* \"#utility.yul\":5491:5775   */\n      iszero\n      tag_286\n      jumpi\n        /* \"#utility.yul\":5592:5598   */\n      dup2\n        /* \"#utility.yul\":5586:5599   */\n      mload\n        /* \"#utility.yul\":5619:5682   */\n      tag_287\n        /* \"#utility.yul\":5678:5681   */\n      dup9\n        /* \"#utility.yul\":5663:5676   */\n      dup3\n        /* \"#utility.yul\":5619:5682   */\n      tag_202\n      jump\t// in\n    tag_287:\n        /* \"#utility.yul\":5612:5682   */\n      swap8\n      pop\n        /* \"#utility.yul\":5705:5765   */\n      tag_288\n        /* \"#utility.yul\":5758:5764   */\n      dup4\n        /* \"#utility.yul\":5705:5765   */\n      tag_203\n      jump\t// in\n    tag_288:\n        /* \"#utility.yul\":5695:5765   */\n      swap3\n      pop\n        /* \"#utility.yul\":5551:5775   */\n      pop\n        /* \"#utility.yul\":5538:5539   */\n      0x01\n        /* \"#utility.yul\":5535:5536   */\n      dup2\n        /* \"#utility.yul\":5531:5540   */\n      add\n        /* \"#utility.yul\":5526:5540   */\n      swap1\n      pop\n        /* \"#utility.yul\":5491:5775   */\n      jump(tag_284)\n    tag_286:\n        /* \"#utility.yul\":5495:5509   */\n      pop\n        /* \"#utility.yul\":5791:5794   */\n      dup6\n        /* \"#utility.yul\":5784:5794   */\n      swap4\n      pop\n        /* \"#utility.yul\":5192:5800   */\n      pop\n      pop\n      pop\n        /* \"#utility.yul\":5068:5800   */\n      swap3\n      swap2\n      pop\n      pop\n      jump\t// out\n        /* \"#utility.yul\":5806:6179   */\n    tag_62:\n        /* \"#utility.yul\":5949:5953   */\n      0x00\n        /* \"#utility.yul\":5987:5989   */\n      0x20\n        /* \"#utility.yul\":5976:5985   */\n      dup3\n        /* \"#utility.yul\":5972:5990   */\n      add\n        /* \"#utility.yul\":5964:5990   */\n      swap1\n      pop\n        /* \"#utility.yul\":6036:6045   */\n      dup2\n        /* \"#utility.yul\":6030:6034   */\n      dup2\n        /* \"#utility.yul\":6026:6046   */\n      sub\n        /* \"#utility.yul\":6022:6023   */\n      0x00\n        /* \"#utility.yul\":6011:6020   */\n      dup4\n        /* \"#utility.yul\":6007:6024   */\n      add\n        /* \"#utility.yul\":6000:6047   */\n      mstore\n        /* \"#utility.yul\":6064:6172   */\n      tag_290\n        /* \"#utility.yul\":6167:6171   */\n      dup2\n        /* \"#utility.yul\":6158:6164   */\n      dup5\n        /* \"#utility.yul\":6064:6172   */\n      tag_204\n      jump\t// in\n    tag_290:\n        /* \"#utility.yul\":6056:6172   */\n      swap1\n      pop\n        /* \"#utility.yul\":5806:6179   */\n      swap3\n      swap2\n      pop\n      pop\n      jump\t// out\n        /* \"#utility.yul\":6266:6383   */\n    tag_206:\n        /* \"#utility.yul\":6375:6376   */\n      0x00\n        /* \"#utility.yul\":6372:6373   */\n      0x00\n        /* \"#utility.yul\":6365:6377   */\n      revert\n        /* \"#utility.yul\":6512:6616   */\n    tag_208:\n        /* \"#utility.yul\":6557:6564   */\n      0x00\n        /* \"#utility.yul\":6586:6610   */\n      tag_295\n        /* \"#utility.yul\":6604:6609   */\n      dup3\n        /* \"#utility.yul\":6586:6610   */\n      tag_189\n      jump\t// in\n    tag_295:\n        /* \"#utility.yul\":6575:6610   */\n      swap1\n      pop\n        /* \"#utility.yul\":6512:6616   */\n      swap2\n      swap1\n      pop\n      jump\t// out\n        /* \"#utility.yul\":6622:6760   */\n    tag_209:\n        /* \"#utility.yul\":6703:6735   */\n      tag_297\n        /* \"#utility.yul\":6729:6734   */\n      dup2\n        /* \"#utility.yul\":6703:6735   */\n      tag_208\n      jump\t// in\n    tag_297:\n        /* \"#utility.yul\":6696:6701   */\n      dup2\n        /* \"#utility.yul\":6693:6736   */\n      eq\n        /* \"#utility.yul\":6683:6754   */\n      tag_298\n      jumpi\n        /* \"#utility.yul\":6750:6751   */\n      0x00\n        /* \"#utility.yul\":6747:6748   */\n      0x00\n        /* \"#utility.yul\":6740:6752   */\n      revert\n        /* \"#utility.yul\":6683:6754   */\n    tag_298:\n        /* \"#utility.yul\":6622:6760   */\n      pop\n      jump\t// out\n        /* \"#utility.yul\":6766:6921   */\n    tag_210:\n        /* \"#utility.yul\":6820:6825   */\n      0x00\n        /* \"#utility.yul\":6858:6864   */\n      dup2\n        /* \"#utility.yul\":6845:6865   */\n      calldataload\n        /* \"#utility.yul\":6836:6865   */\n      swap1\n      pop\n        /* \"#utility.yul\":6874:6915   */\n      tag_300\n        /* \"#utility.yul\":6909:6914   */\n      dup2\n        /* \"#utility.yul\":6874:6915   */\n      tag_209\n      jump\t// in\n    tag_300:\n        /* \"#utility.yul\":6766:6921   */\n      swap3\n      swap2\n      pop\n      pop\n      jump\t// out\n        /* \"#utility.yul\":6927:7272   */\n    tag_69:\n        /* \"#utility.yul\":6994:7000   */\n      0x00\n        /* \"#utility.yul\":7043:7045   */\n      0x20\n        /* \"#utility.yul\":7031:7040   */\n      dup3\n        /* \"#utility.yul\":7022:7029   */\n      dup5\n        /* \"#utility.yul\":7018:7041   */\n      sub\n        /* \"#utility.yul\":7014:7046   */\n      slt\n        /* \"#utility.yul\":7011:7130   */\n      iszero\n      tag_302\n      jumpi\n        /* \"#utility.yul\":7049:7128   */\n      tag_303\n      tag_206\n      jump\t// in\n    tag_303:\n        /* \"#utility.yul\":7011:7130   */\n    tag_302:\n        /* \"#utility.yul\":7169:7170   */\n      0x00\n        /* \"#utility.yul\":7194:7255   */\n      tag_304\n        /* \"#utility.yul\":7247:7254   */\n      dup5\n        /* \"#utility.yul\":7238:7244   */\n      dup3\n        /* \"#utility.yul\":7227:7236   */\n      dup6\n        /* \"#utility.yul\":7223:7245   */\n      add\n        /* \"#utility.yul\":7194:7255   */\n      tag_210\n      jump\t// in\n    tag_304:\n        /* \"#utility.yul\":7184:7255   */\n      swap2\n      pop\n        /* \"#utility.yul\":7140:7265   */\n      pop\n        /* \"#utility.yul\":6927:7272   */\n      swap3\n      swap2\n      pop\n      pop\n      jump\t// out\n        /* \"#utility.yul\":7278:7447   */\n    tag_211:\n        /* \"#utility.yul\":7362:7373   */\n      0x00\n        /* \"#utility.yul\":7396:7402   */\n      dup3\n        /* \"#utility.yul\":7391:7394   */\n      dup3\n        /* \"#utility.yul\":7384:7403   */\n      mstore\n        /* \"#utility.yul\":7436:7440   */\n      0x20\n        /* \"#utility.yul\":7431:7434   */\n      dup3\n        /* \"#utility.yul\":7427:7441   */\n      add\n        /* \"#utility.yul\":7412:7441   */\n      swap1\n      pop\n        /* \"#utility.yul\":7278:7447   */\n      swap3\n      swap2\n      pop\n      pop\n      jump\t// out\n        /* \"#utility.yul\":7453:7634   */\n    tag_212:\n        /* \"#utility.yul\":7593:7626   */\n      0x6e6f206573204f776e65722e2041636365736f207265737472696e6769646f00\n        /* \"#utility.yul\":7589:7590   */\n      0x00\n        /* \"#utility.yul\":7581:7587   */\n      dup3\n        /* \"#utility.yul\":7577:7591   */\n      add\n        /* \"#utility.yul\":7570:7627   */\n      mstore\n        /* \"#utility.yul\":7453:7634   */\n      pop\n      jump\t// out\n        /* \"#utility.yul\":7640:8006   */\n    tag_213:\n        /* \"#utility.yul\":7782:7785   */\n      0x00\n        /* \"#utility.yul\":7803:7870   */\n      tag_308\n        /* \"#utility.yul\":7867:7869   */\n      0x1f\n        /* \"#utility.yul\":7862:7865   */\n      dup4\n        /* \"#utility.yul\":7803:7870   */\n      tag_211\n      jump\t// in\n    tag_308:\n        /* \"#utility.yul\":7796:7870   */\n      swap2\n      pop\n        /* \"#utility.yul\":7879:7972   */\n      tag_309\n        /* \"#utility.yul\":7968:7971   */\n      dup3\n        /* \"#utility.yul\":7879:7972   */\n      tag_212\n      jump\t// in\n    tag_309:\n        /* \"#utility.yul\":7997:7999   */\n      0x20\n        /* \"#utility.yul\":7992:7995   */\n      dup3\n        /* \"#utility.yul\":7988:8000   */\n      add\n        /* \"#utility.yul\":7981:8000   */\n      swap1\n      pop\n        /* \"#utility.yul\":7640:8006   */\n      swap2\n      swap1\n      pop\n      jump\t// out\n        /* \"#utility.yul\":8012:8431   */\n    tag_77:\n        /* \"#utility.yul\":8178:8182   */\n      0x00\n        /* \"#utility.yul\":8216:8218   */\n      0x20\n        /* \"#utility.yul\":8205:8214   */\n      dup3\n        /* \"#utility.yul\":8201:8219   */\n      add\n        /* \"#utility.yul\":8193:8219   */\n      swap1\n      pop\n        /* \"#utility.yul\":8265:8274   */\n      dup2\n        /* \"#utility.yul\":8259:8263   */\n      dup2\n        /* \"#utility.yul\":8255:8275   */\n      sub\n        /* \"#utility.yul\":8251:8252   */\n      0x00\n        /* \"#utility.yul\":8240:8249   */\n      dup4\n        /* \"#utility.yul\":8236:8253   */\n      add\n        /* \"#utility.yul\":8229:8276   */\n      mstore\n        /* \"#utility.yul\":8293:8424   */\n      tag_311\n        /* \"#utility.yul\":8419:8423   */\n      dup2\n        /* \"#utility.yul\":8293:8424   */\n      tag_213\n      jump\t// in\n    tag_311:\n        /* \"#utility.yul\":8285:8424   */\n      swap1\n      pop\n        /* \"#utility.yul\":8012:8431   */\n      swap2\n      swap1\n      pop\n      jump\t// out\n        /* \"#utility.yul\":8437:8617   */\n    tag_214:\n        /* \"#utility.yul\":8485:8562   */\n      0x4e487b7100000000000000000000000000000000000000000000000000000000\n        /* \"#utility.yul\":8482:8483   */\n      0x00\n        /* \"#utility.yul\":8475:8563   */\n      mstore\n        /* \"#utility.yul\":8582:8586   */\n      0x11\n        /* \"#utility.yul\":8579:8580   */\n      0x04\n        /* \"#utility.yul\":8572:8587   */\n      mstore\n        /* \"#utility.yul\":8606:8610   */\n      0x24\n        /* \"#utility.yul\":8603:8604   */\n      0x00\n        /* \"#utility.yul\":8596:8611   */\n      revert\n        /* \"#utility.yul\":8623:9033   */\n    tag_86:\n        /* \"#utility.yul\":8663:8670   */\n      0x00\n        /* \"#utility.yul\":8686:8706   */\n      tag_314\n        /* \"#utility.yul\":8704:8705   */\n      dup3\n        /* \"#utility.yul\":8686:8706   */\n      tag_184\n      jump\t// in\n    tag_314:\n        /* \"#utility.yul\":8681:8706   */\n      swap2\n      pop\n        /* \"#utility.yul\":8720:8740   */\n      tag_315\n        /* \"#utility.yul\":8738:8739   */\n      dup4\n        /* \"#utility.yul\":8720:8740   */\n      tag_184\n      jump\t// in\n    tag_315:\n        /* \"#utility.yul\":8715:8740   */\n      swap3\n      pop\n        /* \"#utility.yul\":8775:8776   */\n      dup3\n        /* \"#utility.yul\":8772:8773   */\n      dup3\n        /* \"#utility.yul\":8768:8777   */\n      mul\n        /* \"#utility.yul\":8797:8827   */\n      tag_316\n        /* \"#utility.yul\":8815:8826   */\n      dup2\n        /* \"#utility.yul\":8797:8827   */\n      tag_184\n      jump\t// in\n    tag_316:\n        /* \"#utility.yul\":8786:8827   */\n      swap2\n      pop\n        /* \"#utility.yul\":8976:8977   */\n      dup3\n        /* \"#utility.yul\":8967:8974   */\n      dup3\n        /* \"#utility.yul\":8963:8978   */\n      div\n        /* \"#utility.yul\":8960:8961   */\n      dup5\n        /* \"#utility.yul\":8957:8979   */\n      eq\n        /* \"#utility.yul\":8937:8938   */\n      dup4\n        /* \"#utility.yul\":8930:8939   */\n      iszero\n        /* \"#utility.yul\":8910:8993   */\n      or\n        /* \"#utility.yul\":8887:9026   */\n      tag_317\n      jumpi\n        /* \"#utility.yul\":9006:9024   */\n      tag_318\n      tag_214\n      jump\t// in\n    tag_318:\n        /* \"#utility.yul\":8887:9026   */\n    tag_317:\n        /* \"#utility.yul\":8671:9033   */\n      pop\n        /* \"#utility.yul\":8623:9033   */\n      swap3\n      swap2\n      pop\n      pop\n      jump\t// out\n        /* \"#utility.yul\":9039:9219   */\n    tag_215:\n        /* \"#utility.yul\":9087:9164   */\n      0x4e487b7100000000000000000000000000000000000000000000000000000000\n        /* \"#utility.yul\":9084:9085   */\n      0x00\n        /* \"#utility.yul\":9077:9165   */\n      mstore\n        /* \"#utility.yul\":9184:9188   */\n      0x12\n        /* \"#utility.yul\":9181:9182   */\n      0x04\n        /* \"#utility.yul\":9174:9189   */\n      mstore\n        /* \"#utility.yul\":9208:9212   */\n      0x24\n        /* \"#utility.yul\":9205:9206   */\n      0x00\n        /* \"#utility.yul\":9198:9213   */\n      revert\n        /* \"#utility.yul\":9225:9410   */\n    tag_88:\n        /* \"#utility.yul\":9265:9266   */\n      0x00\n        /* \"#utility.yul\":9282:9302   */\n      tag_321\n        /* \"#utility.yul\":9300:9301   */\n      dup3\n        /* \"#utility.yul\":9282:9302   */\n      tag_184\n      jump\t// in\n    tag_321:\n        /* \"#utility.yul\":9277:9302   */\n      swap2\n      pop\n        /* \"#utility.yul\":9316:9336   */\n      tag_322\n        /* \"#utility.yul\":9334:9335   */\n      dup4\n        /* \"#utility.yul\":9316:9336   */\n      tag_184\n      jump\t// in\n    tag_322:\n        /* \"#utility.yul\":9311:9336   */\n      swap3\n      pop\n        /* \"#utility.yul\":9355:9356   */\n      dup3\n        /* \"#utility.yul\":9345:9380   */\n      tag_323\n      jumpi\n        /* \"#utility.yul\":9360:9378   */\n      tag_324\n      tag_215\n      jump\t// in\n    tag_324:\n        /* \"#utility.yul\":9345:9380   */\n    tag_323:\n        /* \"#utility.yul\":9402:9403   */\n      dup3\n        /* \"#utility.yul\":9399:9400   */\n      dup3\n        /* \"#utility.yul\":9395:9404   */\n      div\n        /* \"#utility.yul\":9390:9404   */\n      swap1\n      pop\n        /* \"#utility.yul\":9225:9410   */\n      swap3\n      swap2\n      pop\n      pop\n      jump\t// out\n        /* \"#utility.yul\":9416:9643   */\n    tag_216:\n        /* \"#utility.yul\":9556:9590   */\n      0x6c61206f6665727461206e6f2073757065726120706f722035252061206c6120\n        /* \"#utility.yul\":9552:9553   */\n      0x00\n        /* \"#utility.yul\":9544:9550   */\n      dup3\n        /* \"#utility.yul\":9540:9554   */\n      add\n        /* \"#utility.yul\":9533:9591   */\n      mstore\n        /* \"#utility.yul\":9625:9635   */\n      0x6d617320616c7461000000000000000000000000000000000000000000000000\n        /* \"#utility.yul\":9620:9622   */\n      0x20\n        /* \"#utility.yul\":9612:9618   */\n      dup3\n        /* \"#utility.yul\":9608:9623   */\n      add\n        /* \"#utility.yul\":9601:9636   */\n      mstore\n        /* \"#utility.yul\":9416:9643   */\n      pop\n      jump\t// out\n        /* \"#utility.yul\":9649:10015   */\n    tag_217:\n        /* \"#utility.yul\":9791:9794   */\n      0x00\n        /* \"#utility.yul\":9812:9879   */\n      tag_327\n        /* \"#utility.yul\":9876:9878   */\n      0x28\n        /* \"#utility.yul\":9871:9874   */\n      dup4\n        /* \"#utility.yul\":9812:9879   */\n      tag_211\n      jump\t// in\n    tag_327:\n        /* \"#utility.yul\":9805:9879   */\n      swap2\n      pop\n        /* \"#utility.yul\":9888:9981   */\n      tag_328\n        /* \"#utility.yul\":9977:9980   */\n      dup3\n        /* \"#utility.yul\":9888:9981   */\n      tag_216\n      jump\t// in\n    tag_328:\n        /* \"#utility.yul\":10006:10008   */\n      0x40\n        /* \"#utility.yul\":10001:10004   */\n      dup3\n        /* \"#utility.yul\":9997:10009   */\n      add\n        /* \"#utility.yul\":9990:10009   */\n      swap1\n      pop\n        /* \"#utility.yul\":9649:10015   */\n      swap2\n      swap1\n      pop\n      jump\t// out\n        /* \"#utility.yul\":10021:10440   */\n    tag_91:\n        /* \"#utility.yul\":10187:10191   */\n      0x00\n        /* \"#utility.yul\":10225:10227   */\n      0x20\n        /* \"#utility.yul\":10214:10223   */\n      dup3\n        /* \"#utility.yul\":10210:10228   */\n      add\n        /* \"#utility.yul\":10202:10228   */\n      swap1\n      pop\n        /* \"#utility.yul\":10274:10283   */\n      dup2\n        /* \"#utility.yul\":10268:10272   */\n      dup2\n        /* \"#utility.yul\":10264:10284   */\n      sub\n        /* \"#utility.yul\":10260:10261   */\n      0x00\n        /* \"#utility.yul\":10249:10258   */\n      dup4\n        /* \"#utility.yul\":10245:10262   */\n      add\n        /* \"#utility.yul\":10238:10285   */\n      mstore\n        /* \"#utility.yul\":10302:10433   */\n      tag_330\n        /* \"#utility.yul\":10428:10432   */\n      dup2\n        /* \"#utility.yul\":10302:10433   */\n      tag_217\n      jump\t// in\n    tag_330:\n        /* \"#utility.yul\":10294:10433   */\n      swap1\n      pop\n        /* \"#utility.yul\":10021:10440   */\n      swap2\n      swap1\n      pop\n      jump\t// out\n        /* \"#utility.yul\":10446:10622   */\n    tag_218:\n        /* \"#utility.yul\":10586:10614   */\n      0x6573204f776e65722e204e6f207075656465206f666572746172000000000000\n        /* \"#utility.yul\":10582:10583   */\n      0x00\n        /* \"#utility.yul\":10574:10580   */\n      dup3\n        /* \"#utility.yul\":10570:10584   */\n      add\n        /* \"#utility.yul\":10563:10615   */\n      mstore\n        /* \"#utility.yul\":10446:10622   */\n      pop\n      jump\t// out\n        /* \"#utility.yul\":10628:10994   */\n    tag_219:\n        /* \"#utility.yul\":10770:10773   */\n      0x00\n        /* \"#utility.yul\":10791:10858   */\n      tag_333\n        /* \"#utility.yul\":10855:10857   */\n      0x1a\n        /* \"#utility.yul\":10850:10853   */\n      dup4\n        /* \"#utility.yul\":10791:10858   */\n      tag_211\n      jump\t// in\n    tag_333:\n        /* \"#utility.yul\":10784:10858   */\n      swap2\n      pop\n        /* \"#utility.yul\":10867:10960   */\n      tag_334\n        /* \"#utility.yul\":10956:10959   */\n      dup3\n        /* \"#utility.yul\":10867:10960   */\n      tag_218\n      jump\t// in\n    tag_334:\n        /* \"#utility.yul\":10985:10987   */\n      0x20\n        /* \"#utility.yul\":10980:10983   */\n      dup3\n        /* \"#utility.yul\":10976:10988   */\n      add\n        /* \"#utility.yul\":10969:10988   */\n      swap1\n      pop\n        /* \"#utility.yul\":10628:10994   */\n      swap2\n      swap1\n      pop\n      jump\t// out\n        /* \"#utility.yul\":11000:11419   */\n    tag_95:\n        /* \"#utility.yul\":11166:11170   */\n      0x00\n        /* \"#utility.yul\":11204:11206   */\n      0x20\n        /* \"#utility.yul\":11193:11202   */\n      dup3\n        /* \"#utility.yul\":11189:11207   */\n      add\n        /* \"#utility.yul\":11181:11207   */\n      swap1\n      pop\n        /* \"#utility.yul\":11253:11262   */\n      dup2\n        /* \"#utility.yul\":11247:11251   */\n      dup2\n        /* \"#utility.yul\":11243:11263   */\n      sub\n        /* \"#utility.yul\":11239:11240   */\n      0x00\n        /* \"#utility.yul\":11228:11237   */\n      dup4\n        /* \"#utility.yul\":11224:11241   */\n      add\n        /* \"#utility.yul\":11217:11264   */\n      mstore\n        /* \"#utility.yul\":11281:11412   */\n      tag_336\n        /* \"#utility.yul\":11407:11411   */\n      dup2\n        /* \"#utility.yul\":11281:11412   */\n      tag_219\n      jump\t// in\n    tag_336:\n        /* \"#utility.yul\":11273:11412   */\n      swap1\n      pop\n        /* \"#utility.yul\":11000:11419   */\n      swap2\n      swap1\n      pop\n      jump\t// out\n        /* \"#utility.yul\":11425:11593   */\n    tag_220:\n        /* \"#utility.yul\":11565:11585   */\n      0x737562617374612066696e616c697a6164610000000000000000000000000000\n        /* \"#utility.yul\":11561:11562   */\n      0x00\n        /* \"#utility.yul\":11553:11559   */\n      dup3\n        /* \"#utility.yul\":11549:11563   */\n      add\n        /* \"#utility.yul\":11542:11586   */\n      mstore\n        /* \"#utility.yul\":11425:11593   */\n      pop\n      jump\t// out\n        /* \"#utility.yul\":11599:11965   */\n    tag_221:\n        /* \"#utility.yul\":11741:11744   */\n      0x00\n        /* \"#utility.yul\":11762:11829   */\n      tag_339\n        /* \"#utility.yul\":11826:11828   */\n      0x12\n        /* \"#utility.yul\":11821:11824   */\n      dup4\n        /* \"#utility.yul\":11762:11829   */\n      tag_211\n      jump\t// in\n    tag_339:\n        /* \"#utility.yul\":11755:11829   */\n      swap2\n      pop\n        /* \"#utility.yul\":11838:11931   */\n      tag_340\n        /* \"#utility.yul\":11927:11930   */\n      dup3\n        /* \"#utility.yul\":11838:11931   */\n      tag_220\n      jump\t// in\n    tag_340:\n        /* \"#utility.yul\":11956:11958   */\n      0x20\n        /* \"#utility.yul\":11951:11954   */\n      dup3\n        /* \"#utility.yul\":11947:11959   */\n      add\n        /* \"#utility.yul\":11940:11959   */\n      swap1\n      pop\n        /* \"#utility.yul\":11599:11965   */\n      swap2\n      swap1\n      pop\n      jump\t// out\n        /* \"#utility.yul\":11971:12390   */\n    tag_99:\n        /* \"#utility.yul\":12137:12141   */\n      0x00\n        /* \"#utility.yul\":12175:12177   */\n      0x20\n        /* \"#utility.yul\":12164:12173   */\n      dup3\n        /* \"#utility.yul\":12160:12178   */\n      add\n        /* \"#utility.yul\":12152:12178   */\n      swap1\n      pop\n        /* \"#utility.yul\":12224:12233   */\n      dup2\n        /* \"#utility.yul\":12218:12222   */\n      dup2\n        /* \"#utility.yul\":12214:12234   */\n      sub\n        /* \"#utility.yul\":12210:12211   */\n      0x00\n        /* \"#utility.yul\":12199:12208   */\n      dup4\n        /* \"#utility.yul\":12195:12212   */\n      add\n        /* \"#utility.yul\":12188:12235   */\n      mstore\n        /* \"#utility.yul\":12252:12383   */\n      tag_342\n        /* \"#utility.yul\":12378:12382   */\n      dup2\n        /* \"#utility.yul\":12252:12383   */\n      tag_221\n      jump\t// in\n    tag_342:\n        /* \"#utility.yul\":12244:12383   */\n      swap1\n      pop\n        /* \"#utility.yul\":11971:12390   */\n      swap2\n      swap1\n      pop\n      jump\t// out\n        /* \"#utility.yul\":12396:12514   */\n    tag_222:\n        /* \"#utility.yul\":12483:12507   */\n      tag_344\n        /* \"#utility.yul\":12501:12506   */\n      dup2\n        /* \"#utility.yul\":12483:12507   */\n      tag_190\n      jump\t// in\n    tag_344:\n        /* \"#utility.yul\":12478:12481   */\n      dup3\n        /* \"#utility.yul\":12471:12508   */\n      mstore\n        /* \"#utility.yul\":12396:12514   */\n      pop\n      pop\n      jump\t// out\n        /* \"#utility.yul\":12520:12852   */\n    tag_103:\n        /* \"#utility.yul\":12641:12645   */\n      0x00\n        /* \"#utility.yul\":12679:12681   */\n      0x40\n        /* \"#utility.yul\":12668:12677   */\n      dup3\n        /* \"#utility.yul\":12664:12682   */\n      add\n        /* \"#utility.yul\":12656:12682   */\n      swap1\n      pop\n        /* \"#utility.yul\":12692:12763   */\n      tag_346\n        /* \"#utility.yul\":12760:12761   */\n      0x00\n        /* \"#utility.yul\":12749:12758   */\n      dup4\n        /* \"#utility.yul\":12745:12762   */\n      add\n        /* \"#utility.yul\":12736:12742   */\n      dup6\n        /* \"#utility.yul\":12692:12763   */\n      tag_222\n      jump\t// in\n    tag_346:\n        /* \"#utility.yul\":12773:12845   */\n      tag_347\n        /* \"#utility.yul\":12841:12843   */\n      0x20\n        /* \"#utility.yul\":12830:12839   */\n      dup4\n        /* \"#utility.yul\":12826:12844   */\n      add\n        /* \"#utility.yul\":12817:12823   */\n      dup5\n        /* \"#utility.yul\":12773:12845   */\n      tag_185\n      jump\t// in\n    tag_347:\n        /* \"#utility.yul\":12520:12852   */\n      swap4\n      swap3\n      pop\n      pop\n      pop\n      jump\t// out\n        /* \"#utility.yul\":12858:13005   */\n    tag_223:\n        /* \"#utility.yul\":12959:12970   */\n      0x00\n        /* \"#utility.yul\":12996:12999   */\n      dup2\n        /* \"#utility.yul\":12981:12999   */\n      swap1\n      pop\n        /* \"#utility.yul\":12858:13005   */\n      swap3\n      swap2\n      pop\n      pop\n      jump\t// out\n        /* \"#utility.yul\":13011:13125   */\n    tag_224:\n      pop\n      jump\t// out\n        /* \"#utility.yul\":13131:13529   */\n    tag_225:\n        /* \"#utility.yul\":13290:13293   */\n      0x00\n        /* \"#utility.yul\":13311:13394   */\n      tag_351\n        /* \"#utility.yul\":13392:13393   */\n      0x00\n        /* \"#utility.yul\":13387:13390   */\n      dup4\n        /* \"#utility.yul\":13311:13394   */\n      tag_223\n      jump\t// in\n    tag_351:\n        /* \"#utility.yul\":13304:13394   */\n      swap2\n      pop\n        /* \"#utility.yul\":13403:13496   */\n      tag_352\n        /* \"#utility.yul\":13492:13495   */\n      dup3\n        /* \"#utility.yul\":13403:13496   */\n      tag_224\n      jump\t// in\n    tag_352:\n        /* \"#utility.yul\":13521:13522   */\n      0x00\n        /* \"#utility.yul\":13516:13519   */\n      dup3\n        /* \"#utility.yul\":13512:13523   */\n      add\n        /* \"#utility.yul\":13505:13523   */\n      swap1\n      pop\n        /* \"#utility.yul\":13131:13529   */\n      swap2\n      swap1\n      pop\n      jump\t// out\n        /* \"#utility.yul\":13535:13914   */\n    tag_105:\n        /* \"#utility.yul\":13719:13722   */\n      0x00\n        /* \"#utility.yul\":13741:13888   */\n      tag_354\n        /* \"#utility.yul\":13884:13887   */\n      dup3\n        /* \"#utility.yul\":13741:13888   */\n      tag_225\n      jump\t// in\n    tag_354:\n        /* \"#utility.yul\":13734:13888   */\n      swap2\n      pop\n        /* \"#utility.yul\":13905:13908   */\n      dup2\n        /* \"#utility.yul\":13898:13908   */\n      swap1\n      pop\n        /* \"#utility.yul\":13535:13914   */\n      swap2\n      swap1\n      pop\n      jump\t// out\n        /* \"#utility.yul\":13920:14093   */\n    tag_226:\n        /* \"#utility.yul\":14060:14085   */\n      0x66616c6c6120656e206c61207472616e73616363696f6e000000000000000000\n        /* \"#utility.yul\":14056:14057   */\n      0x00\n        /* \"#utility.yul\":14048:14054   */\n      dup3\n        /* \"#utility.yul\":14044:14058   */\n      add\n        /* \"#utility.yul\":14037:14086   */\n      mstore\n        /* \"#utility.yul\":13920:14093   */\n      pop\n      jump\t// out\n        /* \"#utility.yul\":14099:14465   */\n    tag_227:\n        /* \"#utility.yul\":14241:14244   */\n      0x00\n        /* \"#utility.yul\":14262:14329   */\n      tag_357\n        /* \"#utility.yul\":14326:14328   */\n      0x17\n        /* \"#utility.yul\":14321:14324   */\n      dup4\n        /* \"#utility.yul\":14262:14329   */\n      tag_211\n      jump\t// in\n    tag_357:\n        /* \"#utility.yul\":14255:14329   */\n      swap2\n      pop\n        /* \"#utility.yul\":14338:14431   */\n      tag_358\n        /* \"#utility.yul\":14427:14430   */\n      dup3\n        /* \"#utility.yul\":14338:14431   */\n      tag_226\n      jump\t// in\n    tag_358:\n        /* \"#utility.yul\":14456:14458   */\n      0x20\n        /* \"#utility.yul\":14451:14454   */\n      dup3\n        /* \"#utility.yul\":14447:14459   */\n      add\n        /* \"#utility.yul\":14440:14459   */\n      swap1\n      pop\n        /* \"#utility.yul\":14099:14465   */\n      swap2\n      swap1\n      pop\n      jump\t// out\n        /* \"#utility.yul\":14471:14890   */\n    tag_111:\n        /* \"#utility.yul\":14637:14641   */\n      0x00\n        /* \"#utility.yul\":14675:14677   */\n      0x20\n        /* \"#utility.yul\":14664:14673   */\n      dup3\n        /* \"#utility.yul\":14660:14678   */\n      add\n        /* \"#utility.yul\":14652:14678   */\n      swap1\n      pop\n        /* \"#utility.yul\":14724:14733   */\n      dup2\n        /* \"#utility.yul\":14718:14722   */\n      dup2\n        /* \"#utility.yul\":14714:14734   */\n      sub\n        /* \"#utility.yul\":14710:14711   */\n      0x00\n        /* \"#utility.yul\":14699:14708   */\n      dup4\n        /* \"#utility.yul\":14695:14712   */\n      add\n        /* \"#utility.yul\":14688:14735   */\n      mstore\n        /* \"#utility.yul\":14752:14883   */\n      tag_360\n        /* \"#utility.yul\":14878:14882   */\n      dup2\n        /* \"#utility.yul\":14752:14883   */\n      tag_227\n      jump\t// in\n    tag_360:\n        /* \"#utility.yul\":14744:14883   */\n      swap1\n      pop\n        /* \"#utility.yul\":14471:14890   */\n      swap2\n      swap1\n      pop\n      jump\t// out\n        /* \"#utility.yul\":14896:15087   */\n    tag_116:\n        /* \"#utility.yul\":14936:14939   */\n      0x00\n        /* \"#utility.yul\":14955:14975   */\n      tag_362\n        /* \"#utility.yul\":14973:14974   */\n      dup3\n        /* \"#utility.yul\":14955:14975   */\n      tag_184\n      jump\t// in\n    tag_362:\n        /* \"#utility.yul\":14950:14975   */\n      swap2\n      pop\n        /* \"#utility.yul\":14989:15009   */\n      tag_363\n        /* \"#utility.yul\":15007:15008   */\n      dup4\n        /* \"#utility.yul\":14989:15009   */\n      tag_184\n      jump\t// in\n    tag_363:\n        /* \"#utility.yul\":14984:15009   */\n      swap3\n      pop\n        /* \"#utility.yul\":15032:15033   */\n      dup3\n        /* \"#utility.yul\":15029:15030   */\n      dup3\n        /* \"#utility.yul\":15025:15034   */\n      add\n        /* \"#utility.yul\":15018:15034   */\n      swap1\n      pop\n        /* \"#utility.yul\":15053:15056   */\n      dup1\n        /* \"#utility.yul\":15050:15051   */\n      dup3\n        /* \"#utility.yul\":15047:15057   */\n      gt\n        /* \"#utility.yul\":15044:15080   */\n      iszero\n      tag_364\n      jumpi\n        /* \"#utility.yul\":15060:15078   */\n      tag_365\n      tag_214\n      jump\t// in\n    tag_365:\n        /* \"#utility.yul\":15044:15080   */\n    tag_364:\n        /* \"#utility.yul\":14896:15087   */\n      swap3\n      swap2\n      pop\n      pop\n      jump\t// out\n        /* \"#utility.yul\":15093:15287   */\n    tag_121:\n        /* \"#utility.yul\":15133:15137   */\n      0x00\n        /* \"#utility.yul\":15153:15173   */\n      tag_367\n        /* \"#utility.yul\":15171:15172   */\n      dup3\n        /* \"#utility.yul\":15153:15173   */\n      tag_184\n      jump\t// in\n    tag_367:\n        /* \"#utility.yul\":15148:15173   */\n      swap2\n      pop\n        /* \"#utility.yul\":15187:15207   */\n      tag_368\n        /* \"#utility.yul\":15205:15206   */\n      dup4\n        /* \"#utility.yul\":15187:15207   */\n      tag_184\n      jump\t// in\n    tag_368:\n        /* \"#utility.yul\":15182:15207   */\n      swap3\n      pop\n        /* \"#utility.yul\":15231:15232   */\n      dup3\n        /* \"#utility.yul\":15228:15229   */\n      dup3\n        /* \"#utility.yul\":15224:15233   */\n      sub\n        /* \"#utility.yul\":15216:15233   */\n      swap1\n      pop\n        /* \"#utility.yul\":15255:15256   */\n      dup2\n        /* \"#utility.yul\":15249:15253   */\n      dup2\n        /* \"#utility.yul\":15246:15257   */\n      gt\n        /* \"#utility.yul\":15243:15280   */\n      iszero\n      tag_369\n      jumpi\n        /* \"#utility.yul\":15260:15278   */\n      tag_370\n      tag_214\n      jump\t// in\n    tag_370:\n        /* \"#utility.yul\":15243:15280   */\n    tag_369:\n        /* \"#utility.yul\":15093:15287   */\n      swap3\n      swap2\n      pop\n      pop\n      jump\t// out\n        /* \"#utility.yul\":15293:15464   */\n    tag_228:\n        /* \"#utility.yul\":15433:15456   */\n      0x6465766f6c7563696f6e65732063657272616461730000000000000000000000\n        /* \"#utility.yul\":15429:15430   */\n      0x00\n        /* \"#utility.yul\":15421:15427   */\n      dup3\n        /* \"#utility.yul\":15417:15431   */\n      add\n        /* \"#utility.yul\":15410:15457   */\n      mstore\n        /* \"#utility.yul\":15293:15464   */\n      pop\n      jump\t// out\n        /* \"#utility.yul\":15470:15836   */\n    tag_229:\n        /* \"#utility.yul\":15612:15615   */\n      0x00\n        /* \"#utility.yul\":15633:15700   */\n      tag_373\n        /* \"#utility.yul\":15697:15699   */\n      0x15\n        /* \"#utility.yul\":15692:15695   */\n      dup4\n        /* \"#utility.yul\":15633:15700   */\n      tag_211\n      jump\t// in\n    tag_373:\n        /* \"#utility.yul\":15626:15700   */\n      swap2\n      pop\n        /* \"#utility.yul\":15709:15802   */\n      tag_374\n        /* \"#utility.yul\":15798:15801   */\n      dup3\n        /* \"#utility.yul\":15709:15802   */\n      tag_228\n      jump\t// in\n    tag_374:\n        /* \"#utility.yul\":15827:15829   */\n      0x20\n        /* \"#utility.yul\":15822:15825   */\n      dup3\n        /* \"#utility.yul\":15818:15830   */\n      add\n        /* \"#utility.yul\":15811:15830   */\n      swap1\n      pop\n        /* \"#utility.yul\":15470:15836   */\n      swap2\n      swap1\n      pop\n      jump\t// out\n        /* \"#utility.yul\":15842:16261   */\n    tag_131:\n        /* \"#utility.yul\":16008:16012   */\n      0x00\n        /* \"#utility.yul\":16046:16048   */\n      0x20\n        /* \"#utility.yul\":16035:16044   */\n      dup3\n        /* \"#utility.yul\":16031:16049   */\n      add\n        /* \"#utility.yul\":16023:16049   */\n      swap1\n      pop\n        /* \"#utility.yul\":16095:16104   */\n      dup2\n        /* \"#utility.yul\":16089:16093   */\n      dup2\n        /* \"#utility.yul\":16085:16105   */\n      sub\n        /* \"#utility.yul\":16081:16082   */\n      0x00\n        /* \"#utility.yul\":16070:16079   */\n      dup4\n        /* \"#utility.yul\":16066:16083   */\n      add\n        /* \"#utility.yul\":16059:16106   */\n      mstore\n        /* \"#utility.yul\":16123:16254   */\n      tag_376\n        /* \"#utility.yul\":16249:16253   */\n      dup2\n        /* \"#utility.yul\":16123:16254   */\n      tag_229\n      jump\t// in\n    tag_376:\n        /* \"#utility.yul\":16115:16254   */\n      swap1\n      pop\n        /* \"#utility.yul\":15842:16261   */\n      swap2\n      swap1\n      pop\n      jump\t// out\n        /* \"#utility.yul\":16267:16494   */\n    tag_230:\n        /* \"#utility.yul\":16407:16441   */\n      0x6e6f207469656e6520737566696369656e74657320666f6e646f732070617261\n        /* \"#utility.yul\":16403:16404   */\n      0x00\n        /* \"#utility.yul\":16395:16401   */\n      dup3\n        /* \"#utility.yul\":16391:16405   */\n      add\n        /* \"#utility.yul\":16384:16442   */\n      mstore\n        /* \"#utility.yul\":16476:16486   */\n      0x2072657469726172000000000000000000000000000000000000000000000000\n        /* \"#utility.yul\":16471:16473   */\n      0x20\n        /* \"#utility.yul\":16463:16469   */\n      dup3\n        /* \"#utility.yul\":16459:16474   */\n      add\n        /* \"#utility.yul\":16452:16487   */\n      mstore\n        /* \"#utility.yul\":16267:16494   */\n      pop\n      jump\t// out\n        /* \"#utility.yul\":16500:16866   */\n    tag_231:\n        /* \"#utility.yul\":16642:16645   */\n      0x00\n        /* \"#utility.yul\":16663:16730   */\n      tag_379\n        /* \"#utility.yul\":16727:16729   */\n      0x28\n        /* \"#utility.yul\":16722:16725   */\n      dup4\n        /* \"#utility.yul\":16663:16730   */\n      tag_211\n      jump\t// in\n    tag_379:\n        /* \"#utility.yul\":16656:16730   */\n      swap2\n      pop\n        /* \"#utility.yul\":16739:16832   */\n      tag_380\n        /* \"#utility.yul\":16828:16831   */\n      dup3\n        /* \"#utility.yul\":16739:16832   */\n      tag_230\n      jump\t// in\n    tag_380:\n        /* \"#utility.yul\":16857:16859   */\n      0x40\n        /* \"#utility.yul\":16852:16855   */\n      dup3\n        /* \"#utility.yul\":16848:16860   */\n      add\n        /* \"#utility.yul\":16841:16860   */\n      swap1\n      pop\n        /* \"#utility.yul\":16500:16866   */\n      swap2\n      swap1\n      pop\n      jump\t// out\n        /* \"#utility.yul\":16872:17291   */\n    tag_138:\n        /* \"#utility.yul\":17038:17042   */\n      0x00\n        /* \"#utility.yul\":17076:17078   */\n      0x20\n        /* \"#utility.yul\":17065:17074   */\n      dup3\n        /* \"#utility.yul\":17061:17079   */\n      add\n        /* \"#utility.yul\":17053:17079   */\n      swap1\n      pop\n        /* \"#utility.yul\":17125:17134   */\n      dup2\n        /* \"#utility.yul\":17119:17123   */\n      dup2\n        /* \"#utility.yul\":17115:17135   */\n      sub\n        /* \"#utility.yul\":17111:17112   */\n      0x00\n        /* \"#utility.yul\":17100:17109   */\n      dup4\n        /* \"#utility.yul\":17096:17113   */\n      add\n        /* \"#utility.yul\":17089:17136   */\n      mstore\n        /* \"#utility.yul\":17153:17284   */\n      tag_382\n        /* \"#utility.yul\":17279:17283   */\n      dup2\n        /* \"#utility.yul\":17153:17284   */\n      tag_231\n      jump\t// in\n    tag_382:\n        /* \"#utility.yul\":17145:17284   */\n      swap1\n      pop\n        /* \"#utility.yul\":16872:17291   */\n      swap2\n      swap1\n      pop\n      jump\t// out\n        /* \"#utility.yul\":17297:17462   */\n    tag_232:\n        /* \"#utility.yul\":17437:17454   */\n      0x6e6f207469656e6520666f6e646f730000000000000000000000000000000000\n        /* \"#utility.yul\":17433:17434   */\n      0x00\n        /* \"#utility.yul\":17425:17431   */\n      dup3\n        /* \"#utility.yul\":17421:17435   */\n      add\n        /* \"#utility.yul\":17414:17455   */\n      mstore\n        /* \"#utility.yul\":17297:17462   */\n      pop\n      jump\t// out\n        /* \"#utility.yul\":17468:17834   */\n    tag_233:\n        /* \"#utility.yul\":17610:17613   */\n      0x00\n        /* \"#utility.yul\":17631:17698   */\n      tag_385\n        /* \"#utility.yul\":17695:17697   */\n      0x0f\n        /* \"#utility.yul\":17690:17693   */\n      dup4\n        /* \"#utility.yul\":17631:17698   */\n      tag_211\n      jump\t// in\n    tag_385:\n        /* \"#utility.yul\":17624:17698   */\n      swap2\n      pop\n        /* \"#utility.yul\":17707:17800   */\n      tag_386\n        /* \"#utility.yul\":17796:17799   */\n      dup3\n        /* \"#utility.yul\":17707:17800   */\n      tag_232\n      jump\t// in\n    tag_386:\n        /* \"#utility.yul\":17825:17827   */\n      0x20\n        /* \"#utility.yul\":17820:17823   */\n      dup3\n        /* \"#utility.yul\":17816:17828   */\n      add\n        /* \"#utility.yul\":17809:17828   */\n      swap1\n      pop\n        /* \"#utility.yul\":17468:17834   */\n      swap2\n      swap1\n      pop\n      jump\t// out\n        /* \"#utility.yul\":17840:18259   */\n    tag_141:\n        /* \"#utility.yul\":18006:18010   */\n      0x00\n        /* \"#utility.yul\":18044:18046   */\n      0x20\n        /* \"#utility.yul\":18033:18042   */\n      dup3\n        /* \"#utility.yul\":18029:18047   */\n      add\n        /* \"#utility.yul\":18021:18047   */\n      swap1\n      pop\n        /* \"#utility.yul\":18093:18102   */\n      dup2\n        /* \"#utility.yul\":18087:18091   */\n      dup2\n        /* \"#utility.yul\":18083:18103   */\n      sub\n        /* \"#utility.yul\":18079:18080   */\n      0x00\n        /* \"#utility.yul\":18068:18077   */\n      dup4\n        /* \"#utility.yul\":18064:18081   */\n      add\n        /* \"#utility.yul\":18057:18104   */\n      mstore\n        /* \"#utility.yul\":18121:18252   */\n      tag_388\n        /* \"#utility.yul\":18247:18251   */\n      dup2\n        /* \"#utility.yul\":18121:18252   */\n      tag_233\n      jump\t// in\n    tag_388:\n        /* \"#utility.yul\":18113:18252   */\n      swap1\n      pop\n        /* \"#utility.yul\":17840:18259   */\n      swap2\n      swap1\n      pop\n      jump\t// out\n        /* \"#utility.yul\":18265:18560   */\n    tag_234:\n        /* \"#utility.yul\":18405:18439   */\n      0x70756564652072657469726172206861737461206c61206f666572746120756c\n        /* \"#utility.yul\":18401:18402   */\n      0x00\n        /* \"#utility.yul\":18393:18399   */\n      dup3\n        /* \"#utility.yul\":18389:18403   */\n      add\n        /* \"#utility.yul\":18382:18440   */\n      mstore\n        /* \"#utility.yul\":18474:18508   */\n      0x74696d612e2054656e657220656e206375656e746120656c2032252064652063\n        /* \"#utility.yul\":18469:18471   */\n      0x20\n        /* \"#utility.yul\":18461:18467   */\n      dup3\n        /* \"#utility.yul\":18457:18472   */\n      add\n        /* \"#utility.yul\":18450:18509   */\n      mstore\n        /* \"#utility.yul\":18543:18552   */\n      0x6f6d6973696f6e00000000000000000000000000000000000000000000000000\n        /* \"#utility.yul\":18538:18540   */\n      0x40\n        /* \"#utility.yul\":18530:18536   */\n      dup3\n        /* \"#utility.yul\":18526:18541   */\n      add\n        /* \"#utility.yul\":18519:18553   */\n      mstore\n        /* \"#utility.yul\":18265:18560   */\n      pop\n      jump\t// out\n        /* \"#utility.yul\":18566:18932   */\n    tag_235:\n        /* \"#utility.yul\":18708:18711   */\n      0x00\n        /* \"#utility.yul\":18729:18796   */\n      tag_391\n        /* \"#utility.yul\":18793:18795   */\n      0x47\n        /* \"#utility.yul\":18788:18791   */\n      dup4\n        /* \"#utility.yul\":18729:18796   */\n      tag_211\n      jump\t// in\n    tag_391:\n        /* \"#utility.yul\":18722:18796   */\n      swap2\n      pop\n        /* \"#utility.yul\":18805:18898   */\n      tag_392\n        /* \"#utility.yul\":18894:18897   */\n      dup3\n        /* \"#utility.yul\":18805:18898   */\n      tag_234\n      jump\t// in\n    tag_392:\n        /* \"#utility.yul\":18923:18925   */\n      0x60\n        /* \"#utility.yul\":18918:18921   */\n      dup3\n        /* \"#utility.yul\":18914:18926   */\n      add\n        /* \"#utility.yul\":18907:18926   */\n      swap1\n      pop\n        /* \"#utility.yul\":18566:18932   */\n      swap2\n      swap1\n      pop\n      jump\t// out\n        /* \"#utility.yul\":18938:19357   */\n    tag_166:\n        /* \"#utility.yul\":19104:19108   */\n      0x00\n        /* \"#utility.yul\":19142:19144   */\n      0x20\n        /* \"#utility.yul\":19131:19140   */\n      dup3\n        /* \"#utility.yul\":19127:19145   */\n      add\n        /* \"#utility.yul\":19119:19145   */\n      swap1\n      pop\n        /* \"#utility.yul\":19191:19200   */\n      dup2\n        /* \"#utility.yul\":19185:19189   */\n      dup2\n        /* \"#utility.yul\":19181:19201   */\n      sub\n        /* \"#utility.yul\":19177:19178   */\n      0x00\n        /* \"#utility.yul\":19166:19175   */\n      dup4\n        /* \"#utility.yul\":19162:19179   */\n      add\n        /* \"#utility.yul\":19155:19202   */\n      mstore\n        /* \"#utility.yul\":19219:19350   */\n      tag_394\n        /* \"#utility.yul\":19345:19349   */\n      dup2\n        /* \"#utility.yul\":19219:19350   */\n      tag_235\n      jump\t// in\n    tag_394:\n        /* \"#utility.yul\":19211:19350   */\n      swap1\n      pop\n        /* \"#utility.yul\":18938:19357   */\n      swap2\n      swap1\n      pop\n      jump\t// out\n        /* \"#utility.yul\":19363:19543   */\n    tag_182:\n        /* \"#utility.yul\":19411:19488   */\n      0x4e487b7100000000000000000000000000000000000000000000000000000000\n        /* \"#utility.yul\":19408:19409   */\n      0x00\n        /* \"#utility.yul\":19401:19489   */\n      mstore\n        /* \"#utility.yul\":19508:19512   */\n      0x32\n        /* \"#utility.yul\":19505:19506   */\n      0x04\n        /* \"#utility.yul\":19498:19513   */\n      mstore\n        /* \"#utility.yul\":19532:19536   */\n      0x24\n        /* \"#utility.yul\":19529:19530   */\n      0x00\n        /* \"#utility.yul\":19522:19537   */\n      revert\n\n    auxdata: 0xa26469706673582212200e5d2bbc833223463230e2b39eed4a881d11812b06ba1977084ab2cca328736d64736f6c634300081e0033\n}\n",
				"bytecode": {
					"linkReferences": {},
					"object": "6080604052600154600655348015610015575f5ffd5b505f5f5f6101000a81548160ff0219169083151502179055505f5f60016101000a81548160ff0219169083151502179055506001808190555061012c4261005c91906100e4565b600281905550426003819055503360045f6101000a81548173ffffffffffffffffffffffffffffffffffffffff021916908373ffffffffffffffffffffffffffffffffffffffff160217905550610117565b5f819050919050565b7f4e487b71000000000000000000000000000000000000000000000000000000005f52601160045260245ffd5b5f6100ee826100ae565b91506100f9836100ae565b9250828201905080821115610111576101106100b7565b5b92915050565b6119fb806101245f395ff3fe6080604052600436106100c5575f3560e01c8063b456ef041161007e578063c7962b5711610058578063c7962b571461020e578063e60216b814610238578063efebcd1f14610262578063f5d2db261461027e576100c6565b8063b456ef0414610190578063b53c107b146101ba578063b9c29937146101e4576100c6565b80630851eac2146100c85780630b76c441146100de57806321c6e2df1461010857806327391994146101325780633c3796421461015c57806354c7d80614610186576100c6565b5b005b3480156100d3575f5ffd5b506100dc61029a565b005b3480156100e9575f5ffd5b506100f261035e565b6040516100ff91906110df565b60405180910390f35b348015610113575f5ffd5b5061011c610364565b60405161012991906110df565b60405180910390f35b34801561013d575f5ffd5b5061014661036a565b60405161015391906110df565b60405180910390f35b348015610167575f5ffd5b506101706103ae565b60405161017d919061121b565b60405180910390f35b61018e610468565b005b34801561019b575f5ffd5b506101a461084b565b6040516101b19190611255565b60405180910390f35b3480156101c5575f5ffd5b506101ce61085c565b6040516101db91906110df565b60405180910390f35b3480156101ef575f5ffd5b506101f8610863565b60405161020591906110df565b60405180910390f35b348015610219575f5ffd5b50610222610894565b60405161022f9190611316565b60405180910390f35b348015610243575f5ffd5b5061024c610925565b60405161025991906110df565b60405180910390f35b61027c60048036038101906102779190611375565b61092b565b005b61029860048036038101906102939190611375565b610c25565b005b60045f9054906101000a900473ffffffffffffffffffffffffffffffffffffffff1673ffffffffffffffffffffffffffffffffffffffff163373ffffffffffffffffffffffffffffffffffffffff1614610329576040517f08c379a0000000000000000000000000000000000000000000000000000000008152600401610320906113fa565b60405180910390fd5b60015f5f6101000a81548160ff02191690831515021790555060015f60016101000a81548160ff021916908315150217905550565b60025481565b60015481565b5f60055f3373ffffffffffffffffffffffffffffffffffffffff1673ffffffffffffffffffffffffffffffffffffffff1681526020019081526020015f2054905090565b6060600b805480602002602001604051908101604052809291908181526020015f905b8282101561045f578382905f5260205f2090600202016040518060400160405290815f82015f9054906101000a900473ffffffffffffffffffffffffffffffffffffffff1673ffffffffffffffffffffffffffffffffffffffff1673ffffffffffffffffffffffffffffffffffffffff168152602001600182015481525050815260200190600101906103d1565b50505050905090565b346064606960065461047a9190611445565b61048491906114b3565b81116104c5576040517f08c379a00000000000000000000000000000000000000000000000000000000081526004016104bc90611553565b60405180910390fd5b60045f9054906101000a900473ffffffffffffffffffffffffffffffffffffffff1673ffffffffffffffffffffffffffffffffffffffff163373ffffffffffffffffffffffffffffffffffffffff1603610554576040517f08c379a000000000000000000000000000000000000000000000000000000000815260040161054b906115bb565b60405180910390fd5b5f15155f5f9054906101000a900460ff161515146105a7576040517f08c379a000000000000000000000000000000000000000000000000000000000815260040161059e90611623565b60405180910390fd5b600254421061062a577fa3a65b403bdae88eb037f4ecc1d619f436fc3ef6bcbbee3787757164e82883f260075f9054906101000a900473ffffffffffffffffffffffffffffffffffffffff16600654604051610604929190611650565b60405180910390a160015f5f6101000a81548160ff021916908315150217905550610848565b5f60045f9054906101000a900473ffffffffffffffffffffffffffffffffffffffff1673ffffffffffffffffffffffffffffffffffffffff1634604051610670906116a4565b5f6040518083038185875af1925050503d805f81146106aa576040519150601f19603f3d011682016040523d82523d5f602084013e6106af565b606091505b50509050806106f3576040517f08c379a00000000000000000000000000000000000000000000000000000000081526004016106ea90611702565b60405180910390fd5b6106fd3334610f74565b60085f3373ffffffffffffffffffffffffffffffffffffffff1673ffffffffffffffffffffffffffffffffffffffff1681526020019081526020015f2034908060018154018082558091505060019003905f5260205f20015f90919091909150553460055f3373ffffffffffffffffffffffffffffffffffffffff1673ffffffffffffffffffffffffffffffffffffffff1681526020019081526020015f205f8282546107aa9190611720565b92505081905550346006819055503360075f6101000a81548173ffffffffffffffffffffffffffffffffffffffff021916908373ffffffffffffffffffffffffffffffffffffffff1602179055503373ffffffffffffffffffffffffffffffffffffffff167fedfd1bd0e927fad8ba6298334c473be61786deb0525a05924556caad8555c4e03460405161083e91906110df565b60405180910390a2505b50565b5f5f9054906101000a900460ff1681565b5f42905090565b5f5f426002546108739190611753565b1061088d57426002546108869190611753565b9050610891565b5f90505b90565b606060085f3373ffffffffffffffffffffffffffffffffffffffff1673ffffffffffffffffffffffffffffffffffffffff1681526020019081526020015f2080548060200260200160405190810160405280929190818152602001828054801561091b57602002820191905f5260205f20905b815481526020019060010190808311610907575b5050505050905090565b60035481565b600115155f60019054906101000a900460ff16151514610980576040517f08c379a0000000000000000000000000000000000000000000000000000000008152600401610977906117d0565b60405180910390fd5b60045f9054906101000a900473ffffffffffffffffffffffffffffffffffffffff1673ffffffffffffffffffffffffffffffffffffffff163373ffffffffffffffffffffffffffffffffffffffff1614610a0f576040517f08c379a0000000000000000000000000000000000000000000000000000000008152600401610a06906113fa565b60405180910390fd5b60055f8273ffffffffffffffffffffffffffffffffffffffff1673ffffffffffffffffffffffffffffffffffffffff1681526020019081526020015f2054341115610a8f576040517f08c379a0000000000000000000000000000000000000000000000000000000008152600401610a869061185e565b60405180910390fd5b5f60055f8373ffffffffffffffffffffffffffffffffffffffff1673ffffffffffffffffffffffffffffffffffffffff1681526020019081526020015f205411610b0e576040517f08c379a0000000000000000000000000000000000000000000000000000000008152600401610b05906118c6565b60405180910390fd5b5f8173ffffffffffffffffffffffffffffffffffffffff166064606234610b359190611445565b610b3f91906114b3565b604051610b4b906116a4565b5f6040518083038185875af1925050503d805f8114610b85576040519150601f19603f3d011682016040523d82523d5f602084013e610b8a565b606091505b5050905080610bce576040517f08c379a0000000000000000000000000000000000000000000000000000000008152600401610bc590611702565b60405180910390fd5b3460055f8473ffffffffffffffffffffffffffffffffffffffff1673ffffffffffffffffffffffffffffffffffffffff1681526020019081526020015f205f828254610c1a9190611753565b925050819055505050565b60045f9054906101000a900473ffffffffffffffffffffffffffffffffffffffff1673ffffffffffffffffffffffffffffffffffffffff163373ffffffffffffffffffffffffffffffffffffffff1614610cb4576040517f08c379a0000000000000000000000000000000000000000000000000000000008152600401610cab906113fa565b60405180910390fd5b60055f8273ffffffffffffffffffffffffffffffffffffffff1673ffffffffffffffffffffffffffffffffffffffff1681526020019081526020015f2054341115610d34576040517f08c379a0000000000000000000000000000000000000000000000000000000008152600401610d2b9061185e565b60405180910390fd5b5f60055f8373ffffffffffffffffffffffffffffffffffffffff1673ffffffffffffffffffffffffffffffffffffffff1681526020019081526020015f205411610db3576040517f08c379a0000000000000000000000000000000000000000000000000000000008152600401610daa906118c6565b60405180910390fd5b610dbc8161101b565b60055f8373ffffffffffffffffffffffffffffffffffffffff1673ffffffffffffffffffffffffffffffffffffffff1681526020019081526020015f2054610e049190611753565b6064606634610e139190611445565b610e1d91906114b3565b10610e5d576040517f08c379a0000000000000000000000000000000000000000000000000000000008152600401610e549061197a565b60405180910390fd5b5f8173ffffffffffffffffffffffffffffffffffffffff166064606234610e849190611445565b610e8e91906114b3565b604051610e9a906116a4565b5f6040518083038185875af1925050503d805f8114610ed4576040519150601f19603f3d011682016040523d82523d5f602084013e610ed9565b606091505b5050905080610f1d576040517f08c379a0000000000000000000000000000000000000000000000000000000008152600401610f1490611702565b60405180910390fd5b3460055f8473ffffffffffffffffffffffffffffffffffffffff1673ffffffffffffffffffffffffffffffffffffffff1681526020019081526020015f205f828254610f699190611753565b925050819055505050565b600b60405180604001604052808473ffffffffffffffffffffffffffffffffffffffff16815260200183815250908060018154018082558091505060019003905f5260205f2090600202015f909190919091505f820151815f015f6101000a81548173ffffffffffffffffffffffffffffffffffffffff021916908373ffffffffffffffffffffffffffffffffffffffff1602179055506020820151816001015550505050565b5f60085f8373ffffffffffffffffffffffffffffffffffffffff1673ffffffffffffffffffffffffffffffffffffffff1681526020019081526020015f20600160085f8573ffffffffffffffffffffffffffffffffffffffff1673ffffffffffffffffffffffffffffffffffffffff1681526020019081526020015f20805490506110a69190611753565b815481106110b7576110b6611998565b5b905f5260205f2001549050919050565b5f819050919050565b6110d9816110c7565b82525050565b5f6020820190506110f25f8301846110d0565b92915050565b5f81519050919050565b5f82825260208201905092915050565b5f819050602082019050919050565b5f73ffffffffffffffffffffffffffffffffffffffff82169050919050565b5f61114a82611121565b9050919050565b61115a81611140565b82525050565b611169816110c7565b82525050565b604082015f8201516111835f850182611151565b5060208201516111966020850182611160565b50505050565b5f6111a7838361116f565b60408301905092915050565b5f602082019050919050565b5f6111c9826110f8565b6111d38185611102565b93506111de83611112565b805f5b8381101561120e5781516111f5888261119c565b9750611200836111b3565b9250506001810190506111e1565b5085935050505092915050565b5f6020820190508181035f83015261123381846111bf565b905092915050565b5f8115159050919050565b61124f8161123b565b82525050565b5f6020820190506112685f830184611246565b92915050565b5f81519050919050565b5f82825260208201905092915050565b5f819050602082019050919050565b5f6112a28383611160565b60208301905092915050565b5f602082019050919050565b5f6112c48261126e565b6112ce8185611278565b93506112d983611288565b805f5b838110156113095781516112f08882611297565b97506112fb836112ae565b9250506001810190506112dc565b5085935050505092915050565b5f6020820190508181035f83015261132e81846112ba565b905092915050565b5f5ffd5b5f61134482611121565b9050919050565b6113548161133a565b811461135e575f5ffd5b50565b5f8135905061136f8161134b565b92915050565b5f6020828403121561138a57611389611336565b5b5f61139784828501611361565b91505092915050565b5f82825260208201905092915050565b7f6e6f206573204f776e65722e2041636365736f207265737472696e6769646f005f82015250565b5f6113e4601f836113a0565b91506113ef826113b0565b602082019050919050565b5f6020820190508181035f830152611411816113d8565b9050919050565b7f4e487b71000000000000000000000000000000000000000000000000000000005f52601160045260245ffd5b5f61144f826110c7565b915061145a836110c7565b9250828202611468816110c7565b9150828204841483151761147f5761147e611418565b5b5092915050565b7f4e487b71000000000000000000000000000000000000000000000000000000005f52601260045260245ffd5b5f6114bd826110c7565b91506114c8836110c7565b9250826114d8576114d7611486565b5b828204905092915050565b7f6c61206f6665727461206e6f2073757065726120706f722035252061206c61205f8201527f6d617320616c7461000000000000000000000000000000000000000000000000602082015250565b5f61153d6028836113a0565b9150611548826114e3565b604082019050919050565b5f6020820190508181035f83015261156a81611531565b9050919050565b7f6573204f776e65722e204e6f207075656465206f6665727461720000000000005f82015250565b5f6115a5601a836113a0565b91506115b082611571565b602082019050919050565b5f6020820190508181035f8301526115d281611599565b9050919050565b7f737562617374612066696e616c697a61646100000000000000000000000000005f82015250565b5f61160d6012836113a0565b9150611618826115d9565b602082019050919050565b5f6020820190508181035f83015261163a81611601565b9050919050565b61164a81611140565b82525050565b5f6040820190506116635f830185611641565b61167060208301846110d0565b9392505050565b5f81905092915050565b50565b5f61168f5f83611677565b915061169a82611681565b5f82019050919050565b5f6116ae82611684565b9150819050919050565b7f66616c6c6120656e206c61207472616e73616363696f6e0000000000000000005f82015250565b5f6116ec6017836113a0565b91506116f7826116b8565b602082019050919050565b5f6020820190508181035f830152611719816116e0565b9050919050565b5f61172a826110c7565b9150611735836110c7565b925082820190508082111561174d5761174c611418565b5b92915050565b5f61175d826110c7565b9150611768836110c7565b92508282039050818111156117805761177f611418565b5b92915050565b7f6465766f6c7563696f6e657320636572726164617300000000000000000000005f82015250565b5f6117ba6015836113a0565b91506117c582611786565b602082019050919050565b5f6020820190508181035f8301526117e7816117ae565b9050919050565b7f6e6f207469656e6520737566696369656e74657320666f6e646f7320706172615f8201527f2072657469726172000000000000000000000000000000000000000000000000602082015250565b5f6118486028836113a0565b9150611853826117ee565b604082019050919050565b5f6020820190508181035f8301526118758161183c565b9050919050565b7f6e6f207469656e6520666f6e646f7300000000000000000000000000000000005f82015250565b5f6118b0600f836113a0565b91506118bb8261187c565b602082019050919050565b5f6020820190508181035f8301526118dd816118a4565b9050919050565b7f70756564652072657469726172206861737461206c61206f666572746120756c5f8201527f74696d612e2054656e657220656e206375656e746120656c203225206465206360208201527f6f6d6973696f6e00000000000000000000000000000000000000000000000000604082015250565b5f6119646047836113a0565b915061196f826118e4565b606082019050919050565b5f6020820190508181035f83015261199181611958565b9050919050565b7f4e487b71000000000000000000000000000000000000000000000000000000005f52603260045260245ffdfea26469706673582212200e5d2bbc833223463230e2b39eed4a881d11812b06ba1977084ab2cca328736d64736f6c634300081e0033",
					"opcodes": "PUSH1 0x80 PUSH1 0x40 MSTORE PUSH1 0x1 SLOAD PUSH1 0x6 SSTORE CALLVALUE DUP1 ISZERO PUSH2 0x15 JUMPI PUSH0 PUSH0 REVERT JUMPDEST POP PUSH0 PUSH0 PUSH0 PUSH2 0x100 EXP DUP2 SLOAD DUP2 PUSH1 0xFF MUL NOT AND SWAP1 DUP4 ISZERO ISZERO MUL OR SWAP1 SSTORE POP PUSH0 PUSH0 PUSH1 0x1 PUSH2 0x100 EXP DUP2 SLOAD DUP2 PUSH1 0xFF MUL NOT AND SWAP1 DUP4 ISZERO ISZERO MUL OR SWAP1 SSTORE POP PUSH1 0x1 DUP1 DUP2 SWAP1 SSTORE POP PUSH2 0x12C TIMESTAMP PUSH2 0x5C SWAP2 SWAP1 PUSH2 0xE4 JUMP JUMPDEST PUSH1 0x2 DUP2 SWAP1 SSTORE POP TIMESTAMP PUSH1 0x3 DUP2 SWAP1 SSTORE POP CALLER PUSH1 0x4 PUSH0 PUSH2 0x100 EXP DUP2 SLOAD DUP2 PUSH20 0xFFFFFFFFFFFFFFFFFFFFFFFFFFFFFFFFFFFFFFFF MUL NOT AND SWAP1 DUP4 PUSH20 0xFFFFFFFFFFFFFFFFFFFFFFFFFFFFFFFFFFFFFFFF AND MUL OR SWAP1 SSTORE POP PUSH2 0x117 JUMP JUMPDEST PUSH0 DUP2 SWAP1 POP SWAP2 SWAP1 POP JUMP JUMPDEST PUSH32 0x4E487B7100000000000000000000000000000000000000000000000000000000 PUSH0 MSTORE PUSH1 0x11 PUSH1 0x4 MSTORE PUSH1 0x24 PUSH0 REVERT JUMPDEST PUSH0 PUSH2 0xEE DUP3 PUSH2 0xAE JUMP JUMPDEST SWAP2 POP PUSH2 0xF9 DUP4 PUSH2 0xAE JUMP JUMPDEST SWAP3 POP DUP3 DUP3 ADD SWAP1 POP DUP1 DUP3 GT ISZERO PUSH2 0x111 JUMPI PUSH2 0x110 PUSH2 0xB7 JUMP JUMPDEST JUMPDEST SWAP3 SWAP2 POP POP JUMP JUMPDEST PUSH2 0x19FB DUP1 PUSH2 0x124 PUSH0 CODECOPY PUSH0 RETURN INVALID PUSH1 0x80 PUSH1 0x40 MSTORE PUSH1 0x4 CALLDATASIZE LT PUSH2 0xC5 JUMPI PUSH0 CALLDATALOAD PUSH1 0xE0 SHR DUP1 PUSH4 0xB456EF04 GT PUSH2 0x7E JUMPI DUP1 PUSH4 0xC7962B57 GT PUSH2 0x58 JUMPI DUP1 PUSH4 0xC7962B57 EQ PUSH2 0x20E JUMPI DUP1 PUSH4 0xE60216B8 EQ PUSH2 0x238 JUMPI DUP1 PUSH4 0xEFEBCD1F EQ PUSH2 0x262 JUMPI DUP1 PUSH4 0xF5D2DB26 EQ PUSH2 0x27E JUMPI PUSH2 0xC6 JUMP JUMPDEST DUP1 PUSH4 0xB456EF04 EQ PUSH2 0x190 JUMPI DUP1 PUSH4 0xB53C107B EQ PUSH2 0x1BA JUMPI DUP1 PUSH4 0xB9C29937 EQ PUSH2 0x1E4 JUMPI PUSH2 0xC6 JUMP JUMPDEST DUP1 PUSH4 0x851EAC2 EQ PUSH2 0xC8 JUMPI DUP1 PUSH4 0xB76C441 EQ PUSH2 0xDE JUMPI DUP1 PUSH4 0x21C6E2DF EQ PUSH2 0x108 JUMPI DUP1 PUSH4 0x27391994 EQ PUSH2 0x132 JUMPI DUP1 PUSH4 0x3C379642 EQ PUSH2 0x15C JUMPI DUP1 PUSH4 0x54C7D806 EQ PUSH2 0x186 JUMPI PUSH2 0xC6 JUMP JUMPDEST JUMPDEST STOP JUMPDEST CALLVALUE DUP1 ISZERO PUSH2 0xD3 JUMPI PUSH0 PUSH0 REVERT JUMPDEST POP PUSH2 0xDC PUSH2 0x29A JUMP JUMPDEST STOP JUMPDEST CALLVALUE DUP1 ISZERO PUSH2 0xE9 JUMPI PUSH0 PUSH0 REVERT JUMPDEST POP PUSH2 0xF2 PUSH2 0x35E JUMP JUMPDEST PUSH1 0x40 MLOAD PUSH2 0xFF SWAP2 SWAP1 PUSH2 0x10DF JUMP JUMPDEST PUSH1 0x40 MLOAD DUP1 SWAP2 SUB SWAP1 RETURN JUMPDEST CALLVALUE DUP1 ISZERO PUSH2 0x113 JUMPI PUSH0 PUSH0 REVERT JUMPDEST POP PUSH2 0x11C PUSH2 0x364 JUMP JUMPDEST PUSH1 0x40 MLOAD PUSH2 0x129 SWAP2 SWAP1 PUSH2 0x10DF JUMP JUMPDEST PUSH1 0x40 MLOAD DUP1 SWAP2 SUB SWAP1 RETURN JUMPDEST CALLVALUE DUP1 ISZERO PUSH2 0x13D JUMPI PUSH0 PUSH0 REVERT JUMPDEST POP PUSH2 0x146 PUSH2 0x36A JUMP JUMPDEST PUSH1 0x40 MLOAD PUSH2 0x153 SWAP2 SWAP1 PUSH2 0x10DF JUMP JUMPDEST PUSH1 0x40 MLOAD DUP1 SWAP2 SUB SWAP1 RETURN JUMPDEST CALLVALUE DUP1 ISZERO PUSH2 0x167 JUMPI PUSH0 PUSH0 REVERT JUMPDEST POP PUSH2 0x170 PUSH2 0x3AE JUMP JUMPDEST PUSH1 0x40 MLOAD PUSH2 0x17D SWAP2 SWAP1 PUSH2 0x121B JUMP JUMPDEST PUSH1 0x40 MLOAD DUP1 SWAP2 SUB SWAP1 RETURN JUMPDEST PUSH2 0x18E PUSH2 0x468 JUMP JUMPDEST STOP JUMPDEST CALLVALUE DUP1 ISZERO PUSH2 0x19B JUMPI PUSH0 PUSH0 REVERT JUMPDEST POP PUSH2 0x1A4 PUSH2 0x84B JUMP JUMPDEST PUSH1 0x40 MLOAD PUSH2 0x1B1 SWAP2 SWAP1 PUSH2 0x1255 JUMP JUMPDEST PUSH1 0x40 MLOAD DUP1 SWAP2 SUB SWAP1 RETURN JUMPDEST CALLVALUE DUP1 ISZERO PUSH2 0x1C5 JUMPI PUSH0 PUSH0 REVERT JUMPDEST POP PUSH2 0x1CE PUSH2 0x85C JUMP JUMPDEST PUSH1 0x40 MLOAD PUSH2 0x1DB SWAP2 SWAP1 PUSH2 0x10DF JUMP JUMPDEST PUSH1 0x40 MLOAD DUP1 SWAP2 SUB SWAP1 RETURN JUMPDEST CALLVALUE DUP1 ISZERO PUSH2 0x1EF JUMPI PUSH0 PUSH0 REVERT JUMPDEST POP PUSH2 0x1F8 PUSH2 0x863 JUMP JUMPDEST PUSH1 0x40 MLOAD PUSH2 0x205 SWAP2 SWAP1 PUSH2 0x10DF JUMP JUMPDEST PUSH1 0x40 MLOAD DUP1 SWAP2 SUB SWAP1 RETURN JUMPDEST CALLVALUE DUP1 ISZERO PUSH2 0x219 JUMPI PUSH0 PUSH0 REVERT JUMPDEST POP PUSH2 0x222 PUSH2 0x894 JUMP JUMPDEST PUSH1 0x40 MLOAD PUSH2 0x22F SWAP2 SWAP1 PUSH2 0x1316 JUMP JUMPDEST PUSH1 0x40 MLOAD DUP1 SWAP2 SUB SWAP1 RETURN JUMPDEST CALLVALUE DUP1 ISZERO PUSH2 0x243 JUMPI PUSH0 PUSH0 REVERT JUMPDEST POP PUSH2 0x24C PUSH2 0x925 JUMP JUMPDEST PUSH1 0x40 MLOAD PUSH2 0x259 SWAP2 SWAP1 PUSH2 0x10DF JUMP JUMPDEST PUSH1 0x40 MLOAD DUP1 SWAP2 SUB SWAP1 RETURN JUMPDEST PUSH2 0x27C PUSH1 0x4 DUP1 CALLDATASIZE SUB DUP2 ADD SWAP1 PUSH2 0x277 SWAP2 SWAP1 PUSH2 0x1375 JUMP JUMPDEST PUSH2 0x92B JUMP JUMPDEST STOP JUMPDEST PUSH2 0x298 PUSH1 0x4 DUP1 CALLDATASIZE SUB DUP2 ADD SWAP1 PUSH2 0x293 SWAP2 SWAP1 PUSH2 0x1375 JUMP JUMPDEST PUSH2 0xC25 JUMP JUMPDEST STOP JUMPDEST PUSH1 0x4 PUSH0 SWAP1 SLOAD SWAP1 PUSH2 0x100 EXP SWAP1 DIV PUSH20 0xFFFFFFFFFFFFFFFFFFFFFFFFFFFFFFFFFFFFFFFF AND PUSH20 0xFFFFFFFFFFFFFFFFFFFFFFFFFFFFFFFFFFFFFFFF AND CALLER PUSH20 0xFFFFFFFFFFFFFFFFFFFFFFFFFFFFFFFFFFFFFFFF AND EQ PUSH2 0x329 JUMPI PUSH1 0x40 MLOAD PUSH32 0x8C379A000000000000000000000000000000000000000000000000000000000 DUP2 MSTORE PUSH1 0x4 ADD PUSH2 0x320 SWAP1 PUSH2 0x13FA JUMP JUMPDEST PUSH1 0x40 MLOAD DUP1 SWAP2 SUB SWAP1 REVERT JUMPDEST PUSH1 0x1 PUSH0 PUSH0 PUSH2 0x100 EXP DUP2 SLOAD DUP2 PUSH1 0xFF MUL NOT AND SWAP1 DUP4 ISZERO ISZERO MUL OR SWAP1 SSTORE POP PUSH1 0x1 PUSH0 PUSH1 0x1 PUSH2 0x100 EXP DUP2 SLOAD DUP2 PUSH1 0xFF MUL NOT AND SWAP1 DUP4 ISZERO ISZERO MUL OR SWAP1 SSTORE POP JUMP JUMPDEST PUSH1 0x2 SLOAD DUP2 JUMP JUMPDEST PUSH1 0x1 SLOAD DUP2 JUMP JUMPDEST PUSH0 PUSH1 0x5 PUSH0 CALLER PUSH20 0xFFFFFFFFFFFFFFFFFFFFFFFFFFFFFFFFFFFFFFFF AND PUSH20 0xFFFFFFFFFFFFFFFFFFFFFFFFFFFFFFFFFFFFFFFF AND DUP2 MSTORE PUSH1 0x20 ADD SWAP1 DUP2 MSTORE PUSH1 0x20 ADD PUSH0 KECCAK256 SLOAD SWAP1 POP SWAP1 JUMP JUMPDEST PUSH1 0x60 PUSH1 0xB DUP1 SLOAD DUP1 PUSH1 0x20 MUL PUSH1 0x20 ADD PUSH1 0x40 MLOAD SWAP1 DUP2 ADD PUSH1 0x40 MSTORE DUP1 SWAP3 SWAP2 SWAP1 DUP2 DUP2 MSTORE PUSH1 0x20 ADD PUSH0 SWAP1 JUMPDEST DUP3 DUP3 LT ISZERO PUSH2 0x45F JUMPI DUP4 DUP3 SWAP1 PUSH0 MSTORE PUSH1 0x20 PUSH0 KECCAK256 SWAP1 PUSH1 0x2 MUL ADD PUSH1 0x40 MLOAD DUP1 PUSH1 0x40 ADD PUSH1 0x40 MSTORE SWAP1 DUP2 PUSH0 DUP3 ADD PUSH0 SWAP1 SLOAD SWAP1 PUSH2 0x100 EXP SWAP1 DIV PUSH20 0xFFFFFFFFFFFFFFFFFFFFFFFFFFFFFFFFFFFFFFFF AND PUSH20 0xFFFFFFFFFFFFFFFFFFFFFFFFFFFFFFFFFFFFFFFF AND PUSH20 0xFFFFFFFFFFFFFFFFFFFFFFFFFFFFFFFFFFFFFFFF AND DUP2 MSTORE PUSH1 0x20 ADD PUSH1 0x1 DUP3 ADD SLOAD DUP2 MSTORE POP POP DUP2 MSTORE PUSH1 0x20 ADD SWAP1 PUSH1 0x1 ADD SWAP1 PUSH2 0x3D1 JUMP JUMPDEST POP POP POP POP SWAP1 POP SWAP1 JUMP JUMPDEST CALLVALUE PUSH1 0x64 PUSH1 0x69 PUSH1 0x6 SLOAD PUSH2 0x47A SWAP2 SWAP1 PUSH2 0x1445 JUMP JUMPDEST PUSH2 0x484 SWAP2 SWAP1 PUSH2 0x14B3 JUMP JUMPDEST DUP2 GT PUSH2 0x4C5 JUMPI PUSH1 0x40 MLOAD PUSH32 0x8C379A000000000000000000000000000000000000000000000000000000000 DUP2 MSTORE PUSH1 0x4 ADD PUSH2 0x4BC SWAP1 PUSH2 0x1553 JUMP JUMPDEST PUSH1 0x40 MLOAD DUP1 SWAP2 SUB SWAP1 REVERT JUMPDEST PUSH1 0x4 PUSH0 SWAP1 SLOAD SWAP1 PUSH2 0x100 EXP SWAP1 DIV PUSH20 0xFFFFFFFFFFFFFFFFFFFFFFFFFFFFFFFFFFFFFFFF AND PUSH20 0xFFFFFFFFFFFFFFFFFFFFFFFFFFFFFFFFFFFFFFFF AND CALLER PUSH20 0xFFFFFFFFFFFFFFFFFFFFFFFFFFFFFFFFFFFFFFFF AND SUB PUSH2 0x554 JUMPI PUSH1 0x40 MLOAD PUSH32 0x8C379A000000000000000000000000000000000000000000000000000000000 DUP2 MSTORE PUSH1 0x4 ADD PUSH2 0x54B SWAP1 PUSH2 0x15BB JUMP JUMPDEST PUSH1 0x40 MLOAD DUP1 SWAP2 SUB SWAP1 REVERT JUMPDEST PUSH0 ISZERO ISZERO PUSH0 PUSH0 SWAP1 SLOAD SWAP1 PUSH2 0x100 EXP SWAP1 DIV PUSH1 0xFF AND ISZERO ISZERO EQ PUSH2 0x5A7 JUMPI PUSH1 0x40 MLOAD PUSH32 0x8C379A000000000000000000000000000000000000000000000000000000000 DUP2 MSTORE PUSH1 0x4 ADD PUSH2 0x59E SWAP1 PUSH2 0x1623 JUMP JUMPDEST PUSH1 0x40 MLOAD DUP1 SWAP2 SUB SWAP1 REVERT JUMPDEST PUSH1 0x2 SLOAD TIMESTAMP LT PUSH2 0x62A JUMPI PUSH32 0xA3A65B403BDAE88EB037F4ECC1D619F436FC3EF6BCBBEE3787757164E82883F2 PUSH1 0x7 PUSH0 SWAP1 SLOAD SWAP1 PUSH2 0x100 EXP SWAP1 DIV PUSH20 0xFFFFFFFFFFFFFFFFFFFFFFFFFFFFFFFFFFFFFFFF AND PUSH1 0x6 SLOAD PUSH1 0x40 MLOAD PUSH2 0x604 SWAP3 SWAP2 SWAP1 PUSH2 0x1650 JUMP JUMPDEST PUSH1 0x40 MLOAD DUP1 SWAP2 SUB SWAP1 LOG1 PUSH1 0x1 PUSH0 PUSH0 PUSH2 0x100 EXP DUP2 SLOAD DUP2 PUSH1 0xFF MUL NOT AND SWAP1 DUP4 ISZERO ISZERO MUL OR SWAP1 SSTORE POP PUSH2 0x848 JUMP JUMPDEST PUSH0 PUSH1 0x4 PUSH0 SWAP1 SLOAD SWAP1 PUSH2 0x100 EXP SWAP1 DIV PUSH20 0xFFFFFFFFFFFFFFFFFFFFFFFFFFFFFFFFFFFFFFFF AND PUSH20 0xFFFFFFFFFFFFFFFFFFFFFFFFFFFFFFFFFFFFFFFF AND CALLVALUE PUSH1 0x40 MLOAD PUSH2 0x670 SWAP1 PUSH2 0x16A4 JUMP JUMPDEST PUSH0 PUSH1 0x40 MLOAD DUP1 DUP4 SUB DUP2 DUP6 DUP8 GAS CALL SWAP3 POP POP POP RETURNDATASIZE DUP1 PUSH0 DUP2 EQ PUSH2 0x6AA JUMPI PUSH1 0x40 MLOAD SWAP2 POP PUSH1 0x1F NOT PUSH1 0x3F RETURNDATASIZE ADD AND DUP3 ADD PUSH1 0x40 MSTORE RETURNDATASIZE DUP3 MSTORE RETURNDATASIZE PUSH0 PUSH1 0x20 DUP5 ADD RETURNDATACOPY PUSH2 0x6AF JUMP JUMPDEST PUSH1 0x60 SWAP2 POP JUMPDEST POP POP SWAP1 POP DUP1 PUSH2 0x6F3 JUMPI PUSH1 0x40 MLOAD PUSH32 0x8C379A000000000000000000000000000000000000000000000000000000000 DUP2 MSTORE PUSH1 0x4 ADD PUSH2 0x6EA SWAP1 PUSH2 0x1702 JUMP JUMPDEST PUSH1 0x40 MLOAD DUP1 SWAP2 SUB SWAP1 REVERT JUMPDEST PUSH2 0x6FD CALLER CALLVALUE PUSH2 0xF74 JUMP JUMPDEST PUSH1 0x8 PUSH0 CALLER PUSH20 0xFFFFFFFFFFFFFFFFFFFFFFFFFFFFFFFFFFFFFFFF AND PUSH20 0xFFFFFFFFFFFFFFFFFFFFFFFFFFFFFFFFFFFFFFFF AND DUP2 MSTORE PUSH1 0x20 ADD SWAP1 DUP2 MSTORE PUSH1 0x20 ADD PUSH0 KECCAK256 CALLVALUE SWAP1 DUP1 PUSH1 0x1 DUP2 SLOAD ADD DUP1 DUP3 SSTORE DUP1 SWAP2 POP POP PUSH1 0x1 SWAP1 SUB SWAP1 PUSH0 MSTORE PUSH1 0x20 PUSH0 KECCAK256 ADD PUSH0 SWAP1 SWAP2 SWAP1 SWAP2 SWAP1 SWAP2 POP SSTORE CALLVALUE PUSH1 0x5 PUSH0 CALLER PUSH20 0xFFFFFFFFFFFFFFFFFFFFFFFFFFFFFFFFFFFFFFFF AND PUSH20 0xFFFFFFFFFFFFFFFFFFFFFFFFFFFFFFFFFFFFFFFF AND DUP2 MSTORE PUSH1 0x20 ADD SWAP1 DUP2 MSTORE PUSH1 0x20 ADD PUSH0 KECCAK256 PUSH0 DUP3 DUP3 SLOAD PUSH2 0x7AA SWAP2 SWAP1 PUSH2 0x1720 JUMP JUMPDEST SWAP3 POP POP DUP2 SWAP1 SSTORE POP CALLVALUE PUSH1 0x6 DUP2 SWAP1 SSTORE POP CALLER PUSH1 0x7 PUSH0 PUSH2 0x100 EXP DUP2 SLOAD DUP2 PUSH20 0xFFFFFFFFFFFFFFFFFFFFFFFFFFFFFFFFFFFFFFFF MUL NOT AND SWAP1 DUP4 PUSH20 0xFFFFFFFFFFFFFFFFFFFFFFFFFFFFFFFFFFFFFFFF AND MUL OR SWAP1 SSTORE POP CALLER PUSH20 0xFFFFFFFFFFFFFFFFFFFFFFFFFFFFFFFFFFFFFFFF AND PUSH32 0xEDFD1BD0E927FAD8BA6298334C473BE61786DEB0525A05924556CAAD8555C4E0 CALLVALUE PUSH1 0x40 MLOAD PUSH2 0x83E SWAP2 SWAP1 PUSH2 0x10DF JUMP JUMPDEST PUSH1 0x40 MLOAD DUP1 SWAP2 SUB SWAP1 LOG2 POP JUMPDEST POP JUMP JUMPDEST PUSH0 PUSH0 SWAP1 SLOAD SWAP1 PUSH2 0x100 EXP SWAP1 DIV PUSH1 0xFF AND DUP2 JUMP JUMPDEST PUSH0 TIMESTAMP SWAP1 POP SWAP1 JUMP JUMPDEST PUSH0 PUSH0 TIMESTAMP PUSH1 0x2 SLOAD PUSH2 0x873 SWAP2 SWAP1 PUSH2 0x1753 JUMP JUMPDEST LT PUSH2 0x88D JUMPI TIMESTAMP PUSH1 0x2 SLOAD PUSH2 0x886 SWAP2 SWAP1 PUSH2 0x1753 JUMP JUMPDEST SWAP1 POP PUSH2 0x891 JUMP JUMPDEST PUSH0 SWAP1 POP JUMPDEST SWAP1 JUMP JUMPDEST PUSH1 0x60 PUSH1 0x8 PUSH0 CALLER PUSH20 0xFFFFFFFFFFFFFFFFFFFFFFFFFFFFFFFFFFFFFFFF AND PUSH20 0xFFFFFFFFFFFFFFFFFFFFFFFFFFFFFFFFFFFFFFFF AND DUP2 MSTORE PUSH1 0x20 ADD SWAP1 DUP2 MSTORE PUSH1 0x20 ADD PUSH0 KECCAK256 DUP1 SLOAD DUP1 PUSH1 0x20 MUL PUSH1 0x20 ADD PUSH1 0x40 MLOAD SWAP1 DUP2 ADD PUSH1 0x40 MSTORE DUP1 SWAP3 SWAP2 SWAP1 DUP2 DUP2 MSTORE PUSH1 0x20 ADD DUP3 DUP1 SLOAD DUP1 ISZERO PUSH2 0x91B JUMPI PUSH1 0x20 MUL DUP3 ADD SWAP2 SWAP1 PUSH0 MSTORE PUSH1 0x20 PUSH0 KECCAK256 SWAP1 JUMPDEST DUP2 SLOAD DUP2 MSTORE PUSH1 0x20 ADD SWAP1 PUSH1 0x1 ADD SWAP1 DUP1 DUP4 GT PUSH2 0x907 JUMPI JUMPDEST POP POP POP POP POP SWAP1 POP SWAP1 JUMP JUMPDEST PUSH1 0x3 SLOAD DUP2 JUMP JUMPDEST PUSH1 0x1 ISZERO ISZERO PUSH0 PUSH1 0x1 SWAP1 SLOAD SWAP1 PUSH2 0x100 EXP SWAP1 DIV PUSH1 0xFF AND ISZERO ISZERO EQ PUSH2 0x980 JUMPI PUSH1 0x40 MLOAD PUSH32 0x8C379A000000000000000000000000000000000000000000000000000000000 DUP2 MSTORE PUSH1 0x4 ADD PUSH2 0x977 SWAP1 PUSH2 0x17D0 JUMP JUMPDEST PUSH1 0x40 MLOAD DUP1 SWAP2 SUB SWAP1 REVERT JUMPDEST PUSH1 0x4 PUSH0 SWAP1 SLOAD SWAP1 PUSH2 0x100 EXP SWAP1 DIV PUSH20 0xFFFFFFFFFFFFFFFFFFFFFFFFFFFFFFFFFFFFFFFF AND PUSH20 0xFFFFFFFFFFFFFFFFFFFFFFFFFFFFFFFFFFFFFFFF AND CALLER PUSH20 0xFFFFFFFFFFFFFFFFFFFFFFFFFFFFFFFFFFFFFFFF AND EQ PUSH2 0xA0F JUMPI PUSH1 0x40 MLOAD PUSH32 0x8C379A000000000000000000000000000000000000000000000000000000000 DUP2 MSTORE PUSH1 0x4 ADD PUSH2 0xA06 SWAP1 PUSH2 0x13FA JUMP JUMPDEST PUSH1 0x40 MLOAD DUP1 SWAP2 SUB SWAP1 REVERT JUMPDEST PUSH1 0x5 PUSH0 DUP3 PUSH20 0xFFFFFFFFFFFFFFFFFFFFFFFFFFFFFFFFFFFFFFFF AND PUSH20 0xFFFFFFFFFFFFFFFFFFFFFFFFFFFFFFFFFFFFFFFF AND DUP2 MSTORE PUSH1 0x20 ADD SWAP1 DUP2 MSTORE PUSH1 0x20 ADD PUSH0 KECCAK256 SLOAD CALLVALUE GT ISZERO PUSH2 0xA8F JUMPI PUSH1 0x40 MLOAD PUSH32 0x8C379A000000000000000000000000000000000000000000000000000000000 DUP2 MSTORE PUSH1 0x4 ADD PUSH2 0xA86 SWAP1 PUSH2 0x185E JUMP JUMPDEST PUSH1 0x40 MLOAD DUP1 SWAP2 SUB SWAP1 REVERT JUMPDEST PUSH0 PUSH1 0x5 PUSH0 DUP4 PUSH20 0xFFFFFFFFFFFFFFFFFFFFFFFFFFFFFFFFFFFFFFFF AND PUSH20 0xFFFFFFFFFFFFFFFFFFFFFFFFFFFFFFFFFFFFFFFF AND DUP2 MSTORE PUSH1 0x20 ADD SWAP1 DUP2 MSTORE PUSH1 0x20 ADD PUSH0 KECCAK256 SLOAD GT PUSH2 0xB0E JUMPI PUSH1 0x40 MLOAD PUSH32 0x8C379A000000000000000000000000000000000000000000000000000000000 DUP2 MSTORE PUSH1 0x4 ADD PUSH2 0xB05 SWAP1 PUSH2 0x18C6 JUMP JUMPDEST PUSH1 0x40 MLOAD DUP1 SWAP2 SUB SWAP1 REVERT JUMPDEST PUSH0 DUP2 PUSH20 0xFFFFFFFFFFFFFFFFFFFFFFFFFFFFFFFFFFFFFFFF AND PUSH1 0x64 PUSH1 0x62 CALLVALUE PUSH2 0xB35 SWAP2 SWAP1 PUSH2 0x1445 JUMP JUMPDEST PUSH2 0xB3F SWAP2 SWAP1 PUSH2 0x14B3 JUMP JUMPDEST PUSH1 0x40 MLOAD PUSH2 0xB4B SWAP1 PUSH2 0x16A4 JUMP JUMPDEST PUSH0 PUSH1 0x40 MLOAD DUP1 DUP4 SUB DUP2 DUP6 DUP8 GAS CALL SWAP3 POP POP POP RETURNDATASIZE DUP1 PUSH0 DUP2 EQ PUSH2 0xB85 JUMPI PUSH1 0x40 MLOAD SWAP2 POP PUSH1 0x1F NOT PUSH1 0x3F RETURNDATASIZE ADD AND DUP3 ADD PUSH1 0x40 MSTORE RETURNDATASIZE DUP3 MSTORE RETURNDATASIZE PUSH0 PUSH1 0x20 DUP5 ADD RETURNDATACOPY PUSH2 0xB8A JUMP JUMPDEST PUSH1 0x60 SWAP2 POP JUMPDEST POP POP SWAP1 POP DUP1 PUSH2 0xBCE JUMPI PUSH1 0x40 MLOAD PUSH32 0x8C379A000000000000000000000000000000000000000000000000000000000 DUP2 MSTORE PUSH1 0x4 ADD PUSH2 0xBC5 SWAP1 PUSH2 0x1702 JUMP JUMPDEST PUSH1 0x40 MLOAD DUP1 SWAP2 SUB SWAP1 REVERT JUMPDEST CALLVALUE PUSH1 0x5 PUSH0 DUP5 PUSH20 0xFFFFFFFFFFFFFFFFFFFFFFFFFFFFFFFFFFFFFFFF AND PUSH20 0xFFFFFFFFFFFFFFFFFFFFFFFFFFFFFFFFFFFFFFFF AND DUP2 MSTORE PUSH1 0x20 ADD SWAP1 DUP2 MSTORE PUSH1 0x20 ADD PUSH0 KECCAK256 PUSH0 DUP3 DUP3 SLOAD PUSH2 0xC1A SWAP2 SWAP1 PUSH2 0x1753 JUMP JUMPDEST SWAP3 POP POP DUP2 SWAP1 SSTORE POP POP POP JUMP JUMPDEST PUSH1 0x4 PUSH0 SWAP1 SLOAD SWAP1 PUSH2 0x100 EXP SWAP1 DIV PUSH20 0xFFFFFFFFFFFFFFFFFFFFFFFFFFFFFFFFFFFFFFFF AND PUSH20 0xFFFFFFFFFFFFFFFFFFFFFFFFFFFFFFFFFFFFFFFF AND CALLER PUSH20 0xFFFFFFFFFFFFFFFFFFFFFFFFFFFFFFFFFFFFFFFF AND EQ PUSH2 0xCB4 JUMPI PUSH1 0x40 MLOAD PUSH32 0x8C379A000000000000000000000000000000000000000000000000000000000 DUP2 MSTORE PUSH1 0x4 ADD PUSH2 0xCAB SWAP1 PUSH2 0x13FA JUMP JUMPDEST PUSH1 0x40 MLOAD DUP1 SWAP2 SUB SWAP1 REVERT JUMPDEST PUSH1 0x5 PUSH0 DUP3 PUSH20 0xFFFFFFFFFFFFFFFFFFFFFFFFFFFFFFFFFFFFFFFF AND PUSH20 0xFFFFFFFFFFFFFFFFFFFFFFFFFFFFFFFFFFFFFFFF AND DUP2 MSTORE PUSH1 0x20 ADD SWAP1 DUP2 MSTORE PUSH1 0x20 ADD PUSH0 KECCAK256 SLOAD CALLVALUE GT ISZERO PUSH2 0xD34 JUMPI PUSH1 0x40 MLOAD PUSH32 0x8C379A000000000000000000000000000000000000000000000000000000000 DUP2 MSTORE PUSH1 0x4 ADD PUSH2 0xD2B SWAP1 PUSH2 0x185E JUMP JUMPDEST PUSH1 0x40 MLOAD DUP1 SWAP2 SUB SWAP1 REVERT JUMPDEST PUSH0 PUSH1 0x5 PUSH0 DUP4 PUSH20 0xFFFFFFFFFFFFFFFFFFFFFFFFFFFFFFFFFFFFFFFF AND PUSH20 0xFFFFFFFFFFFFFFFFFFFFFFFFFFFFFFFFFFFFFFFF AND DUP2 MSTORE PUSH1 0x20 ADD SWAP1 DUP2 MSTORE PUSH1 0x20 ADD PUSH0 KECCAK256 SLOAD GT PUSH2 0xDB3 JUMPI PUSH1 0x40 MLOAD PUSH32 0x8C379A000000000000000000000000000000000000000000000000000000000 DUP2 MSTORE PUSH1 0x4 ADD PUSH2 0xDAA SWAP1 PUSH2 0x18C6 JUMP JUMPDEST PUSH1 0x40 MLOAD DUP1 SWAP2 SUB SWAP1 REVERT JUMPDEST PUSH2 0xDBC DUP2 PUSH2 0x101B JUMP JUMPDEST PUSH1 0x5 PUSH0 DUP4 PUSH20 0xFFFFFFFFFFFFFFFFFFFFFFFFFFFFFFFFFFFFFFFF AND PUSH20 0xFFFFFFFFFFFFFFFFFFFFFFFFFFFFFFFFFFFFFFFF AND DUP2 MSTORE PUSH1 0x20 ADD SWAP1 DUP2 MSTORE PUSH1 0x20 ADD PUSH0 KECCAK256 SLOAD PUSH2 0xE04 SWAP2 SWAP1 PUSH2 0x1753 JUMP JUMPDEST PUSH1 0x64 PUSH1 0x66 CALLVALUE PUSH2 0xE13 SWAP2 SWAP1 PUSH2 0x1445 JUMP JUMPDEST PUSH2 0xE1D SWAP2 SWAP1 PUSH2 0x14B3 JUMP JUMPDEST LT PUSH2 0xE5D JUMPI PUSH1 0x40 MLOAD PUSH32 0x8C379A000000000000000000000000000000000000000000000000000000000 DUP2 MSTORE PUSH1 0x4 ADD PUSH2 0xE54 SWAP1 PUSH2 0x197A JUMP JUMPDEST PUSH1 0x40 MLOAD DUP1 SWAP2 SUB SWAP1 REVERT JUMPDEST PUSH0 DUP2 PUSH20 0xFFFFFFFFFFFFFFFFFFFFFFFFFFFFFFFFFFFFFFFF AND PUSH1 0x64 PUSH1 0x62 CALLVALUE PUSH2 0xE84 SWAP2 SWAP1 PUSH2 0x1445 JUMP JUMPDEST PUSH2 0xE8E SWAP2 SWAP1 PUSH2 0x14B3 JUMP JUMPDEST PUSH1 0x40 MLOAD PUSH2 0xE9A SWAP1 PUSH2 0x16A4 JUMP JUMPDEST PUSH0 PUSH1 0x40 MLOAD DUP1 DUP4 SUB DUP2 DUP6 DUP8 GAS CALL SWAP3 POP POP POP RETURNDATASIZE DUP1 PUSH0 DUP2 EQ PUSH2 0xED4 JUMPI PUSH1 0x40 MLOAD SWAP2 POP PUSH1 0x1F NOT PUSH1 0x3F RETURNDATASIZE ADD AND DUP3 ADD PUSH1 0x40 MSTORE RETURNDATASIZE DUP3 MSTORE RETURNDATASIZE PUSH0 PUSH1 0x20 DUP5 ADD RETURNDATACOPY PUSH2 0xED9 JUMP JUMPDEST PUSH1 0x60 SWAP2 POP JUMPDEST POP POP SWAP1 POP DUP1 PUSH2 0xF1D JUMPI PUSH1 0x40 MLOAD PUSH32 0x8C379A000000000000000000000000000000000000000000000000000000000 DUP2 MSTORE PUSH1 0x4 ADD PUSH2 0xF14 SWAP1 PUSH2 0x1702 JUMP JUMPDEST PUSH1 0x40 MLOAD DUP1 SWAP2 SUB SWAP1 REVERT JUMPDEST CALLVALUE PUSH1 0x5 PUSH0 DUP5 PUSH20 0xFFFFFFFFFFFFFFFFFFFFFFFFFFFFFFFFFFFFFFFF AND PUSH20 0xFFFFFFFFFFFFFFFFFFFFFFFFFFFFFFFFFFFFFFFF AND DUP2 MSTORE PUSH1 0x20 ADD SWAP1 DUP2 MSTORE PUSH1 0x20 ADD PUSH0 KECCAK256 PUSH0 DUP3 DUP3 SLOAD PUSH2 0xF69 SWAP2 SWAP1 PUSH2 0x1753 JUMP JUMPDEST SWAP3 POP POP DUP2 SWAP1 SSTORE POP POP POP JUMP JUMPDEST PUSH1 0xB PUSH1 0x40 MLOAD DUP1 PUSH1 0x40 ADD PUSH1 0x40 MSTORE DUP1 DUP5 PUSH20 0xFFFFFFFFFFFFFFFFFFFFFFFFFFFFFFFFFFFFFFFF AND DUP2 MSTORE PUSH1 0x20 ADD DUP4 DUP2 MSTORE POP SWAP1 DUP1 PUSH1 0x1 DUP2 SLOAD ADD DUP1 DUP3 SSTORE DUP1 SWAP2 POP POP PUSH1 0x1 SWAP1 SUB SWAP1 PUSH0 MSTORE PUSH1 0x20 PUSH0 KECCAK256 SWAP1 PUSH1 0x2 MUL ADD PUSH0 SWAP1 SWAP2 SWAP1 SWAP2 SWAP1 SWAP2 POP PUSH0 DUP3 ADD MLOAD DUP2 PUSH0 ADD PUSH0 PUSH2 0x100 EXP DUP2 SLOAD DUP2 PUSH20 0xFFFFFFFFFFFFFFFFFFFFFFFFFFFFFFFFFFFFFFFF MUL NOT AND SWAP1 DUP4 PUSH20 0xFFFFFFFFFFFFFFFFFFFFFFFFFFFFFFFFFFFFFFFF AND MUL OR SWAP1 SSTORE POP PUSH1 0x20 DUP3 ADD MLOAD DUP2 PUSH1 0x1 ADD SSTORE POP POP POP POP JUMP JUMPDEST PUSH0 PUSH1 0x8 PUSH0 DUP4 PUSH20 0xFFFFFFFFFFFFFFFFFFFFFFFFFFFFFFFFFFFFFFFF AND PUSH20 0xFFFFFFFFFFFFFFFFFFFFFFFFFFFFFFFFFFFFFFFF AND DUP2 MSTORE PUSH1 0x20 ADD SWAP1 DUP2 MSTORE PUSH1 0x20 ADD PUSH0 KECCAK256 PUSH1 0x1 PUSH1 0x8 PUSH0 DUP6 PUSH20 0xFFFFFFFFFFFFFFFFFFFFFFFFFFFFFFFFFFFFFFFF AND PUSH20 0xFFFFFFFFFFFFFFFFFFFFFFFFFFFFFFFFFFFFFFFF AND DUP2 MSTORE PUSH1 0x20 ADD SWAP1 DUP2 MSTORE PUSH1 0x20 ADD PUSH0 KECCAK256 DUP1 SLOAD SWAP1 POP PUSH2 0x10A6 SWAP2 SWAP1 PUSH2 0x1753 JUMP JUMPDEST DUP2 SLOAD DUP2 LT PUSH2 0x10B7 JUMPI PUSH2 0x10B6 PUSH2 0x1998 JUMP JUMPDEST JUMPDEST SWAP1 PUSH0 MSTORE PUSH1 0x20 PUSH0 KECCAK256 ADD SLOAD SWAP1 POP SWAP2 SWAP1 POP JUMP JUMPDEST PUSH0 DUP2 SWAP1 POP SWAP2 SWAP1 POP JUMP JUMPDEST PUSH2 0x10D9 DUP2 PUSH2 0x10C7 JUMP JUMPDEST DUP3 MSTORE POP POP JUMP JUMPDEST PUSH0 PUSH1 0x20 DUP3 ADD SWAP1 POP PUSH2 0x10F2 PUSH0 DUP4 ADD DUP5 PUSH2 0x10D0 JUMP JUMPDEST SWAP3 SWAP2 POP POP JUMP JUMPDEST PUSH0 DUP2 MLOAD SWAP1 POP SWAP2 SWAP1 POP JUMP JUMPDEST PUSH0 DUP3 DUP3 MSTORE PUSH1 0x20 DUP3 ADD SWAP1 POP SWAP3 SWAP2 POP POP JUMP JUMPDEST PUSH0 DUP2 SWAP1 POP PUSH1 0x20 DUP3 ADD SWAP1 POP SWAP2 SWAP1 POP JUMP JUMPDEST PUSH0 PUSH20 0xFFFFFFFFFFFFFFFFFFFFFFFFFFFFFFFFFFFFFFFF DUP3 AND SWAP1 POP SWAP2 SWAP1 POP JUMP JUMPDEST PUSH0 PUSH2 0x114A DUP3 PUSH2 0x1121 JUMP JUMPDEST SWAP1 POP SWAP2 SWAP1 POP JUMP JUMPDEST PUSH2 0x115A DUP2 PUSH2 0x1140 JUMP JUMPDEST DUP3 MSTORE POP POP JUMP JUMPDEST PUSH2 0x1169 DUP2 PUSH2 0x10C7 JUMP JUMPDEST DUP3 MSTORE POP POP JUMP JUMPDEST PUSH1 0x40 DUP3 ADD PUSH0 DUP3 ADD MLOAD PUSH2 0x1183 PUSH0 DUP6 ADD DUP3 PUSH2 0x1151 JUMP JUMPDEST POP PUSH1 0x20 DUP3 ADD MLOAD PUSH2 0x1196 PUSH1 0x20 DUP6 ADD DUP3 PUSH2 0x1160 JUMP JUMPDEST POP POP POP POP JUMP JUMPDEST PUSH0 PUSH2 0x11A7 DUP4 DUP4 PUSH2 0x116F JUMP JUMPDEST PUSH1 0x40 DUP4 ADD SWAP1 POP SWAP3 SWAP2 POP POP JUMP JUMPDEST PUSH0 PUSH1 0x20 DUP3 ADD SWAP1 POP SWAP2 SWAP1 POP JUMP JUMPDEST PUSH0 PUSH2 0x11C9 DUP3 PUSH2 0x10F8 JUMP JUMPDEST PUSH2 0x11D3 DUP2 DUP6 PUSH2 0x1102 JUMP JUMPDEST SWAP4 POP PUSH2 0x11DE DUP4 PUSH2 0x1112 JUMP JUMPDEST DUP1 PUSH0 JUMPDEST DUP4 DUP2 LT ISZERO PUSH2 0x120E JUMPI DUP2 MLOAD PUSH2 0x11F5 DUP9 DUP3 PUSH2 0x119C JUMP JUMPDEST SWAP8 POP PUSH2 0x1200 DUP4 PUSH2 0x11B3 JUMP JUMPDEST SWAP3 POP POP PUSH1 0x1 DUP2 ADD SWAP1 POP PUSH2 0x11E1 JUMP JUMPDEST POP DUP6 SWAP4 POP POP POP POP SWAP3 SWAP2 POP POP JUMP JUMPDEST PUSH0 PUSH1 0x20 DUP3 ADD SWAP1 POP DUP2 DUP2 SUB PUSH0 DUP4 ADD MSTORE PUSH2 0x1233 DUP2 DUP5 PUSH2 0x11BF JUMP JUMPDEST SWAP1 POP SWAP3 SWAP2 POP POP JUMP JUMPDEST PUSH0 DUP2 ISZERO ISZERO SWAP1 POP SWAP2 SWAP1 POP JUMP JUMPDEST PUSH2 0x124F DUP2 PUSH2 0x123B JUMP JUMPDEST DUP3 MSTORE POP POP JUMP JUMPDEST PUSH0 PUSH1 0x20 DUP3 ADD SWAP1 POP PUSH2 0x1268 PUSH0 DUP4 ADD DUP5 PUSH2 0x1246 JUMP JUMPDEST SWAP3 SWAP2 POP POP JUMP JUMPDEST PUSH0 DUP2 MLOAD SWAP1 POP SWAP2 SWAP1 POP JUMP JUMPDEST PUSH0 DUP3 DUP3 MSTORE PUSH1 0x20 DUP3 ADD SWAP1 POP SWAP3 SWAP2 POP POP JUMP JUMPDEST PUSH0 DUP2 SWAP1 POP PUSH1 0x20 DUP3 ADD SWAP1 POP SWAP2 SWAP1 POP JUMP JUMPDEST PUSH0 PUSH2 0x12A2 DUP4 DUP4 PUSH2 0x1160 JUMP JUMPDEST PUSH1 0x20 DUP4 ADD SWAP1 POP SWAP3 SWAP2 POP POP JUMP JUMPDEST PUSH0 PUSH1 0x20 DUP3 ADD SWAP1 POP SWAP2 SWAP1 POP JUMP JUMPDEST PUSH0 PUSH2 0x12C4 DUP3 PUSH2 0x126E JUMP JUMPDEST PUSH2 0x12CE DUP2 DUP6 PUSH2 0x1278 JUMP JUMPDEST SWAP4 POP PUSH2 0x12D9 DUP4 PUSH2 0x1288 JUMP JUMPDEST DUP1 PUSH0 JUMPDEST DUP4 DUP2 LT ISZERO PUSH2 0x1309 JUMPI DUP2 MLOAD PUSH2 0x12F0 DUP9 DUP3 PUSH2 0x1297 JUMP JUMPDEST SWAP8 POP PUSH2 0x12FB DUP4 PUSH2 0x12AE JUMP JUMPDEST SWAP3 POP POP PUSH1 0x1 DUP2 ADD SWAP1 POP PUSH2 0x12DC JUMP JUMPDEST POP DUP6 SWAP4 POP POP POP POP SWAP3 SWAP2 POP POP JUMP JUMPDEST PUSH0 PUSH1 0x20 DUP3 ADD SWAP1 POP DUP2 DUP2 SUB PUSH0 DUP4 ADD MSTORE PUSH2 0x132E DUP2 DUP5 PUSH2 0x12BA JUMP JUMPDEST SWAP1 POP SWAP3 SWAP2 POP POP JUMP JUMPDEST PUSH0 PUSH0 REVERT JUMPDEST PUSH0 PUSH2 0x1344 DUP3 PUSH2 0x1121 JUMP JUMPDEST SWAP1 POP SWAP2 SWAP1 POP JUMP JUMPDEST PUSH2 0x1354 DUP2 PUSH2 0x133A JUMP JUMPDEST DUP2 EQ PUSH2 0x135E JUMPI PUSH0 PUSH0 REVERT JUMPDEST POP JUMP JUMPDEST PUSH0 DUP2 CALLDATALOAD SWAP1 POP PUSH2 0x136F DUP2 PUSH2 0x134B JUMP JUMPDEST SWAP3 SWAP2 POP POP JUMP JUMPDEST PUSH0 PUSH1 0x20 DUP3 DUP5 SUB SLT ISZERO PUSH2 0x138A JUMPI PUSH2 0x1389 PUSH2 0x1336 JUMP JUMPDEST JUMPDEST PUSH0 PUSH2 0x1397 DUP5 DUP3 DUP6 ADD PUSH2 0x1361 JUMP JUMPDEST SWAP2 POP POP SWAP3 SWAP2 POP POP JUMP JUMPDEST PUSH0 DUP3 DUP3 MSTORE PUSH1 0x20 DUP3 ADD SWAP1 POP SWAP3 SWAP2 POP POP JUMP JUMPDEST PUSH32 0x6E6F206573204F776E65722E2041636365736F207265737472696E6769646F00 PUSH0 DUP3 ADD MSTORE POP JUMP JUMPDEST PUSH0 PUSH2 0x13E4 PUSH1 0x1F DUP4 PUSH2 0x13A0 JUMP JUMPDEST SWAP2 POP PUSH2 0x13EF DUP3 PUSH2 0x13B0 JUMP JUMPDEST PUSH1 0x20 DUP3 ADD SWAP1 POP SWAP2 SWAP1 POP JUMP JUMPDEST PUSH0 PUSH1 0x20 DUP3 ADD SWAP1 POP DUP2 DUP2 SUB PUSH0 DUP4 ADD MSTORE PUSH2 0x1411 DUP2 PUSH2 0x13D8 JUMP JUMPDEST SWAP1 POP SWAP2 SWAP1 POP JUMP JUMPDEST PUSH32 0x4E487B7100000000000000000000000000000000000000000000000000000000 PUSH0 MSTORE PUSH1 0x11 PUSH1 0x4 MSTORE PUSH1 0x24 PUSH0 REVERT JUMPDEST PUSH0 PUSH2 0x144F DUP3 PUSH2 0x10C7 JUMP JUMPDEST SWAP2 POP PUSH2 0x145A DUP4 PUSH2 0x10C7 JUMP JUMPDEST SWAP3 POP DUP3 DUP3 MUL PUSH2 0x1468 DUP2 PUSH2 0x10C7 JUMP JUMPDEST SWAP2 POP DUP3 DUP3 DIV DUP5 EQ DUP4 ISZERO OR PUSH2 0x147F JUMPI PUSH2 0x147E PUSH2 0x1418 JUMP JUMPDEST JUMPDEST POP SWAP3 SWAP2 POP POP JUMP JUMPDEST PUSH32 0x4E487B7100000000000000000000000000000000000000000000000000000000 PUSH0 MSTORE PUSH1 0x12 PUSH1 0x4 MSTORE PUSH1 0x24 PUSH0 REVERT JUMPDEST PUSH0 PUSH2 0x14BD DUP3 PUSH2 0x10C7 JUMP JUMPDEST SWAP2 POP PUSH2 0x14C8 DUP4 PUSH2 0x10C7 JUMP JUMPDEST SWAP3 POP DUP3 PUSH2 0x14D8 JUMPI PUSH2 0x14D7 PUSH2 0x1486 JUMP JUMPDEST JUMPDEST DUP3 DUP3 DIV SWAP1 POP SWAP3 SWAP2 POP POP JUMP JUMPDEST PUSH32 0x6C61206F6665727461206E6F2073757065726120706F722035252061206C6120 PUSH0 DUP3 ADD MSTORE PUSH32 0x6D617320616C7461000000000000000000000000000000000000000000000000 PUSH1 0x20 DUP3 ADD MSTORE POP JUMP JUMPDEST PUSH0 PUSH2 0x153D PUSH1 0x28 DUP4 PUSH2 0x13A0 JUMP JUMPDEST SWAP2 POP PUSH2 0x1548 DUP3 PUSH2 0x14E3 JUMP JUMPDEST PUSH1 0x40 DUP3 ADD SWAP1 POP SWAP2 SWAP1 POP JUMP JUMPDEST PUSH0 PUSH1 0x20 DUP3 ADD SWAP1 POP DUP2 DUP2 SUB PUSH0 DUP4 ADD MSTORE PUSH2 0x156A DUP2 PUSH2 0x1531 JUMP JUMPDEST SWAP1 POP SWAP2 SWAP1 POP JUMP JUMPDEST PUSH32 0x6573204F776E65722E204E6F207075656465206F666572746172000000000000 PUSH0 DUP3 ADD MSTORE POP JUMP JUMPDEST PUSH0 PUSH2 0x15A5 PUSH1 0x1A DUP4 PUSH2 0x13A0 JUMP JUMPDEST SWAP2 POP PUSH2 0x15B0 DUP3 PUSH2 0x1571 JUMP JUMPDEST PUSH1 0x20 DUP3 ADD SWAP1 POP SWAP2 SWAP1 POP JUMP JUMPDEST PUSH0 PUSH1 0x20 DUP3 ADD SWAP1 POP DUP2 DUP2 SUB PUSH0 DUP4 ADD MSTORE PUSH2 0x15D2 DUP2 PUSH2 0x1599 JUMP JUMPDEST SWAP1 POP SWAP2 SWAP1 POP JUMP JUMPDEST PUSH32 0x737562617374612066696E616C697A6164610000000000000000000000000000 PUSH0 DUP3 ADD MSTORE POP JUMP JUMPDEST PUSH0 PUSH2 0x160D PUSH1 0x12 DUP4 PUSH2 0x13A0 JUMP JUMPDEST SWAP2 POP PUSH2 0x1618 DUP3 PUSH2 0x15D9 JUMP JUMPDEST PUSH1 0x20 DUP3 ADD SWAP1 POP SWAP2 SWAP1 POP JUMP JUMPDEST PUSH0 PUSH1 0x20 DUP3 ADD SWAP1 POP DUP2 DUP2 SUB PUSH0 DUP4 ADD MSTORE PUSH2 0x163A DUP2 PUSH2 0x1601 JUMP JUMPDEST SWAP1 POP SWAP2 SWAP1 POP JUMP JUMPDEST PUSH2 0x164A DUP2 PUSH2 0x1140 JUMP JUMPDEST DUP3 MSTORE POP POP JUMP JUMPDEST PUSH0 PUSH1 0x40 DUP3 ADD SWAP1 POP PUSH2 0x1663 PUSH0 DUP4 ADD DUP6 PUSH2 0x1641 JUMP JUMPDEST PUSH2 0x1670 PUSH1 0x20 DUP4 ADD DUP5 PUSH2 0x10D0 JUMP JUMPDEST SWAP4 SWAP3 POP POP POP JUMP JUMPDEST PUSH0 DUP2 SWAP1 POP SWAP3 SWAP2 POP POP JUMP JUMPDEST POP JUMP JUMPDEST PUSH0 PUSH2 0x168F PUSH0 DUP4 PUSH2 0x1677 JUMP JUMPDEST SWAP2 POP PUSH2 0x169A DUP3 PUSH2 0x1681 JUMP JUMPDEST PUSH0 DUP3 ADD SWAP1 POP SWAP2 SWAP1 POP JUMP JUMPDEST PUSH0 PUSH2 0x16AE DUP3 PUSH2 0x1684 JUMP JUMPDEST SWAP2 POP DUP2 SWAP1 POP SWAP2 SWAP1 POP JUMP JUMPDEST PUSH32 0x66616C6C6120656E206C61207472616E73616363696F6E000000000000000000 PUSH0 DUP3 ADD MSTORE POP JUMP JUMPDEST PUSH0 PUSH2 0x16EC PUSH1 0x17 DUP4 PUSH2 0x13A0 JUMP JUMPDEST SWAP2 POP PUSH2 0x16F7 DUP3 PUSH2 0x16B8 JUMP JUMPDEST PUSH1 0x20 DUP3 ADD SWAP1 POP SWAP2 SWAP1 POP JUMP JUMPDEST PUSH0 PUSH1 0x20 DUP3 ADD SWAP1 POP DUP2 DUP2 SUB PUSH0 DUP4 ADD MSTORE PUSH2 0x1719 DUP2 PUSH2 0x16E0 JUMP JUMPDEST SWAP1 POP SWAP2 SWAP1 POP JUMP JUMPDEST PUSH0 PUSH2 0x172A DUP3 PUSH2 0x10C7 JUMP JUMPDEST SWAP2 POP PUSH2 0x1735 DUP4 PUSH2 0x10C7 JUMP JUMPDEST SWAP3 POP DUP3 DUP3 ADD SWAP1 POP DUP1 DUP3 GT ISZERO PUSH2 0x174D JUMPI PUSH2 0x174C PUSH2 0x1418 JUMP JUMPDEST JUMPDEST SWAP3 SWAP2 POP POP JUMP JUMPDEST PUSH0 PUSH2 0x175D DUP3 PUSH2 0x10C7 JUMP JUMPDEST SWAP2 POP PUSH2 0x1768 DUP4 PUSH2 0x10C7 JUMP JUMPDEST SWAP3 POP DUP3 DUP3 SUB SWAP1 POP DUP2 DUP2 GT ISZERO PUSH2 0x1780 JUMPI PUSH2 0x177F PUSH2 0x1418 JUMP JUMPDEST JUMPDEST SWAP3 SWAP2 POP POP JUMP JUMPDEST PUSH32 0x6465766F6C7563696F6E65732063657272616461730000000000000000000000 PUSH0 DUP3 ADD MSTORE POP JUMP JUMPDEST PUSH0 PUSH2 0x17BA PUSH1 0x15 DUP4 PUSH2 0x13A0 JUMP JUMPDEST SWAP2 POP PUSH2 0x17C5 DUP3 PUSH2 0x1786 JUMP JUMPDEST PUSH1 0x20 DUP3 ADD SWAP1 POP SWAP2 SWAP1 POP JUMP JUMPDEST PUSH0 PUSH1 0x20 DUP3 ADD SWAP1 POP DUP2 DUP2 SUB PUSH0 DUP4 ADD MSTORE PUSH2 0x17E7 DUP2 PUSH2 0x17AE JUMP JUMPDEST SWAP1 POP SWAP2 SWAP1 POP JUMP JUMPDEST PUSH32 0x6E6F207469656E6520737566696369656E74657320666F6E646F732070617261 PUSH0 DUP3 ADD MSTORE PUSH32 0x2072657469726172000000000000000000000000000000000000000000000000 PUSH1 0x20 DUP3 ADD MSTORE POP JUMP JUMPDEST PUSH0 PUSH2 0x1848 PUSH1 0x28 DUP4 PUSH2 0x13A0 JUMP JUMPDEST SWAP2 POP PUSH2 0x1853 DUP3 PUSH2 0x17EE JUMP JUMPDEST PUSH1 0x40 DUP3 ADD SWAP1 POP SWAP2 SWAP1 POP JUMP JUMPDEST PUSH0 PUSH1 0x20 DUP3 ADD SWAP1 POP DUP2 DUP2 SUB PUSH0 DUP4 ADD MSTORE PUSH2 0x1875 DUP2 PUSH2 0x183C JUMP JUMPDEST SWAP1 POP SWAP2 SWAP1 POP JUMP JUMPDEST PUSH32 0x6E6F207469656E6520666F6E646F730000000000000000000000000000000000 PUSH0 DUP3 ADD MSTORE POP JUMP JUMPDEST PUSH0 PUSH2 0x18B0 PUSH1 0xF DUP4 PUSH2 0x13A0 JUMP JUMPDEST SWAP2 POP PUSH2 0x18BB DUP3 PUSH2 0x187C JUMP JUMPDEST PUSH1 0x20 DUP3 ADD SWAP1 POP SWAP2 SWAP1 POP JUMP JUMPDEST PUSH0 PUSH1 0x20 DUP3 ADD SWAP1 POP DUP2 DUP2 SUB PUSH0 DUP4 ADD MSTORE PUSH2 0x18DD DUP2 PUSH2 0x18A4 JUMP JUMPDEST SWAP1 POP SWAP2 SWAP1 POP JUMP JUMPDEST PUSH32 0x70756564652072657469726172206861737461206C61206F666572746120756C PUSH0 DUP3 ADD MSTORE PUSH32 0x74696D612E2054656E657220656E206375656E746120656C2032252064652063 PUSH1 0x20 DUP3 ADD MSTORE PUSH32 0x6F6D6973696F6E00000000000000000000000000000000000000000000000000 PUSH1 0x40 DUP3 ADD MSTORE POP JUMP JUMPDEST PUSH0 PUSH2 0x1964 PUSH1 0x47 DUP4 PUSH2 0x13A0 JUMP JUMPDEST SWAP2 POP PUSH2 0x196F DUP3 PUSH2 0x18E4 JUMP JUMPDEST PUSH1 0x60 DUP3 ADD SWAP1 POP SWAP2 SWAP1 POP JUMP JUMPDEST PUSH0 PUSH1 0x20 DUP3 ADD SWAP1 POP DUP2 DUP2 SUB PUSH0 DUP4 ADD MSTORE PUSH2 0x1991 DUP2 PUSH2 0x1958 JUMP JUMPDEST SWAP1 POP SWAP2 SWAP1 POP JUMP JUMPDEST PUSH32 0x4E487B7100000000000000000000000000000000000000000000000000000000 PUSH0 MSTORE PUSH1 0x32 PUSH1 0x4 MSTORE PUSH1 0x24 PUSH0 REVERT INVALID LOG2 PUSH5 0x6970667358 0x22 SLT KECCAK256 0xE TSTORE 0x2B 0xBC DUP4 ORIGIN 0x23 CHAINID ORIGIN ADDRESS 0xE2 0xB3 SWAP15 0xED BLOBBASEFEE DUP9 SAR GT DUP2 0x2B MOD 0xBA NOT PUSH24 0x84AB2CCA328736D64736F6C634300081E00330000000000 "
				},
				"gasEstimates": {
					"creation": {
						"codeDepositCost": "1330200",
						"executionCost": "infinite",
						"totalCost": "infinite"
					},
					"external": {
						"": "217",
						"OFERTAR()": "infinite",
						"finalizarSubasta()": "50894",
						"ofertaBase()": "2470",
						"retornarDeposito(address)": "infinite",
						"retornarDepositoParciales(address)": "infinite",
						"subastaTerminada()": "2488",
						"tiempoDuracionSubasta()": "2448",
						"tiempoInicioSubasta()": "2469",
						"verDepositoOferente()": "2586",
						"verOfertasOferenteActual()": "infinite",
						"verTiempoFaltante()": "infinite",
						"verTimestampActual()": "376",
						"verTodasLasOfertas()": "infinite"
					},
					"internal": {
						"getOfertaMasALtaOferente(address)": "infinite",
						"setOferente(address,uint256)": "infinite"
					}
				},
				"methodIdentifiers": {
					"OFERTAR()": "54c7d806",
					"finalizarSubasta()": "0851eac2",
					"ofertaBase()": "21c6e2df",
					"retornarDeposito(address)": "efebcd1f",
					"retornarDepositoParciales(address)": "f5d2db26",
					"subastaTerminada()": "b456ef04",
					"tiempoDuracionSubasta()": "0b76c441",
					"tiempoInicioSubasta()": "e60216b8",
					"verDepositoOferente()": "27391994",
					"verOfertasOferenteActual()": "c7962b57",
					"verTiempoFaltante()": "b9c29937",
					"verTimestampActual()": "b53c107b",
					"verTodasLasOfertas()": "3c379642"
				}
			},
			"storageLayout": {
				"storage": [
					{
						"astId": 11,
						"contract": "subasta/subasta.sol:Subasta",
						"label": "subastaTerminada",
						"offset": 0,
						"slot": "0",
						"type": "t_bool"
					},
					{
						"astId": 13,
						"contract": "subasta/subasta.sol:Subasta",
						"label": "habilitarDevoluciones",
						"offset": 1,
						"slot": "0",
						"type": "t_bool"
					},
					{
						"astId": 15,
						"contract": "subasta/subasta.sol:Subasta",
						"label": "ofertaBase",
						"offset": 0,
						"slot": "1",
						"type": "t_uint256"
					},
					{
						"astId": 17,
						"contract": "subasta/subasta.sol:Subasta",
						"label": "tiempoDuracionSubasta",
						"offset": 0,
						"slot": "2",
						"type": "t_uint256"
					},
					{
						"astId": 19,
						"contract": "subasta/subasta.sol:Subasta",
						"label": "tiempoInicioSubasta",
						"offset": 0,
						"slot": "3",
						"type": "t_uint256"
					},
					{
						"astId": 21,
						"contract": "subasta/subasta.sol:Subasta",
						"label": "direccionSubasta",
						"offset": 0,
						"slot": "4",
						"type": "t_address_payable"
					},
					{
						"astId": 25,
						"contract": "subasta/subasta.sol:Subasta",
						"label": "depositos",
						"offset": 0,
						"slot": "5",
						"type": "t_mapping(t_address,t_uint256)"
					},
					{
						"astId": 28,
						"contract": "subasta/subasta.sol:Subasta",
						"label": "ofertaMasAlta",
						"offset": 0,
						"slot": "6",
						"type": "t_uint256"
					},
					{
						"astId": 30,
						"contract": "subasta/subasta.sol:Subasta",
						"label": "ganadorDireccion",
						"offset": 0,
						"slot": "7",
						"type": "t_address"
					},
					{
						"astId": 35,
						"contract": "subasta/subasta.sol:Subasta",
						"label": "ofertas",
						"offset": 0,
						"slot": "8",
						"type": "t_mapping(t_address,t_array(t_uint256)dyn_storage)"
					},
					{
						"astId": 43,
						"contract": "subasta/subasta.sol:Subasta",
						"label": "oferta",
						"offset": 0,
						"slot": "9",
						"type": "t_struct(Ofertas)40_storage"
					},
					{
						"astId": 47,
						"contract": "subasta/subasta.sol:Subasta",
						"label": "matriz_ofertas",
						"offset": 0,
						"slot": "11",
						"type": "t_array(t_struct(Ofertas)40_storage)dyn_storage"
					}
				],
				"types": {
					"t_address": {
						"encoding": "inplace",
						"label": "address",
						"numberOfBytes": "20"
					},
					"t_address_payable": {
						"encoding": "inplace",
						"label": "address payable",
						"numberOfBytes": "20"
					},
					"t_array(t_struct(Ofertas)40_storage)dyn_storage": {
						"base": "t_struct(Ofertas)40_storage",
						"encoding": "dynamic_array",
						"label": "struct Subasta.Ofertas[]",
						"numberOfBytes": "32"
					},
					"t_array(t_uint256)dyn_storage": {
						"base": "t_uint256",
						"encoding": "dynamic_array",
						"label": "uint256[]",
						"numberOfBytes": "32"
					},
					"t_bool": {
						"encoding": "inplace",
						"label": "bool",
						"numberOfBytes": "1"
					},
					"t_mapping(t_address,t_array(t_uint256)dyn_storage)": {
						"encoding": "mapping",
						"key": "t_address",
						"label": "mapping(address => uint256[])",
						"numberOfBytes": "32",
						"value": "t_array(t_uint256)dyn_storage"
					},
					"t_mapping(t_address,t_uint256)": {
						"encoding": "mapping",
						"key": "t_address",
						"label": "mapping(address => uint256)",
						"numberOfBytes": "32",
						"value": "t_uint256"
					},
					"t_struct(Ofertas)40_storage": {
						"encoding": "inplace",
						"label": "struct Subasta.Ofertas",
						"members": [
							{
								"astId": 37,
								"contract": "subasta/subasta.sol:Subasta",
								"label": "oferente",
								"offset": 0,
								"slot": "0",
								"type": "t_address"
							},
							{
								"astId": 39,
								"contract": "subasta/subasta.sol:Subasta",
								"label": "valorOferta",
								"offset": 0,
								"slot": "1",
								"type": "t_uint256"
							}
						],
						"numberOfBytes": "64"
					},
					"t_uint256": {
						"encoding": "inplace",
						"label": "uint256",
						"numberOfBytes": "32"
					}
				}
			},
			"userdoc": {
				"kind": "user",
				"methods": {},
				"version": 1
			}
		}
	}
}